:020000040800F2
:100000000861002095030008EF6000081B47000806
:10001000ED600008131F00088D7400080000000048
:10002000000000000000000000000000D5020008F1
:10003000E91F00080000000031030008A16C00085F
:10004000AF030008AF030008AF030008AF030008C8
:10005000AF030008AF030008AF030008AF030008B8
:10006000AF030008AF030008AF030008151F000826
:10007000AF030008AF030008AF030008AF03000898
:10008000211F00082D1F0008AF030008AF03000860
:10009000AF030008AF030008AF030008AF03000878
:1000A000AF030008AF030008AF030008AF03000868
:1000B000AF030008AF030008AF030008294700089A
:1000C0001D470008AF030008AF030008AF03000896
:1000D000AF030008AF03000881740008AF030008F5
:1000E000AF030008AF030008AF030008AF03000828
:1000F000AF030008616D0008AF030008391F000856
:10010000AF030008AF030008AF030008AF03000807
:10011000AF030008AF030008AF030008AF030008F7
:10012000AF030008AF030008AF030008AF030008E7
:10013000AF030008AF030008AF030008AF030008D7
:10014000AF030008AF030008AF030008AF030008C7
:10015000AF030008AF030008AF030008AF030008B7
:10016000AF030008AF030008AF030008AF030008A7
:10017000AF030008AF030008AF0300080000000051
:10018000AF030008AF03000800F002F800F092F897
:100190000AA090E8000C82448344AAF10107DA45E2
:1001A00001D100F087F8AFF2090EBAE80F0013F0A2
:1001B000010F18BFFB1A43F00103184750A50000B8
:1001C00070A50000103A24BF78C878C1FAD8520749
:1001D00024BF30C830C144BF04680C6070470000C1
:1001E0000023002400250026103A28BF78C1FBD840
:1001F000520728BF30C148BF0B6070476E2900F01E
:10020000BD82702900F0078466290AF0F98065290B
:100210000AF0F68067290AF0F38061290AF0F2807B
:1002200003681B0A28BF41F08001692900F06A8237
:10023000642900F06782752900F064826F2900F05C
:100240009483782900F0D383E92900F02F83E429EF
:1002500000F02C83F52900F02983EF2900F0918329
:10026000F82900F0D2830368DB0928BF41F0800140
:10027000632901F00B81732901F01081E32901F05A
:100280001B81F32901F02081002070471FB50AF07F
:10029000B2F801F06FF90400002000210AF01EF806
:1002A000401C6060002000210AF002F8E0601FBDE1
:1002B00010B510BD01F030F91146FFF7E7FF08F067
:1002C00015F801F00DFA03B4FFF7F2FF03BC01F0DB
:1002D00051FA00002C4B19680868B0E8F04F80F321
:1002E0000988BFF36F8F4FF0000080F311887047CB
:1002F0000000000008480068006880F308884FF09C
:10030000000080F3148862B661B6BFF34F8FBFF36D
:100310006F8F00DF00BF00BF08ED00E0DFF80C00CA
:10032000016841F470010160704700BF88ED00E092
:10033000EFF30980BFF36F8F134B1A681EF0100F95
:1003400008BF20ED108A20E9F04F106009B44FF08B
:10035000500080F31188BFF34F8FBFF36F8F09F008
:10036000ADF84FF0000080F3118809BC19680868E7
:10037000B0E8F04F1EF0100F08BFB0EC108A80F309
:100380000988BFF36F8F704788000020EFF3058066
:10039000704700000948804709480047FEE7FEE72C
:1003A000FEE7FEE7FEE7FEE7FEE7FEE7FEE7FEE725
:1003B00004480549054A064B70470000516D000886
:1003C00089010008085B002008610020085D00200A
:1003D000085D002053EA020C00F069802DE9F04B23
:1003E0004FF00006002B1FBFB3FA83F503FA05F4A4
:1003F00024FA05F65E4012BF1643B2FA82F502FAFD
:1004000005F4C5F120051EBF22FA05FC44EA0C04E0
:10041000203556EA044C4FEA144418BF641C4FF0D0
:1004200000084FF00009904271EB030C39D300290A
:1004300019BFB1FA81F701FA07F6B0FA80F700FAAE
:1004400007F6C7F120071EBF20FA07FC46EA0C0694
:100450002037B6FBF4FCA7EB0507103F07F01F0B96
:10046000CBF120060CFA0BFB2CFA06F644BFB34680
:100470000026202FA4BF5E464FF0000B5BEA060C5F
:1004800008BF4FF0010B19EB0B09ABFB027C48EBEB
:100490000608C01B06FB02CC0BFB03CC71EB0C0166
:1004A000C1E70B46024641464846BDE8F08B13B50E
:1004B0004FF000004FF00001AFF30080BDE81C409A
:1004C000704700007CB51D4616460C00009001D018
:1004D0002044401E074B7B442A4669460190304623
:1004E00000F065F905461CB10020694600F072F97C
:1004F00028467CBD05030000032A40F2308010F03E
:10050000030C00F0158011F8013BBCF1020F6244AE
:1005100098BF11F801CB00F8013B38BF11F8013B3F
:10052000A2F1040298BF00F801CB38BF00F8013BEC
:1005300011F0030300F03E83083AC0F0088051F840
:10054000043B083A51F804CBA0E80810F5E7121D67
:100550005CBF51F8043B40F8043BAFF30080D20786
:1005600024BF11F8013B11F801CB48BF11F8012B52
:1005700024BF00F8013B00F801CB48BF00F8012B75
:10058000704702F0FF0343EA032242EA024200F00E
:1005900002B84FF000020429C0F0128010F0030CE2
:1005A00000F01B80CCF1040CBCF1020F18BF00F866
:1005B000012BA8BF20F8022BA1EB0C0100F00DB815
:1005C0005FEAC17C24BF00F8012B00F8012B48BF73
:1005D00000F8012B70474FF0000200B51346944617
:1005E0009646203922BFA0E80C50A0E80C50B1F18B
:1005F0002001BFF4F7AF090728BFA0E80C5048BF9F
:100600000CC05DF804EB890028BF40F8042B08BF3C
:10061000704748BF20F8022B11F0804F18BF00F838
:10062000012B704770477047704710B500F0F4FA1F
:10063000006810BD10B5044600F0EEFA046010BD6D
:1006400070B5044685690068C10601D5302600E012
:100650002026C00707D070BDD4E90121304690475D
:10066000206A401C20626D1EF6D570BD70B5044630
:1006700085690078C00707D170BDD4E90121202029
:100680009047206A401C20626D1EF6D570BD096837
:100690004A0501D540B27047C905FCD500B2704784
:1006A00009684A0501D5C0B27047C905FCD580B2BA
:1006B000704770B50C460546012A05D0287880069B
:1006C00000D5EA69002302E0012305E05B1C9342A8
:1006D00002D2E05C0028F9D1A869E618C01AA86126
:1006E000286A184428622846FFF7AAFF04E0D5E9E3
:1006F000012114F8010B9047B442F8D32846FFF7C4
:10070000B5FF70BD2DE9F04106460024106875293B
:10071000314616A510D0FFF7BAFF002802DA404292
:1007200013A507E031688A0701D512A502E0490741
:1007300004D511A5012401E0FFF7B2FF00210A2230
:1007400006F1240709E0B0FBF2FCB0FBF2F302FB78
:100750001C00303078541846491C0028F3D1234639
:100760002A463046BDE8F04100F09FBA0000000084
:100770002D0000002B00000020000000116802681E
:10078000006A530501D508700AE0D30501D5088039
:1007900006E0130603D5C217C1E9000200E00860B5
:1007A0000120704701694A1C02610878704700B552
:1007B0008FB0CDE901310021059105497944CDE99A
:1007C00003101146684600F031F90FB000BD00007B
:1007D000E5FFFFFF0A6802F8010B0A607047D1E9E4
:1007E00000239A4202D2531C0B6010707047000025
:1007F0002DE9FF5F15468A460446DFF8AC80F844D1
:100800000027D8E900103E46CDE9001010E03AF884
:1008100016106A4602A800F05BFE411C07D0217842
:10082000890603D5E269391891420DD80744761C30
:100830002078800602D5E069B84205DDAE42E6DBED
:100840003AF816000028E2D1A069C01BA06120463A
:10085000FFF7F6FED8E90010CDE90010002017E000
:100860003AF818106A4602A800F032FEB0F1FF3FD5
:1008700081460BD000250DF1080B05E0D4E90121DC
:100880001BF8050090476D1C4D45F7D308F101009A
:10089000B0428046E4DB206A384420622046FFF7FD
:1008A000E5FEBDE8FF9F0000EA9C00002DE9F04155
:1008B0008046D21D22F007020025D2E90002F52968
:1008C00015A614D0011E72F1000106DA0023D0EB48
:1008D000030063EB020211A608E0D8F800108B07B2
:1008E00001D50FA602E0490701D50EA60125114644
:1008F000002408F1240704E000F092F930323A5560
:10090000641C50EA0102F7D12B463246214640468C
:10091000BDE8F04100F0C9B9000000002D00000062
:100920002B0000002000000030B4002100F124045E
:1009300008E002F00705D208303542EA4372DB08CE
:100940006554491C52EA0305F3D10468002310A240
:10095000250707D5A40600D421B1C46901230DA23F
:10096000641EC46130BC00F0A0B910B50446214635
:100970001068FFF795FE02462046BDE810400023B0
:10098000D2E7D21D22F00701D1E90023CCE7000015
:100990000000000030000000F0B40D460188090599
:1009A00002D5214C7C4402E01F4C7C440E340021D3
:1009B00000F1240608E002F00F071209E75D42EAA1
:1009C00003721B097754491C52EA0307F3D10278DA
:1009D0000023120704D5702D06D009B1022311346B
:1009E0002246F0BC00F061B901231034F8E770B57D
:1009F00004460D4621461068FFF752FE024629467E
:100A00002046BDE870400023C6E7D21D22F0070350
:100A1000D3E90023C0E70368126843F020030360B2
:100A20000823C3610023B7E74C9B00002DE9F05F6A
:100A3000894604464FF0000ADFF874B1FB44C0F861
:100A400020A02046E1688847002874D0252806D0D9
:100A5000D4E901219047206A401C2062F1E700267A
:100A60005F462046E16888472028054607DB312D90
:100A700005D2781910F8200C08B10643F1E7B00749
:100A800001D526F00406C4F81CA00027C4F818A05D
:100A90002A2D09D0284607F0D9F838B304EB870887
:100AA000303DC8F8185019E059F8041B204604EBF3
:100AB00087029161E1688847012F054618D1E069F6
:100AC000002820DA26F020061DE0D8F8180000EBF8
:100AD000800005EB40003038C8F818002046E16877
:100AE0008847054607F0B2F80028EED1012F0AD05A
:100AF0002E2D08D12046E16888477F1C0546022F2D
:100B000046F02006C4DBA069002803DA404246F024
:100B10000106A061F00701D026F010066C2D0BD065
:100B2000682D09D04C2D39D06A2D35D0742D35D093
:100B30007A2D33D016E038E0E1682F46204688470A
:100B4000B842054609D16C2F26D04FF48060E16889
:100B5000064320468847054604E06C2F1AD04FF420
:100B6000807006430DB3A5F14100192802D8203545
:100B700046F400664A462946204626604E46FFF760
:100B80003DFB80B101280BD0F61D26F0070000F1D7
:100B9000080956E74020E4E78020D8E70020D6E7A0
:100BA00006F104094DE7284652E7206ABDE8F09FA8
:100BB000DC9A000010B5203AC0F00B80B1E8185064
:100BC000203AA0E81850B1E81850A0E81850BFF437
:100BD000F5AF5FEA027C24BFB1E81850A0E81850D6
:100BE00044BF18C918C0BDE810405FEA827C24BF2A
:100BF00051F8043B40F8043B08BF7047D20728BFB8
:100C000031F8023B48BF11F8012B28BF20F8023B06
:100C100048BF00F8012B704700487047A45A0020D5
:100C200030B5B0F10A024FEA900E71F100034EEABE
:100C3000817EB0EB0E0061EB91014FEA101E4EEA8F
:100C4000017E10EB0E0041EB11114FEA102E4EEA1F
:100C5000016E10EB0E0041EB11214FEA104E4EEAEF
:100C6000014E10EB0E0041EB1141401841F1000123
:100C70004FEAD00040EA41704FEAD10110EB800505
:100C80004FEA810444EA907444EB01046D1944EB8B
:100C90000404521BA3414FF0000348BF0A3200D5A1
:100CA00030BD401C41F1000130BD2DE9F0470D463B
:100CB00099469246044600F124080168880604D546
:100CC000E06921F01001216000E00120A84201DD6F
:100CD000471B00E00027A1697A1902EB0900081AF6
:100CE000A0612078C00602D42046FFF7A9FC0026A8
:100CF00008E0D4E901211AF806009047206A401C58
:100D0000761C20624E45F4DB2078C0060AD52046CA
:100D1000FFF796FC06E0D4E9012130209047206AD5
:100D2000401C2062381EA7F10107F4DC07E0D4E97B
:100D3000012118F805009047206A401C2062281EF7
:100D4000A5F10105F3DC2046FFF790FC20780006B2
:100D500002D50220BDE8F0870120FBE770472DE9AE
:100D6000FF4F0C461E464FF0FF378BB0D2E9000113
:100D7000DDF860800A908A46C1F30A5505B93D4600
:100D8000002108464FF00000BAF1000F00F44000C7
:100D900005DA00EB80004FF4400101EA50004FEA11
:100DA0009059B9F1010F00DDB9460A9850EA4A009E
:100DB0000ED044F61050A5F2FF3545432F14B8F17C
:100DC000000F1ED07542291E1EDDC9F100021CE075
:100DD000B8F1010F4FF0000001D0302103E0F243E1
:100DE00005E02154401CB042FBDB304600220021CC
:100DF00021540B99C1F80880C1E900200FB0BDE86B
:100E0000F08FBD1B6D1CDEE74A4600DA694206A87A
:100E100000F0F4FB06AB93E8070003AB83E80700A0
:100E200050460A9900F0ADFC8DE80700A0F500508F
:100E30001F3800900398002D0ADD42F21F014A4638
:100E40000844002303A90390684600F016FF09E058
:100E5000A0F500504A461F38002303A903906846B6
:100E600000F020FF8DE807000004000C03D04FF0D5
:100E7000FF30410800E01046B8F1000F03D0002217
:100E8000009215461EE0751E05D4FFF7C9FE3032EC
:100E900062556D1EF9D5B3460122084302D00022E7
:100EA0007F1C04E02078302801D100227F1E002A18
:100EB000099784D01DE0112D07DAFFF7B1FE30321B
:100EC00062556D1C50EA0102F5D1084302D000982A
:100ED000C8B10EE00021681E05E0235C625C63542B
:100EE0002254401E491C8142F7DBAB46A81B401E22
:100EF0000990002004F80B000B98099AC0F80880AC
:100F0000C0E9002B7AE711264FF0000857E72DE9DA
:100F1000F04F88460446D21D22F0070191B0D1E976
:100F20000001CDE90A0106F0B2FA02460B98C00FA3
:100F300001D02D2007E02068810701D52B2002E099
:100F4000202101EAC000032A099001D0072A05DB0D
:100F500003464146204600F011FB0BE12078800655
:100F600001D5E06900E00620B8F1650F814606D0A2
:100F7000B8F1660F18D0B8F1670F70D131E00020DA
:100F8000B9F1110F009001DB112301E009F1010318
:100F90000AAA01A90CA8FFF7E2FEDDE90C70002601
:100FA00009F10105834647E001204B4600904FF0D0
:100FB00000470AAA01A90CA8FFF7D1FEDDE90DB090
:100FC0000C995D46002610B909F101000D18B9EB26
:100FD000050003D4C0F1FF3609F10105A5EB0900B6
:100FE0002BE0B9F1010F01DA4FF001090020B9F14E
:100FF000110F0090484601DD112300E003460AAAC4
:1010000001A90CA8FFF7ABFEDDE90C704D460026E8
:101010008346207800070AD4AB4500DA5D4601A874
:10102000012D04DD411911F8011C302907D04F456D
:1010300002DA17F1040F04DA012082460FE06D1E78
:10104000EEE7002F02DCED1B3E4403E0781CA842D3
:1010500000DD7D1CB81B00F1010A4FF0004720782D
:10106000000703D4AA4501DB4FF0FF3A0021B7F196
:10107000004F0DF143088DF8431024D002202B239C
:10108000002F01DA7F422D230A21021EA0F1010068
:1010900000DC5FB197FBF1FC97FBF1F201FB1C7CDC
:1010A00017460CF1300C08F801CDEEE7A8F101006D
:1010B00003702188090501D5452100E06521A0F1D3
:1010C000010800F8011C09980FA9A1EB0807FF1DF2
:1010D00000B10120411901EBEA70A1693844081AF6
:1010E000401EA0612078C00602D42046FFF7A8FA6F
:1010F000099828B1D4E901219047206A401C206258
:101100002078C00622D52046FFF79AFA1EE0002E6E
:1011100004DBB34502DD01A8805D00E03020D4E9A6
:1011200001219047206A401C2062761CAAF1010030
:101130005FEA000A0AD100F01DFAC0680168405C4D
:10114000D4E901219047206A401C2062281EA5F1A5
:101150000105DCDC07E0D4E9012118F8010B904718
:10116000206A401C2062381EA7F10107F3DC2046EC
:10117000FFF77CFA032011B041E600002DE9F04FA3
:1011800004460D46D21D22F0070089B0D0E9009731
:101190004846394606F07BF90246F80F01D02D2368
:1011A00007E02068810701D52B2302E0202101EA16
:1011B000C0038DF820300BB1012000E00020032A8D
:1011C000824601D0072A04DB2946204600F0D6F9E2
:1011D0003FE12078800601D40D2500E0E569C7F3E2
:1011E0000A560D2D49DA00214FEA175B08464FF0E9
:1011F0000000002F00F4400007DA00EB80004FF4FD
:10120000400100EBD07001EA60008115012901DD89
:101210004FF0FF3100224FEA850CBCF1180F06D3C6
:101220001346ACF118004FF08052C24003E04FF477
:10123000801323FA0CF30CF10C0CBCF1200F04D337
:10124000ACF1200C09FA0CF001E007FA0CF00029CF
:101250004FF0004801DD18B90FE00ED140450CD326
:1012600019EB02095F4121B9404502D19F4329EAA8
:101270000209BBEB175F00D0761C2088000502D561
:101280007B48784402E07A487844193808AA302329
:1012900002F80A30037C0AF10101002E0AF1020A69
:1012A00053546A4602DC4FF0300101E04FF0310147
:1012B0004FF001088DF8001002D0A6F2FF3603E0CF
:1012C00059EA470100D06B4E002D02DC2178090756
:1012D00004D54FF002082E218DF80110C4460021DC
:1012E0000BE0C7F303433F01C35C491C6D1E02F8CA
:1012F0000830052908F1010801DA002DF1DC002190
:101300000CE000EB1973491C1B786D1E082902F8CC
:1013100008304FEA091908F1010801DA002DF0DC64
:1013200021688B0602D516E0A8F10108E04505DD2D
:1013300002EB080313F8013C302BF5D0B8F1000F95
:1013400009DD02EB080313F8013C2E2B03D109073A
:1013500001D4A8F10108002D05DD3E2102F8081096
:101360006D1E08F10108407C002E02F8080008F10B
:10137000010804DA2D20764202F8080002E02B2052
:1013800002F808000A214FF47A70864208F1010839
:101390000BDB96FBF0F3303302F8083096FBF0F3EA
:1013A00008F1010800FB136601E0642E0CDB6420E9
:1013B00096FBF0F3303302F8083096FBF0F308F1B7
:1013C000010800FB136601E00A2E06DB96FBF1F034
:1013D000303002F8080008F1010896FBF1F001FB3B
:1013E0001060303002F80800A16908F1010808EB2C
:1013F000050202EB0A00081AA0612078C00602D498
:101400002046FFF71DF9216A08AE01EB0A002062B1
:1014100004E0D4E9012116F8010B9047BAF1010A62
:10142000F7D22078C00602D52046FFF709F96E46AC
:1014300009E016F8010B3E280FD0D4E901219047AE
:10144000206A401C2062B8F10108F2D22046FFF762
:101450000DF909B00320BDE8F08F206A284420620E
:1014600003E0D4E90121302090476D1EEBD3F8E76B
:10147000DD92000002FCFFFF10B5436913B1AFF32A
:10148000008001E0FFF715F9012010BD127800F18E
:1014900024010A7000224A700122EDE711684FF022
:1014A000FF32E9E710B5436913B1AFF3008001E003
:1014B000FFF79EF9012010BD128800F124018284FB
:1014C0000022C2840122EDE711684FF0FF32E9E704
:1014D00070B516460C46054600F044F8036893F8CC
:1014E0000101012806D0FF2C0FD8185D68B101203A
:1014F0002C7070BDD3F807013246214603F2071362
:1015000003442846BDE8704018474FF0FF3070BDD7
:1015100000487047A45A00207546FFF7F9FFAE4611
:1015200005006946534620F00700854618B020B5EF
:10153000FEF73EFFBDE820404FF000064FF00007E9
:101540004FF000084FF0000B21F00701AC46ACE86B
:10155000C009ACE8C009ACE8C009ACE8C0098D46D8
:101560007047000010B500F005F8001D10BD00BF69
:101570006D8D000000487047C45A00202DE9F041ED
:101580001F46044603260168072A01F4006004DBB5
:1015900008B116A505E016A503E008B115A500E001
:1015A00015A521F010002060A069C01EA0610FB138
:1015B000401EA0612046FFF743F84FB1D4E9012156
:1015C00038469047206A401C2062C01C206206E01A
:1015D000206AFAE7D4E9012115F8010B9047761E3D
:1015E000F8D22046FFF742F8BDE8F0814E414E00A8
:1015F0006E616E00494E4600696E66002DE9F04747
:10160000814616468AB0354878440DC88DE80D00ED
:1016100032487844801C03AC0DC884E80D0041F6C4
:101620009B300844372190FBF1F290FBF1F5A5F1D6
:10163000800501FB12041B3C02D56442012000E03E
:101640000020DFF898A080460027FA44AAF1BE0ADD
:101650000EE0E0070AD03246684607EB4701012357
:101660000AEB810100F01EFB8DE8070064107F1C6F
:10167000002CEED1194F7F44AE3F19E0E80715D09A
:1016800007EB04100DF1180A90E80E008AE80E002E
:10169000C068F04201D1981908903246012306A98A
:1016A00003A800F0FFFA03AB83E807006D10641C89
:1016B000002DE3D14FF0010332466946B8F1000F27
:1016C00003A802D000F0D9FA01E000F0EBFAC9E972
:1016D0000001C9F808200AB0BDE8F087E88F0000D3
:1016E00010B50446AFF300802046BDE81040FEF779
:1016F000EABD00004FF0013C50F8042B51F8043BC8
:101700009A4221D1A2EB0C03934313EACC1317D1D5
:1017100050F8042B51F8043B9A4215D1A2EB0C036C
:10172000934313EACC130BD150F8042B51F8043B2C
:101730009A4209D1A2EB0C03934313EACC13DBD0FA
:101740004FF00000704700BFD01A01BAB1FA81F122
:1017500001F0180122FA01F0CB40C1F12001DBB207
:10176000C0B2C01A2CFA01F3D11A914311EAC31185
:10177000E6D1704701491820ABBEFEE72600020003
:1017800070475FEA400C08BF91F0000F4FEA8C23CE
:101790004FEAC12243EA51514FEA1C5018BF00F5ED
:1017A000F0404FEA300018BF41F000415FEA6C5C46
:1017B00000F02980BCF1FF3F08BF40F08040704737
:1017C000130C06BF12044FF0100C4FF0000C130E58
:1017D00004BF12020CF1080C130F04BF12010CF12C
:1017E000040C930F04BF92000CF1020CD30F04BF42
:1017F00052000CF1010C11464FF00002A0F11F0045
:10180000A0EB0C00704711F0004F08BF704731F09B
:1018100000413FF4D5AF0B0C06BF09044FF0100C8C
:101820004FF0000C0B0E04BF09020CF1080C0B0F5B
:1018300004BF09010CF1040C8B0F04BF89000CF1EB
:10184000020CCB0F04BF49000CF1010CCCF12003BA
:10185000A0EB0C0022FA03F302FA0CF241EA0301B6
:1018600000F10100704720F07F4C80EA030023F074
:101870007F47ACEB070303F57C5300F0004003F116
:10188000FF032DE980494FEA154B09B44FEA144391
:1018900025EA0B4E24EA03480FF2042606EB132731
:1018A00049083E785FEA320203FB0667C7F5000786
:1018B00007FB06F64FEA54374FEAD64606F1020612
:1018C00007FB066CCCF1005C4FEA1C472CEA074C86
:1018D00007FB06F40CFB06F504EB15464FEA9616DB
:1018E00034BF00204FF000404FEAD13706FB07FC21
:1018F0004FEA1C4C0CFB0BF7D21B03FB0CF761EB04
:1019000007010CFB0EF7B0EB074072EB17420CFB24
:1019100008F734BFA2EB0742B2EB074261EB174175
:101920004FEA0C444FEA910706FB07FC4FEA1C4CB8
:101930000CFB0BF7B0EBC74072EB573203FB0CF715
:1019400034BFA2EBC742B2EBC74261EB57310CFB8D
:101950000EF7B0EBC70072EB57720CFB08F734BF01
:10196000A2EBC702B2EBC70261EB5771039F4FEACC
:10197000816141EA921104EBCC044FEAD1374FEA7E
:10198000826206FB07FC42EA90124FEA80604FEA4F
:101990001C4C0CFB0BF7D21B03FB0CF761EB070194
:1019A0000CFB0EF7B0EB074072EB17420CFB08F78D
:1019B00034BFA2EB0742B2EB074261EB17414FEA9B
:1019C0008C554FEA910704EB9C2406FB07FC4FEA79
:1019D0001C4C0CFB0BF7B0EBC74072EB573203FB10
:1019E0000CF734BFA2EBC742B2EBC74261EB5731F1
:1019F0000CFB0EF7B0EBC70072EB57720CFB08F74D
:101A000034BFA2EBC702B2EBC70261EB577115EB13
:101A10004C254FEA816141EA92114FEA82624FEA16
:101A2000D13742EA901206FB07FC44F100044FEA6A
:101A300080604FEA1C4C0CFB0BF7D21B03FB0CF72E
:101A400061EB07010CFB0EF7B0EB074072EB17429E
:101A50000CFB08F734BFA2EB0742B2EB074261EB85
:101A6000174115EB1C154FEA813141EA92414FEACB
:101A7000823242EA90424FEA80304FEA0C7644F1DB
:101A8000000448EA03434EEA0B484FF0000EB2EB65
:101A9000080C71EB030724BF624639464EEB0E0E6D
:101AA0004FF0000B0018524149414BEB0B0BB2EBCE
:101AB000080C71EB03077BF1000B24BF624639462B
:101AC0004EEB0E0E4FF0000B0018524149414BEB0C
:101AD0000B0BB2EB080C71EB03077BF1000B24BF7F
:101AE000624639464EEB0E0E51EA020718BF46F029
:101AF000010616EB0E7655F1000254F1000103D5F4
:101B0000BDE88901BDE80088BDE88901BDE800485D
:101B1000B619524141EB0101A3F1010370478080E6
:101B20007F7E7D7C7B7A7978777676757473727137
:101B300071706F6E6E6D6C6C6B6A6A6968686766EF
:101B400066656464636362616160605F5F5E5E5D81
:101B50005D5C5C5B5B5A5A595958585757565655F5
:101B600055555454535352525251515050504F4F57
:101B70004F4E4E4D4D4D4C4C4C4B4B4B4A4A4A49A7
:101B800049494848484747474746464645454544EA
:101B90004444444343434342424242414141002B77
:101BA0009C4630D477002BD01CB54FEA370703B4DE
:101BB0004FF010004FF01001BAF1000F06D0BCF149
:101BC000000FDCBF40F0080040F008014FF00000BB
:101BD0000FBCBDE810400BF1010BBBF1010F08BFBA
:101BE0005FEA170722BF12F1010211F101014FF064
:101BF000004143F1000300F0004043EA0000704759
:101C0000F9D35708D0E746EA064613F1400F4FEAEA
:101C100016461FDD13F1200FDFBF16430A460021D1
:101C200020335B42BED0C3F1200746EA064602FAE3
:101C300007F74FEA164646EA0706C3F1200722FADD
:101C400003F201FA07F721FA03F14FF0000342EA29
:101C50000702A7E746EA020646EA06464FEA1646A4
:101C600046EA0106BCBF46EA0646360C4FF00003C2
:101C70004FF000024FF0000194E72DE9804C9A46A6
:101C8000934670B491E8380007C831EA400C48BF69
:101C900034EA430C03D5FFF7E6FDFFF780FFF0BC05
:101CA000BDE8008C2DE9804C9A46934670B491E8CB
:101CB000380007C810F0804F08BF13F0804F03D1E1
:101CC00000F005F8FFF76BFFF0BCBDE8008C20F0DA
:101CD0007F4780EA030023F07F4C07EB0C03A3F55A
:101CE0007C5300F00040A3F1FE0392F0000F00F0DF
:101CF000B38095F0000F00F077802DE901494FEA9D
:101D000011404FEA144621EA004800FB06FC24EA91
:101D1000064708FB06F607FB08F800FB07F718EB79
:101D200006484CEB164C4FEA124B18EB07484FEAAB
:101D300015464CEB174022EA0B4E0BFB06FC25EA3E
:101D400006470EFB06F607FB0EFE0BFB07F71EEB26
:101D5000064E4CEB164C4FF000061EEB074E4CEBBC
:101D6000174B18EB0B0840F1000018EB0E0B58EB6B
:101D7000000840F100008F1A4FF000013CBFC9433A
:101D8000661B14BFB5EB040C00213CBFC943F61B16
:101D90004FEA17444EEA8E0E27EA04454FEA1C47E5
:101DA00004FB07622CEA074C05FB07F70CFB05F662
:101DB00004FB0CFC16EB074642EB174216EB0C46F5
:101DC00042EB1C421BEB060658EB0202414146EA7D
:101DD0009E0601D5BDE80189B619524141EB0101CA
:101DE000A3F10103BDE801894FEA14454FEA114709
:101DF00024EA054621EA074C05FB07F406FB07F732
:101E00000CFB06F105FB0CFC11EB074144EB1744FE
:101E10004FEA124711EB0C4144EB1C4422EA074CF9
:101E200005FB07F206FB07F70CFB06F605FB0CFCAF
:101E300016EB074642EB174216EB0C4642EB1C45ED
:101E40006A1854F1000148BF7047B619524141EB7E
:101E50000101A3F10103704795F0000F37D04FEA5D
:101E600011424FEA144721EA024624EA074C02FBDA
:101E700007F106FB07F70CFB06F402FB0CFC14EB66
:101E8000074441EB17414FEA154714EB0C4441EB73
:101E90001C4125EA074C02FB07F506FB07F70CFB84
:101EA00006F602FB0CFC16EB074645EB174516EB56
:101EB0000C4645EB1C42121951F1000148BF704716
:101EC000B619524141EB0101A3F1010370474FEAFA
:101ED00014454FEA114724EA054621EA074C05FB61
:101EE00007F106FB07F70CFB06F24FF0000605FBB7
:101EF0000CFC12EB074241EB174112EB0C4251EB89
:101F00001C4148BF7047921841EB0101A3F1010346
:101F10007047FEE7014800F0CBB80000F00C00204D
:101F2000014800F0C5B80000C8100020014800F0CA
:101F3000BFB8000028110020014800F0B9B8000027
:101F4000500D002001681823CAB2103AB2FBF3F218
:101F5000054B6FF30901032A9B5CC36500D9091D7A
:101F60008165084670470000CCA4000810B5014602
:101F700000208B698A6A4FF0C07453B1B3F5005FDB
:101F800015D072B1012A0CD0022A0AD0032A09D135
:101F900004E01AB1012A06D0022A03D1C96AC90194
:101FA00000D5012010BDC96AA142FAD010BD002A97
:101FB000F7D0012AF2D0022AF3D0032AF3D010BDC1
:101FC00030B50468256825F48025256004686360C1
:101FD0008368402B036803D099600068C26030BDFD
:101FE0009A600068C16030BD704772B6FEE72DE9A7
:101FF000F0410446876D00F0DDFA064694F835009E
:102000000025022806D08020606584F83450012025
:10201000BDE8F0812068016821F0160101602068A8
:10202000416921F080014161206C08B9A06C20B1A8
:102030002068016821F0080101602068016821F032
:10204000010101600CE000F0B5FA801B052807D9FA
:1020500020206065032084F8350084F83450D7E7E9
:1020600020680068C007EED194F85C103F208840DB
:10207000B860012084F8350084F834500020C7E7A8
:1020800090F83510022903D0802141650120704766
:10209000052180F835100068016821F00101016018
:1020A00000207047406D704790F835007047000081
:1020B0002DE9F84304464FF00009CDF8009063483D
:1020C0004FF41651A56D0068B0FBF1F72E6894F837
:1020D0005C10082000FA01F131420FD021680A6833
:1020E00052070BD50A6822F004020A6094F85C10CB
:1020F0008840A860606D40F00100606594F85C1055
:102100004FF0010808FA01F0304208D0216849690F
:10211000090604D5A860606D40F00200606594F87F
:102120005C1004208840304208D021680968890783
:1021300004D5A860606D40F00400606594F85C1000
:1021400010208840304218D021680968090714D54A
:10215000A86020680168490304D50068000308D519
:10216000A16C07E00168C90503D4016821F00801EA
:102170000160216C09B12046884794F85C1020204A
:102180008840304231D021680968C9062DD5A86041
:1021900094F8350005282068016806D0490347D522
:1021A000006800031DD4616C1CE021F01601016081
:1021B0002068416921F080014161206C08B9A06C60
:1021C00020B12068016821F00801016094F85C10DA
:1021D0003F208840A86084F8358084F83490216DD1
:1021E0001FE0E16B09B120468847606D00282BD0C5
:1021F000606DC00714D0052084F8350020680168A0
:1022000021F0010101600098401C0090B84203D801
:1022100020680068C007F6D184F8358084F83490CF
:10222000E16C002910D001B02046BDE8F04308471A
:102230000168C905D5D4016821F01001016084F856
:10224000358084F83490CCE7BDE8F8838400002022
:102250002DE9F041044600F0ADF906465CB10220DC
:1022600084F83500002584F834502068016821F096
:10227000010101600DE00120BDE8F08100F09AF954
:10228000801B052805D920206065032084F83500CF
:10229000F2E720680068C007F0D122681168204882
:1022A0000140D4E901031843D4E90336334318430A
:1022B00063691843A3691843E3691843236A184301
:1022C0000843616A042903D1D4E90B131943084375
:1022D000106020684069666A20F0070130460E43AE
:1022E000012704280CD1A06A0643E06A40B12046C9
:1022F000FFF73CFE20B14020606584F83570BAE7F6
:10230000206846612046FFF71DFE94F85C203F21BF
:1023100091408160656584F835700020ACE700006D
:102320003F8010F02DE9F0410446866D90F83400AE
:10233000002501280DD0012084F8340094F8357070
:102340000020012F07D084F8340002252846BDE87C
:10235000F0810220FBE7022784F835706065204693
:10236000FFF72EFE94F85C103F208840B060206894
:10237000016841F016010160206C20B120680168FD
:1023800041F0080101602068016841F0010101602D
:10239000DCE7000070B5044600F00CF90546601C4F
:1023A00002D004480078044400F004F9401BA04225
:1023B000FAD370BD780000202DE9F84FDFF8BCA1FA
:1023C0000022012503264FF00F090AF1040BAAF1A0
:1023D000040E00BF0B6805FA02F42340A34270D13B
:1023E0000F7907F00307012F01D0022F16D187685C
:1023F0004FEA420806FA08FC27EA0C07D1F80CC09D
:102400000CFA08FC4CEA070CC0F808C04768A74360
:102410000C79C4F3001494403C4344600C79E443C9
:10242000A4070AD0C4684FEA420C06FA0CF7BC4372
:102430008F6807FA0CF72743C7600C7904F0030490
:10244000022C12D1D40800EB840CDCF82040570792
:10245000FF0E09FA07F824EA0804D1F8108008FAF8
:1024600007F848EA0408CCF8208004684FEA420CD8
:1024700006FA0CF7BC430F7907F0030707FA0CF7CD
:10248000274307604C6814F4403F70D03C4C2768E9
:1024900047F480472760246822F0030704F480444F
:1024A0000094384C07EB040CDCF8084897074FEA17
:1024B000177809FA08F7BC43334FB84202D1002716
:1024C00024E054E0314FB84201D101271EE0304FE3
:1024D000B84201D1022719E02E4FB84201D103279B
:1024E00014E02D4FB84201D104270FE02B4FB84222
:1024F00001D105270AE02A4FB84201D1062705E09D
:10250000284FB84201D1072700E0082707FA08F74B
:102510002743CCF80878DAF800405746D1F804C0D1
:102520009C435FEACC2C00D51C433C60DBF80040A8
:102530005F46D1F804C09C435FEA8C2C00D51C4355
:102540003C60DEF800407746D1F804C09C435FEA67
:102550008C3C00D51C433C60084F083F3C68D1F8D8
:1025600004C09C435FEACC3C00D51C433C60521C39
:10257000102AFFF42FAFBDE8F88F0000083C01409F
:102580004438024000300140000002400004024094
:1025900000080240000C02400010024000140240FB
:1025A00000180240001C02400AB181617047090412
:1025B000FBE70000014880687047000078000020B9
:1025C000704770472DE9F041016804464A694E683A
:1025D00090F83E000025D743FA0506D4F243D20511
:1025E00003D46FF4807201254A61B90508D4F14320
:1025F000C90505D422686FF4007145F002055161E8
:10260000790525D4F143C90522D4638D94F83D1092
:10261000226B202808D13BB9212910D029290ED0BE
:10262000282901D1212A0AD022686FF480615161E2
:1026300045F00405102806D0402804D008E02046C4
:1026400002F0ECFD04E02068016841F400710160D3
:10265000380508D4F043C00505D421686FF4006044
:1026600045F008054861002D07D0206C2843206400
:102670002046BDE8F04102F06DB9BDE8F0812DE9DA
:10268000F047026800215368C66A90F83E4090F80F
:102690003D50102C12D0402C10D0046C002C7DD05A
:1026A0005469E443A6077AD4DE43B60577D4036CB5
:1026B00003B19169BDE8F04702F08CBD976951699B
:1026C0004FF42A0CC9435FEAC1784FF02A4904D07D
:1026D00066452AD04E4528D010E0DE43B6050DD41D
:1026E000C16A614501D1012103E0C16A494501D1B7
:1026F0000821C162BDE8F04702F000BC0E0716D405
:10270000DE43B60513D4416CC9B21161416B09B106
:10271000C96B29B9816B002907D0C96B002904D086
:102720000068416841F400614160BDE8F0878E07B0
:1027300006D4DE43B60503D4BDE8F04702F052BB31
:10274000FE43526876074FEA02521DD4002AECDBA2
:102750000A0608D4DA43520505D4490705D5BDE871
:10276000F04702F0E3BA4907DFD4D9438905DCD446
:10277000212D05D0402CD8D1BDE8F04702F004BC93
:10278000BDE8F04702F090BA002ACEDB4A060BD42F
:10279000DA43520508D4490708D501E00DE00EE000
:1027A000BDE8F04702F006BA4907BED4D94389050F
:1027B000BBD4BDE8F04702F090B9916970E7E1063B
:1027C00006D4D943890503D4BDE8F04702F06EBDB5
:1027D0002821212D27D0292D25D0650655D4DD436C
:1027E0006D0552D4640752D590F83D30448D002CCD
:1027F0009BD01269446A2270426A521C4262428D26
:10280000521E4285428D002A8FD12A2B8DD102681B
:10281000536823F4806353602222026380F83D10E2
:1028200000F02CFC81E7250623D4DD436D0520D480
:10283000640720D590F83D30448D002CF2D0446AD6
:1028400024781461426A521C4262428D521E4285B3
:10285000428D002AE6D1292BE4D10268536823F483
:10286000806353602122026380F83D1000F007FC72
:102870005BE76107D6D4D9438905D3D4418D0029BC
:10288000D0D0416A097811610AE06107CAD4D943FE
:102890008905C7D4418D0029C4D01169426A1170DD
:1028A000416A491C4162418D491E41853DE770479F
:1028B00070B5040025D094F83D00002520B984F8B7
:1028C0003C50204600F060FB242084F83D00206846
:1028D000016821F0010101602068016841F40041B4
:1028E00001602068016821F40041016000F04CFDA6
:1028F0004D4A6168914201D84C4900E04C498842F8
:1029000001D2012070BD4B492368B0FBF1F15E6834
:1029100026F03F060E435E606368934206D94FF48B
:10292000967359434FF47A73B1FBF3F12368491C52
:102930001E6A26F03F06314319626168914210D841
:102940004900401EB0FBF1F2521CC2F30B02042AF4
:1029500001D2042022E0B0FBF1F0401CC0F30B00D8
:102960001CE0A268F2B301EBC10303EB0116431EA6
:10297000B3FBF6F35B1C43F480431B0549D092B3D1
:1029800001EBC10202EB0111401EB0FBF1F0401C53
:10299000C0F30B0040F4804040F400402168CA6955
:1029A0004CF6FF739A431043C861D4E90710014302
:1029B0002068026822F0C00211430160D4E90301DB
:1029C00001432068826848F2FF339A4311438160D3
:1029D000D4E9050108432168CA6822F0FF021043C8
:1029E000C86001E00EE016E02068016841F00101D6
:1029F00001602564202084F83D00256384F83E5062
:102A0000002070BD01EB4106431EB3FBF6F35B1CD7
:102A1000B3E70120C2E701EB4101401EB0FBF1F03A
:102A2000401CC0F30B00B7E7A086010080841E00A5
:102A300000093D0040420F0070477047704700009A
:102A400008B500680C49884215D102F00FFF00203C
:102A500000900A48006800280DD0694606F0A9FFDA
:102A60000098002807D006494FF080500860BFF357
:102A70004F8FBFF36F8F08BD0054004068000020E7
:102A800004ED00E0704700002DE9FF4F83B09A4647
:102A9000DDE9118793460446DDF84090FFF78AFD93
:102AA000054694F83D00202870D11923012274496D
:102AB0002046009502F0D4FC0028F5D194F83C00A3
:102AC000012863D0012084F83C0020680168C90710
:102AD00003D1016841F0010101602068016821F41F
:102AE00000610160222084F83D00402084F83E000F
:102AF00000262664C4F82490A4F82A80608D2085DE
:102B00006048E062CDE9007553465A462046049974
:102B100002F08EFA002879D1208DD0B1012821D081
:102B20000228206824D0416980690090208D032804
:102B300066D801282BD0544902283B464FF00002AA
:102B4000009557D08846204602F08AFC00285DD1C7
:102B50003AE02068416981690091016841F400719F
:102B600001607DE02068016821F480610160F0E788
:102B7000016821F4806101602068016841F400610E
:102B80000160206841698069009069E075E02A462B
:102B90003946204602F00AFD88BB54E020680168EF
:102BA00041F40071016020680069616A0870606A20
:102BB000401C6062218D491E2185618D491E618501
:102BC00021680969017042E02068016821F4806190
:102BD000016020680069616A0870606A401C606278
:102BE000208D401E2085608D401E60853B46002262
:102BF00041460095204602F033FC00B9CEE705E0DF
:102C00002A463946204602F0D1FC18B1012007B00F
:102C1000BDE8F08F20680069616A0870606A401C36
:102C20006062208D401E81B22185608D401E6085CE
:102C300020684269D243520712D4032903D10168A4
:102C400021F48061016020680069616A0870606A2F
:102C5000401C6062208D401E2085608D401E608576
:102C6000208D00287FF462AF202084F83D0084F896
:102C70003E6084F83C600020C9E70220C7E70000FE
:102C8000020010000000FFFF040001002DE9FC5FBE
:102C9000994692468B460446DDF83080FFF78AFC61
:102CA00000250646009594F83D00202828D1664866
:102CB00046F2A81120270068B0FBF1F000EBC0013C
:102CC00001EB001000900098401E009010D020688A
:102CD0008069C0438007F6D594F83C0001280FD0E6
:102CE000012084F83C0020680168C9070BD00EE081
:102CF00044F8305F6773A573206940F020002061BD
:102D00000220BDE8FC9F016841F0010101602068DC
:102D1000016821F400610160222084F83D00402018
:102D200084F83E002564C4F824800D986085608D89
:102D300020854648E062C4F844B0C4F848A0C4F80E
:102D40004C902565208D4FF02308002863D0A06BA0
:102D500000B33F49C163A16B3E48C864A06B0564E2
:102D6000A06B4564A06B8564A06B05652168238D0D
:102D70001031626AA06BFFF7D5FAA0B184F83D70FC
:102D800084F83E5054F8400F40F0100044F8040915
:102D9000257049E084F83D7084F83E5054F8400FA7
:102DA00040F08000F2E7CDE900864B465246594696
:102DB000204602F03DF988B1A06BFFF761F9A06BE6
:102DC000C5632068016821F48061016025856585FF
:102DD0002068016821F00101016025E0208D0128B3
:102DE000206813D0416841F48051416020684169F6
:102DF0008169009184F83C50416841F480714160E0
:102E00002068416841F4006141601BE0016821F4E1
:102E100080610160EAE7CDE900864B46524659469B
:102E2000204602F005F908B101206AE720684169EF
:102E300081690091016841F40071016084F83D707E
:102E400084F83C5000205CE7840000200000FFFF75
:102E500031480008F14700082DE9FF4F83B09A463A
:102E6000DDE9119793460446DDF84080FFF7A2FBA9
:102E7000054694F83D0020287FD1192301224049BE
:102E80002046009502F0ECFA002876D194F83C0038
:102E9000012872D0012084F83C0020680168C9072D
:102EA00003D1016841F0010101602068016821F44B
:102EB00000610160212084F83D00402084F83E003C
:102EC00000262664C4F82480A4F82A90608D20850A
:102ED0002C48E062CDE9007553465A4620460499D5
:102EE00002F024F970B930E02A463946204602F053
:102EF00095FB58B1206C042804D12068016841F486
:102F000000710160012007B0BDE8F08F606A2168A0
:102F100000780861606A401C6062218D491E89B298
:102F20002185628D521E628522685369DB435B07EF
:102F30000BD469B100781061606A401C6062208D1A
:102F4000401E2085608D401E6085208D0028CBD1DD
:102F50002A463946204602F057FA0028CAD154F8CA
:102F60003D0B016841F400710160202004F81E0946
:102F7000E67766770020C6E7FFE70220C3E7000098
:102F8000020010000000FFFF2DE9F04186B0064668
:102F900014216846FDF71FFB33493068884260D131
:102FA00032480024016841F002010160006869466E
:102FB00000F0020005904FF4407000901220CDE91F
:102FC000010403200390042004902948FFF7F4F93A
:102FD00026481030016841F4001101600068264D58
:102FE00000F400100590234828604705C5E90174E6
:102FF0004FF48068C5E903486C61AC61EC612C62F8
:1030000028466C62FFF724F908B1FEF7EEFFB563BE
:10301000AE63194D17486035A830E5E80207402037
:10302000A5E81101144845F814496030AC61EC6121
:103030002C626C62FFF70CF908B1FEF7D6FF7563DE
:10304000002206211F20AE6300F0B2F81F2000F01E
:10305000A1F800220621202000F0AAF8202000F08C
:1030600099F806B0BDE8F0810054004030380240C5
:103070000004024010600240F00C002070477047CE
:10308000024881680278114481607047780000200E
:103090000B4810B5016841F400710160016841F40A
:1030A00080610160016841F480710160032000F0DB
:1030B0009FF80F2000F006F800F050F8002010BD37
:1030C000003C024030B505461F4887B00024016827
:1030D00041F480710160006806A900F480700090DE
:1030E00001A800F031F90498A8B100F04DF94000B2
:1030F0001649174AB0FBF1F11648491E026040F22A
:10310000E732C0E90324C0E90114846100F0B6FB92
:10311000040003D015E000F037F9E9E70D4800F0AE
:10312000DBFB04000DD12D2000F034F8102D07D268
:10313000002229462D2000F03BF80748056000E0FA
:10314000012407B0204630BD4038024040420F0005
:1031500000200040881100207C0000200C4882B034
:10316000016841F480410160006800F480400090F3
:103170000748001F016841F080510160006800228B
:1031800000F0805000900F21901E02B000F010B8A7
:1031900044380240002809DB00F01F020121914061
:1031A0004009800000F1E020C0F8001170470000E5
:1031B000F0B40E4B1B680C46C3F30223C3F10705A2
:1031C000042D00D90425191D072901D2002300E090
:1031D000DB1E012606FA05F1491E214099409E405A
:1031E000761E16403143F0BC04F07CB90CED00E0D3
:1031F000064900F0070208684FF6FF03184040EA4E
:103200000220034A10430860704700000CED00E004
:103210000000FA052DE9F0470E46050065D0DFF8FD
:103220001481D8F80000F7B200F00700B04207D2CE
:1032300088F80070D8F8000000F00700B04254D1C0
:1032400028683D4C810712D5400703D5206840F41B
:10325000E05020602878000703D5206840F46040E3
:1032600020602068A96820F0F000084320602878DA
:10327000C0072DD0304968680839012812D00228CB
:1032800013D0032811D00968890700292DDA216895
:1032900021F0030101432160FFF78CF9814641F2DF
:1032A000883A0EE009688903EFE709688901ECE7CD
:1032B000FFF780F9A0EB0901514502D90320BDE8D1
:1032C000F0872068696800F00C00B0EB810FEFD147
:1032D000D8F80010404601F00701B14207D9077045
:1032E000006800F00700B04201D00120E7E728782D
:1032F000400705D52068E96820F4E05008432060C5
:103300002878000706D52068296920F4604040EA43
:10331000C100206000F058F82168084AC1F3031189
:10332000515CC8400649086006480068FFF7CAFEBD
:103330000020C4E7003C024008380240D4A4000842
:10334000840000207C0000200F2202600C4A1368D9
:1033500003F003034360136803F0F0038360136812
:1033600003F4E053C36012684FF4E05303EAD2025F
:1033700002610448006800F0070008607047000020
:1033800008380240003C02400448054900680968CA
:10339000044AC1F38221515CC84070478400002078
:1033A00008380240E4A40008044805490068096898
:1033B000044AC1F34231515CC84070478400002088
:1033C00008380240E4A40008154810B5006810F061
:1033D0000C02144813D04110042A0FD0082A0ED131
:1033E0000F4C241F2268236802F03F025B0207D5BE
:1033F0002068C0F38810A0FB010106E0084610BD5C
:103400002168C1F38811A1FB00010023FCF7E2FF52
:103410002168C1F30141491C4900B0FBF1F010BD26
:10342000083802400024F4002DE9F84F04006ED063
:103430002078DFF84C93C007A9F104054AD009F1C0
:1034400004000168C1F38101012908D00068C0F3BC
:10345000810002280AD1D9F80000400206D5286868
:10346000800337D560680028E1D033E06068B0F5AC
:10347000803F10D0B0F5A02F286810D020F4803005
:103480002860286820F4802028606068A8B1FFF7D1
:1034900091F806460DE0286840F48030F4E740F4E7
:1034A00080202860F7E700BFFFF784F8801B6428BE
:1034B00073D828688003F7D50CE0FFF77BF8064641
:1034C00005E000BFFFF776F8801B6428F0D8286875
:1034D0008003F7D42078DFF8AC8280074FF0000A31
:1034E0003ED5A748001D016811F00C0F08D00068F8
:1034F000C0F3810002280BD1D9F80000400207D4A4
:103500002868800716D5E068012800D112E033E171
:10351000E068B8B10120C8F80000FFF74BF8064694
:1035200005E000BFFFF746F8801B0228C0D82868D6
:103530008007F7D52868216920F0F80040EAC1002B
:1035400028600DE0C8F800A0FFF734F8064604E054
:10355000FFF730F8801B02281FD828688007F7D4AF
:103560002078000722D5864F87486169703771B18E
:1035700001210160FFF71EF8064604E0FFF71AF884
:10358000801B022809D838688007F7D50EE0C0F8FC
:1035900000A0FFF70FF8064605E082E0FFF70AF803
:1035A000801B02287DD838688007F7D42078400730
:1035B00068D5DFF8CCB100270BF13C0BDBF800003D
:1035C000C0000BD4DBF8001041F08051CBF80010A4
:1035D000DBF80000012700F0805000906B4E30684F
:1035E000C00510D4306840F480703060FEF7E2FF10
:1035F000009005E0FEF7DEFF0099401A022850D83F
:103600003068C005F6D55E4EA0686C3601280FD034
:103610000528306810D020F001003060306820F0BC
:1036200004003060A068B8B1FEF7C4FF00900FE05E
:10363000306840F00100F4E740F004003060F7E744
:10364000FEF7B8FF0099411A41F28830814266D8EE
:1036500030688007F4D50EE0FEF7ACFF009007E07D
:10366000FEF7A8FF0099411A41F28830814256D8EE
:1036700030688007F4D42FB1DBF8001021F08051BE
:10368000CBF80010A069C8B33D49091D0968C1F312
:10369000810102294AD00228504607D0C8F86000AC
:1036A00000E03CE0FEF786FF04463BE04746C8F8F2
:1036B0006000FEF77FFF064605E000BFFEF77AFFD9
:1036C000801B02282BD828688001F7D4D4E9070191
:1036D0000843A16A2E4A490802EB0141626A41EAA5
:1036E0008211084394F82C1040EA0161C9F80010D7
:1036F00001203866FEF75EFF044606E03EE000BFAC
:10370000FEF758FF001B022809D828688001F7D56A
:1037100034E000BFFEF74EFF001B022802D9032051
:10372000BDE8F88F28688001F4D427E00128F7D09D
:10373000D9F80000E26900F4800191421CD1226AAC
:1037400000F03F01914217D147F6C071626A014013
:10375000B1EB821F10D1A26A4FF0FF3300F4403169
:1037600003EB5202B1EB024F06D194F82C1000F09B
:103770007060B0EB016F01D00120D1E70020CFE7EE
:103780000438024000004742800E4742007000406B
:103790000000FFFF7047704710B590F83C20012AE9
:1037A00022D0012280F83C20CA688C6822F4407242
:1037B00022434C6822F4806222430C6822F40062A7
:1037C00022430C6922F4805222434C6922F40052B5
:1037D0002243C969002322F480420A4301684A64F3
:1037E00080F83C30002010BD022010BD70B590F86C
:1037F0003C20012A32D0012480F83C40022280F88B
:103800003D2003685A689D6822F070060A683243BA
:103810005A60134B02689A4214D0B2F1804F11D013
:10382000104B9A420ED0104B9A420BD00F4B9A423B
:1038300008D00F4B9A4205D00E4B9A4202D00E4B45
:103840009A4204D1496825F080031943916080F8B9
:103850003D40002180F83C10084670BD022070BD3C
:10386000000001400004004000080040000C00403F
:1038700000040140004001400018004010B5040061
:1038800003D094F83D0010B107E0012010BD0020E6
:1038900084F83C00204600F01EF8022084F83D0029
:1038A000211D206803F06AFA012084F8460084F89C
:1038B0003E0084F83F0084F8400084F8410084F81A
:1038C000420084F8430084F8440084F8450084F8FA
:1038D0003D00002010BD704790F83D10012901D037
:1038E00001207047022180F83D100168CA6842F04B
:1038F0000102CA6000681149884214D0B0F1804FBB
:1039000011D00F4988420ED00E4988420BD00E4983
:10391000884208D00D49884205D00D49884202D01E
:103920000C49884204D1816801F00701062903D0BF
:10393000016841F001010160002070470000014072
:103940000004004000080040000C0040000401405A
:10395000004001400018004070472DE9F041044646
:103960000068C66805694FF00007A90713D5B107BD
:1039700011D5F91E01610120207720688069800738
:10398000204602D0FFF7E8FF04E000F050F920469F
:1039900000F07AFA2777680716D5700714D52168E2
:1039A0006FF004000861022020772068806910F41D
:1039B000407F204602D0FFF7CFFF04E000F037F948
:1039C000204600F061FA2777280715D5300713D570
:1039D00021686FF008000861042020772068C06922
:1039E0008007204602D0FFF7B7FF04E000F01FF980
:1039F000204600F049FA2777E80616D5F00614D5D8
:103A000021686FF010000861082020772068C069E5
:103A100010F4407F204602D0FFF79EFF04E000F044
:103A200006F9204600F030FA2777E80708D0F007BB
:103A300006D021686FF001000861204600F08AFA84
:103A4000280608D5300606D521686FF08000086189
:103A50002046FFF79FFE680608D5700606D5216848
:103A60006FF040000861204600F07EFAA8060AD5F3
:103A7000B00608D521686FF0200008612046BDE837
:103A8000F041FFF788BEBDE8F081000070B586B058
:103A9000044614216846FCF79EFD24684448002231
:103AA000444902230126444D84420ED1086840F067
:103AB000100008600868694600F01000059058037F
:103AC0000090CDE9013228461DE03C48B4F1804F1A
:103AD0000CD03B4EB4421DD10C6844F001040C6084
:103AE000096801F001010591402131E00C6844F0C2
:103AF00001040C60096801F00101059107210091A2
:103B0000CDE901326946CDE9032600BFFEF754FC3A
:103B100006B070BD2B4EB4420ED1086840F00800CC
:103B200008600868694600F008000590A01400903D
:103B3000CDE9013224480FE0244EB4420FD10C6885
:103B400044F001040C60096801F0010105910821AD
:103B50000091CDE901326946CDE90323D6E71C4E39
:103B60000320B44210D10C6844F004040C600968CE
:103B700001F004010591B1150091CDE90132CDE9C3
:103B8000032069461348C1E7134EB442C0D10C6804
:103B900044F010040C60096801F010010591202127
:103BA0000091CDE90132CDE9032069462846ADE711
:103BB0000000014030380240001002400000024086
:103BC0000004004000080040000C0240000C0040CF
:103BD00000040140000802400040014070B5044666
:103BE00090F83C00002501280FD0012084F83C000B
:103BF0006AB1042A0FD0082A11D00C2A13D001254B
:103C0000002084F83C00284670BD022070BD20686A
:103C100003F02AF9F4E7206803F056F9F0E720688A
:103C200003F088F9ECE7206803F0B8F9E8E770479B
:103C300010B5040003D094F83D0010B107E0012056
:103C400010BD002084F83C00204600F01EF8022041
:103C500084F83D00211D206803F090F8012084F8CD
:103C6000460084F83E0084F83F0084F8400084F861
:103C7000410084F8420084F8430084F8440084F84A
:103C8000450084F83D00002010BD704770B5044623
:103C900090F83C0000260D4601280FD0012084F842
:103CA0003C006AB1042A1DD0082A2FD00C2A3FD02C
:103CB0000126002084F83C00304670BD022070BD13
:103CC000206803F0D1F82068816941F00801816122
:103CD0002068816921F004018161206881692A6975
:103CE000114311E0206803F0EFF82068816941F486
:103CF000006181612068816921F4806181612068AF
:103D000081692A6941EA02218161D2E7206803F0D2
:103D100011F92068C16941F00801C1612068C169D9
:103D200021F00401C1612068C1692A69114311E0D1
:103D3000206803F033F92068C16941F40061C16172
:103D40002068C16921F48061C1612068C1692A6964
:103D500041EA0221C161ACE710B5040003D094F838
:103D60003D0010B107E0012010BD002084F83C00A8
:103D7000204600F01FF8022084F83D00211D206835
:103D800002F0FCFF012084F8460084F83E0084F82D
:103D90003F0084F8400084F8410084F8420084F831
:103DA000430084F8440084F8450084F83D00002076
:103DB00010BD000008B502682C482D49824205D18B
:103DC000086840F001000860086814E02848001FF7
:103DD000B2F1804F0AD0274B9A4210D1016841F0CE
:103DE00002010160006800F0020006E0016841F095
:103DF00001010160006800F00100009008BD1E4B49
:103E00009A4207D1016841F004010160006800F0A6
:103E10000400F2E7194B9A4207D1016841F008010A
:103E20000160006800F00800E7E71548824211D100
:103E3000086840F0020008600868002200F00200F4
:103E400000900F212D20FFF7B3F9BDE808402D2089
:103E5000FFF7A0B90B488242D0D1086840F4803007
:103E60000860086800F48030C7E7000000000140E7
:103E7000443802400004004000080040000C0040AC
:103E800000040140004001407047000010B50446A6
:103E9000022249B104290ED0082913D094F8410018
:103EA000012816D0012010BD94F83E000128F9D158
:103EB00084F83E200FE094F83F000128F2D184F806
:103EC0003F2008E094F840000128EBD184F840201E
:103ED00001E084F841200122206802F0B7FF164972
:103EE0002068164A884201D0904203D1436C43F4C3
:103EF000004343642068884213D0B0F1804F10D053
:103F00000F4988420DD00F4988420AD00E49884295
:103F100007D0904205D00D49884202D00C49884212
:103F200004D1816801F00701062903D0016841F03E
:103F300001010160002010BD0000014000040140AB
:103F40000004004000080040000C00400040014018
:103F50000018004000680349884201D1FFF790B87B
:103F600070470000002000407047704770B504465D
:103F700020680C3050E8001F21F4907140E80012D6
:103F8000002AF5D12068143050E8001F21F001010B
:103F900040E80012002AF5D1206B012809D12068E1
:103FA0000C3050E8001F21F0100140E80012002AF8
:103FB000F5D1206840694FF00005400615D520680E
:103FC000143050E8001F21F0400140E80012002AA0
:103FD000F5D1E06B48B10565E06BFEF708F820B15C
:103FE000E06BFEF75FF8202806D0E585202084F8F6
:103FF00042002563002070BD10206064032070BD66
:1040000070B5044620680C3050E8001F21F0C00154
:1040100040E80012002AF5D12068406915460006E4
:1040200015D52068143050E8001F21F0800140E8C9
:104030000012002AF5D1A06B48B10565A06BFDF711
:10404000D6FF20B1A06BFEF72DF8202805D0E5841F
:10405000202084F84100002070BD102060640320FF
:1040600070BD000038B5154A0168914224D100683E
:104070006FF00F0101600020114C01460090607844
:1040800028B1206918B1694605F093FC0121207818
:1040900028B1E06818B1694605F08BFC01E0002901
:1040A0000AD00098002807D006494FF080500860D9
:1040B000BFF34F8FBFF36F8F38BD00000044004047
:1040C0002400002004ED00E0F8B50168044608680B
:1040D000CA684B6910F00F0F4FF0000559D003F07C
:1040E000010602F49077374365D0C10705D0D105AA
:1040F00003D5616C41F001016164410705D5D90721
:1041000003D0616C41F002016164810705D5D907D4
:1041100003D0616C41F004016164010707D502F02E
:104120002001314303D0616C41F008016164616C8E
:1041300000293AD0800604D5900602D5204603F027
:104140002EF820684069616CC0F38010090700D424
:1041500060B3204602F0EEFF20684069400621D59A
:104160002068143050E8001F21F0400140E80012A0
:10417000002AF5D1E06BA8B172490165E06BFDF74B
:104180007FFF002811D0E06B016D01B0BDE8F04069
:10419000084783060FD593060DD52046BDE8F840A5
:1041A00002F0FDBF2046FFF75DFFF8BD2046FFF798
:1041B00059FF6564F8BD266B2023012E7ED1C6060B
:1041C0007CD5D6067AD508684868009048694FF0D3
:1041D000020640064DD5E26B106840684FF48077C8
:1041E0000004000C3AD0A18D814237D9E085D06916
:1041F000B8422DD020680C3050E8001F21F48071A7
:1042000040E80012002AF5D12068143050E8001F61
:1042100021F0010140E80012002AF5D12068143095
:1042200050E8001F21F0400140E80012002AF5D1BB
:1042300084F84230256320680C3050E8001F21F0DC
:10424000100140E80012002AF5D1E06BFDF7CFFE27
:104250006663A08DE18D401A81B206E0A18D814296
:10426000A8D1D069B842A5D166632046FFF77DFE8C
:10427000F8BDA08DE18D401A81B2E08D0028F7D005
:104280000029F5D020680C3050E8002F22F49072FD
:1042900040E80027002FF5D12068143050E8002FA7
:1042A00022F0010240E80027002FF5D184F84230C7
:1042B000256320680C3050E8002F00E006E022F073
:1042C000100240E80023002BF3D1CDE705062BD5E3
:1042D000150629D594F841002128C9D1A068B0F568
:1042E000805F01D12069B0B1206A411C2162216840
:1042F00000784860E08C401E0004000CE084B7D1D8
:104300002068C16821F08001C1602068C16841F067
:104310004001C160F8BD206A0088C0F30800486011
:10432000206A801C2062E5E74006F3D55006F1D5EF
:10433000CA68204622F04002CA6084F8413000F08A
:10434000CBF9F8BDED6F000870B5040004D094F807
:104350004100002510B106E0012070BD84F84050F6
:10436000204600F023F8242084F841002068C1682A
:1043700021F40051C160204602F072FF20680169FB
:1043800021F4904101612068416921F02A014161D5
:104390002068C16841F40051C1606564202084F840
:1043A000410084F842006563002070BD2DE9F047AC
:1043B00086B0064614216846FCF70DF95C485B4957
:1043C000D6F800C05A4A1438022303250727DFF81D
:1043D00064A100244FF0C0098C4518D1116841F048
:1043E00010011160116801F010010591016841F0A0
:1043F000020101600068CDF8009000F00200CDE9F4
:10440000047001AE694686E8380050466EE04849BF
:10441000DFF82481091FC4454FD10A6842F40032F5
:104420000A60096801F400310591016841F0080152
:1044300001600068694600F00800059060208DE882
:10444000B9003E48FDF7B8FF3E4D3D484FF00068CB
:104450002860C5E901840715C5E903476C61AC61B3
:10446000EC612C6228466C62FDF7F2FE08B1FDF7A4
:10447000BCFDF563AE63334D314860351830E5E877
:104480000208402091C52F4845F814496030AC61BE
:10449000EC612C626C62FDF7DBFE08B1FDF7A5FD57
:1044A000B563002205212620AE63FEF781FE26209B
:1044B000FEF770FE06B0BDE8F087234EB44518D174
:1044C0000A6842F480220A60096801F4802105919B
:1044D000016841F0020101600068694600F00200D5
:1044E00005904FF440608DE8B9005046FDF764FF39
:1044F000E0E716498C45DDD1116841F020011160DB
:10450000116801F020010591016841F0040101608A
:104510000068CDF8009000F0040005900820CDE977
:104520000350CDE9013469460948DFE70010014036
:10453000443802400004024000440040000C0240A5
:1045400088600240C810002000480040001401406C
:104550000008024090F84230202B01D00220704722
:1045600021B11AB10023036302F000BF012070479C
:1045700008B500680B49884213D1002000900A4812
:10458000006900280DD0694605F013FA009800284C
:1045900007D006494FF080500860BFF34F8FBFF33C
:1045A0006F8F08BD004400402400002004ED00E0AF
:1045B00070472DE9F843044690F8410098461646A6
:1045C0000D46202802D00220BDE8F88385B17EB1D7
:1045D00000206064212084F84100FDF7EBFFA684F1
:1045E0008146E684A0682027B0F5805F02D003E012
:1045F0000120E9E7206910B12E4600250EE00026D3
:104600000CE08021204602F001FFA8B9C6B116F8DF
:10461000010B21684860E08C401EE084E08C4B4632
:104620004FF00002CDF800800028EAD14FF04001A1
:10463000204602F0EBFE40B184F841700320C3E74E
:1046400035F8020BC0F30800E3E784F8417000205E
:10465000BAE7000070B5044690F84100202801D068
:10466000022070BD01B3FAB12162A284E28400206D
:104670006064212384F84130A56B144BEB63A56B78
:10468000134B2B64A56B134BEB64A36B186520686D
:104690001346A56B021D2846FDF744FE30B11020DD
:1046A0006064202084F84100012070BD21686FF013
:1046B000400008602068143050E8001F41F080017D
:1046C00040E80012002AF5D1002070BDE970000812
:1046D0002B710008FB6F000808B500680B49884281
:1046E00013D1002000900A48C06800280DD0694608
:1046F00005F05FF90098002807D006494FF0805078
:104700000860BFF34F8FBFF36F8F08BD00440040B8
:104710002400002004ED00E07047FEE70148FDF7AB
:1047200051BF00009C0C00200148FDF7A8BF00000D
:104730009C0C002038B5806B002190F83D202B4B5D
:1047400046F2A8141B68B3FBF4F3C3EBC30303EBFB
:10475000830300933BB15B1E009303681B689B05BA
:1047600005D5009BF6E7036C43F020030364436B1D
:1047700003B1D963836B03B1D96303681C6824F464
:1047800080641C604185436B03B11965836B03B181
:10479000196503681C6824F001041C6090F83D4012
:1047A0002023602C0BD0282434EA02020FD080F89A
:1047B0003D3080F83E1000BFFEF779F838BD80F834
:1047C0003D3080F83E100164FDF7FAFE38BD026806
:1047D000136843F0010313600268136843F48063B5
:1047E0001360016380F83D40E6E70000840000208C
:1047F00070B5846B0025616B01B1CD63A16B01B114
:10480000CD63FDF74FFC022811D02068016821F428
:10481000806101606585202084F83D0084F83E5069
:10482000206C40F0100020642046FEF740F870BD78
:104830002DE9F041846B94F83D2094F83E50E16AF4
:104840002068436823F440734360636B002003B126
:10485000D863A36B03B1D863212333EA02074FF077
:1048600022060CD036EA020701D1202D07D094F899
:104870003E20002A21D0628D012A20D024E0216828
:104880004D6825F400654D6060852820292A02D0F6
:104890002A2A07D00CE0236384F83D002046FEF767
:1048A000EEFB05E0266384F83D002046FEF7E6FBBC
:1048B0002068416841F440714160BDE8F0812268A0
:1048C000136823F4806313602268536823F44073F1
:1048D000536011F5803F06D0082904D0B1F12A4F6A
:1048E00001D0202904D12268136843F400731360B7
:1048F0002268536823F4805353602268536823F47A
:10490000006353606085226C1AB12046FDF7CFFF2B
:10491000D3E7202284F83D2094F83E2084F83E001E
:10492000402A09D0082902D0202900D01220206373
:104930002046FEF782F8C0E720632046FEF780F8A5
:10494000BBE700684169C943090601D40021016140
:104950007047000070B5044690F83D0094F83E1092
:10496000102901D0402906D1222804D121680A68E3
:1049700022F400620A60282131EA00024FF00005AB
:104980004FF0200626D021684968090505D4602823
:1049900003D084F83D6084F83E5025632068416868
:1049A000090537D5416821F400614160606B90F8DA
:1049B00035203C49012A11D00165606BFDF760FB91
:1049C00038B32068016821F00101016084F83D607E
:1049D000606B1CE0256384F83D10DFE7A06B016588
:1049E000A06BFDF74DFBA0B120684169C9434906A2
:1049F00005D40069616A0870606A401C60622068C2
:104A0000016821F00101016084F83D60A06B016D37
:104A1000884710E094F83D10602910D04169C943DF
:104A2000490605D40069616A0870606A401C6062CA
:104A30002046FDF73CFF206CC1071CD115E084F82F
:104A40003D6025644169C943490605D40069616A2E
:104A50000870606A401C60622068016821F00101F2
:104A600001602046FDF7ACFDE5E7810703D441076F
:104A700001D4000704D52068416821F4E061416059
:104A800094F83D00216C49070BD5282809D1064828
:104A9000E062256384F83D6084F83E502046FDF7CF
:104AA000CBFF70BD354700080000FFFF01684A6971
:104AB000D24352050FD46FF480624A61002140F85E
:104AC000301F202242738173026942F004020261A6
:104AD0000173012070470020704710B5C26A438DF2
:104AE0000168042B06D0438D032B08D0438D022B85
:104AF0001DD012E04A6822F480624A600CE04B68E4
:104B000023F480634B60042A06D0022A04D0016893
:104B10000A6822F480620A6001680969426A1170B9
:104B2000416A491C4162418D491E418510BD012ADF
:104B300034D0102A32D0042A34D0022A32D00B6862
:104B400043F400730B6001680969436A1970416A94
:104B5000491C4162438D5B1E438503681B690B70D2
:104B6000416A491C4162418D491E418501684B687B
:104B700023F440734B60202180F83D1090F83E30C4
:104B80000021402B80F83E1010D0082A02D0202AA5
:104B900000D012210163FDF750FF10BD0B6823F414
:104BA0008063CFE70B6843F48063CBE70163FDF7D5
:104BB00047FF10BD38B590F83D10222910D1C36AC7
:104BC000418D03290DD901680969426A1170416A52
:104BD000491C4162418D491E4185418D032906D002
:104BE00038BDC26A022A02D0012906D029B1006864
:104BF000416821F48061416038BD2A4A46F2A81418
:104C000000211268B2FBF4F202EB82020092026809
:104C10002024009D6D1E009526D01568AD05F8D4A2
:104C2000156825F4806515600268556825F4E0650F
:104C3000556002681269456A2A70426A521C4262D3
:104C4000428D521E428580F83D4090F83E2080F80B
:104C50003E10402A21D0082B02D0202B00D0122158
:104C60000163FDF7EAFE38BD036C43F020030364E3
:104C7000536823F4E063536002681269436A1A7050
:104C8000426A521C4262428D521E428580F83D406B
:104C900080F83E10FDF70BFE38BD0163FDF7D0FE36
:104CA00038BD00008400002010B5C26A90F83D10A5
:104CB00021290BD1418D51B1416A026809781161F6
:104CC000416A491C4162418D491E418510BD202326
:104CD0000021082A13D0202A11D012F5803F0ED0CF
:104CE0000268546824F4E06454601122026380F87E
:104CF0003E1080F83D3000BFFDF7A0FE10BD0268F9
:104D0000546824F4E06454600268146844F4007445
:104D10001460016380F83D3090F83E2080F83E102A
:104D2000402AE9D1FDF7AEFE10BD000010B590F8A5
:104D30003D1090F83E30C26A048DB4B1212903D0F1
:104D4000402B11D122290FD1418DE1B390F83E10B3
:104D5000402942D0416A026809781161416A491CC0
:104D60004162418D491E418510BD2129E8D1202392
:104D70000021082A13D0202A11D012F5803F0ED02E
:104D80000268546824F4E06454601122026380F8DD
:104D90003E1080F83D3000BFFDF750FE10BD0268A8
:104DA000546824F4E06454600268146844F40074A5
:104DB0001460016380F83D3090F83E2080F83E108A
:104DC000402AE9D100E002E0FDF75CFE10BD00687A
:104DD000416821F48061416010BDBDE8104000F0E1
:104DE000D3B8000078B590F83E50C26A036B90F8D3
:104DF0003D6000240168222E7AD1066D0EB9402D47
:104E000076D0056D1DB90569B5F5404F09D0458DC2
:104E100005B3468D384D012E0ED0438D022B3AD06E
:104E20005DE04A698A6900920A6842F480720A6009
:104E3000016D491C016578BDAA4213D10A6822F4AC
:104E400080620A6001684A68120503D50A6822F484
:104E5000806216E04A698A6900920A6842F4007228
:104E60000A6039E0082A10D0202A0ED0122B0AD06E
:104E7000042A03D0022A01D0102AE7D10A6842F49A
:104E800080620A6024E0012AE0D00A6822F480628D
:104E90000A600168DEE7042A21D0022A1FD0102A06
:104EA0001DD00B6823F480630B6001680B6843F42A
:104EB00000630B6001684B681B0509D5AA4212D03C
:104EC000012A10D0082A0ED0102A0CD0202A0AD08D
:104ED00001684A6989690091046578BD08E00B683A
:104EE00043F48063E5E74A6842F480524A60EFE7A2
:104EF000486988690090F0E70000FFFF90F83E10D5
:104F0000402910D00169B1F5804F19D0016DA9B3C6
:104F1000016D012910D1416C5FF0F10201F4407183
:104F200042EAD11106E0016D0029416C05D0C9B2F9
:104F300041F0010100680161704701F0FE01F9E7ED
:104F400090F83D102129416C09D0C9B241F001010E
:104F500002681161416B29B1C96B49B902E001F0E6
:104F6000FE01F5E7816B0029E6D0C96B0029E3D08B
:104F70000068416841F4006141607047FFE7416C9F
:104F8000F02201F44071CBE710B590F83D10026DAE
:104F90004AB1026D012A14D0026D022A16D0BDE872
:104FA0001040FFF7CEBCC16C0129816C02D0C1F367
:104FB000072108E00268C9B21161016D891C016511
:104FC00010BD816CC9B20268116123E022291CD096
:104FD000428D0AB1212920D0428D002AF0D1212909
:104FE000EED101684A6822F4E0624A6001680A680A
:104FF00042F400720A6000210163202280F83D2003
:1050000080F83E10FDF73EFD10BD01680A6842F4CD
:1050100080720A60016D491CD1E7416A0268097813
:105020001161416A491C4162418D491E418510BD93
:105030002DE9F84F0446006889460B9D01689846A3
:10504000174641F4806101602068016841F4807175
:10505000016000954FF0011B0022594620460A9B33
:1050600000F0FEF94FF4007A40B120680068C005F6
:1050700001D5C4F840A00320BDE8F88F216809F0ED
:10508000FE0008612B46284920460A9A00F030FAB3
:10509000F0BB20684169806900902A4620460A9941
:1050A00000F0BCFA40B1206C04283AD120680168B5
:1050B00041F40071016034E0FEB2B8F1010F09D093
:1050C0002168380A08612A4620460A9900F0A6FAA3
:1050D0000028E8D1206806612A4620460A9900F097
:1050E0009DFA0028DFD12068016841F480710160D9
:1050F00000950022594620460A9B00F0B1F900288D
:10510000B3D1216809F0FF0040F00100086100E020
:1051100007E02B46044920460A9A00F0E9F90028E6
:10512000AAD00120A8E70000020001002DE9F84301
:10513000044600680D46DDE9089701689846164662
:1051400041F4807101604B4600224FF0011120466E
:10515000009700F085F948B120680068C00502D5C5
:105160004FF4007020640320BDE8F883216805F047
:10517000FE0008613B464A461549204600F0B8F952
:1051800088B920684169806900903A4649462046BE
:1051900000F044FA48B1206C042804D1206801686A
:1051A00041F4007101600120DEE7F5B2B8F1010FB2
:1051B00009D02168300A08613A464946204600F085
:1051C0002DFA0028E7D1206805610020CCE7000017
:1051D0000200010038B50C4690F83D20002128253A
:1051E000954302680B4605D051699169009180F89A
:1051F0003C3038BD556825F480655560E24354075E
:1052000000D50121120601D5828900E0028B80F8C9
:105210003C3092B2FDF7D5F938BD00002DE9F041E0
:1052200090F83D300446C26A002120261E4F0068D7
:105230006FF48065082A01D0202A01D1282B04D0E0
:10524000212B17D04561BDE8F081E762426822F466
:10525000E0624260206845612068026822F4806252
:105260000260216384F83D6084F83E102046FDF71B
:10527000E3FBE8E7E7622122226384F83D6084F8DB
:105280003E10416821F4E06141602068456120687A
:10529000016821F4806101602046FFF752FB20463F
:1052A000FDF7EDFECFE700000000FFFFF8B590F836
:1052B0003D6004460068416821F4E0614160206877
:1052C000002541690091016841F0010101602068F9
:1052D000016821F48061016020684168090520D5DA
:1052E000474F222E48D02A2E46D0616B0968496864
:1052F0006185618D19B1216C41F00401216441681F
:1053000021F400614160606BFCF7CEFE012808D0FB
:10531000606B0765606BFCF7B3FE10B1606B016DED
:105320008847608D08B320684169C943490708D49C
:105330000069616A0870606A401C6062608D401E8E
:10534000608520684169C943490608D40069616ADB
:105350000870606A401C6062608D401E6085608DD0
:1053600018B1206C40F004002064206C00B320468B
:10537000BDE8F840FFF7EEBAA16B0968496861859E
:10538000618D19B1216C41F004012164416821F45F
:1053900000614160A06BFCF787FE0128C1D0A06BC3
:1053A0000765A06BFCF76CFE0028BAD0A06BB6E7CF
:1053B0002A2E06D12563282084F83D002046FDF7DB
:1053C0005DFE94F83D10202028290DD0216B222964
:1053D00001D0222E07D1256384F83D0084F83E5089
:1053E0002046FDF74BFEF8BD0649E162256384F8CF
:1053F0003D0084F83E502046FDF71EFBF8BD00003E
:10540000354700080000FFFF70B516460D460446FC
:105410001EE02046FFF74AFB08B1012070BD681C62
:1054200016D0FDF7C7F8801BA84200D885B92068C0
:105430004069C04340070BD5002044F8300F2021BD
:105440006173A073216941F0200121612073E4E7B9
:1054500020684069C0434007DBD4002070BD0000D5
:105460002DE9F047984617460D460446C1F3074616
:10547000DDF820902AE000BFB8F1FF3F26D0FDF70D
:1054800099F8A0EB0901414502D8B8F1000F1DD1F0
:105490002068012E16D0806925EA00000004000C67
:1054A00012D00020B84211D1002044F8300F202142
:1054B0006173A073216941F02001216120730120F3
:1054C000BDE8F0874069E7E70120EBE72068012E9F
:1054D0000AD0806925EA00000004000C06D00020F4
:1054E000B842C9D00020EBE74069F3E70120F7E7B5
:1054F0002DE9F047984616460D4604464FF0000940
:105500004FF0200AC1F3074723E020684069C043F9
:10551000400515D42068016841F4007101602168DC
:105520006FF480604861C4F8309084F83DA084F83E
:105530003E90216C41F00401216484F83C9021E00C
:10554000701C06D0FDF736F8A0EB0800B04203D877
:1055500016B1012F1FD021E02068012F15D08069DE
:1055600025EA00000004000C18D000BF44F8309F6A
:1055700084F80DA084F80E90216941F0200121618A
:1055800084F80C900120BDE8F087406925EA00000E
:105590000004000CEAD12068406901E020688069BD
:1055A00025EA00000004000CAFD1ECE72DE9F04142
:1055B000002590460E460446202728E04069C04357
:1055C000C0060CD454F8301B6FF01000486144F84A
:1055D00010596777A577206A2062257714E0FCF7D9
:1055E000E9FFA0EB0800B04200D886B92068406906
:1055F000C04340060BD544F8305F6773A57320693C
:1056000040F02000206125730120BDE8F081206872
:105610004169C9434906D1D40020F6E770B5164662
:105620000D4604461EE02046FFF740FA08B101206F
:1056300070BD681C16D0FCF7BDFF801BA84200D8C7
:1056400085B920684069C04300060BD5002044F8A6
:10565000300F20216173A073216941F02001216185
:105660002073E4E720684069C0430006DBD40020D3
:1056700070BD0000F0B5044600254FF480708BB07B
:10568000844201D9044601E0002C43D00026322395
:105690000E2205A93B2003F0E7FB0220FCF77AFE6F
:1056A000761CB6B2C82EF2D300261B4F1BE0322365
:1056B0000E2205A93B2003F0D7FB78B9694605A85F
:1056C00002F061FFBDF90C0000EE100A07EB850047
:1056D0006D1CB8EEC00AADB280ED000A0220FCF7E6
:1056E00059FE761CB6B2A642E1D3002D12D009AB0A
:1056F00004AA2946084803F0F9FB03F0C1FB72B67F
:105700000648DDED040AC0ED040A80ED050A03F049
:10571000DBFB62B60BB0F0BDA00100204000002012
:10572000014890ED060A704740000020014890EDC6
:10573000020A7047400000201FB53348002404705F
:1057400044709FED320A80ED020A80ED030A80ED7D
:10575000040AB3EE090A80ED050A80ED060A03F09B
:10576000B3FB0E212A48FAF714FF29480E210E3800
:10577000FAF731FF8DF80C4003A8642301218DE86E
:105780000B000B467522D0212248FDF77DF910B1A0
:10579000012004B010BD9DF80C006828F9D16422E6
:1057A00001216B2003F0BCFE08B10320F1E70A20C1
:1057B000FCF7F0FD642200216C2003F0B1FE08B17B
:1057C0000420E6E764220021192003F0A9FE08B1B5
:1057D0000520DEE7642203211A2003F0A1FE08B1B0
:1057E0000620D6E7642218211B2003F099FE08B199
:1057F0000720CEE7642218211C2003F091FE002828
:10580000C7D00820C5E700004000002000000000CD
:10581000CE0800209C0C00201048124AD0ED020A4D
:1058200090ED031A41EE000A9FED0D0AC0ED020A49
:1058300002E000BF70EEC00A10EE901A9142F9DC4F
:10584000C0ED020A084A01E070EE800A10EE901ADC
:105850009142F9D2C0ED020A7047000040000020DA
:105860000000B44300003443000034C370B55A490B
:10587000A1F10E0002F087FE5748B0F90C10B0F904
:10588000060000EE100AF8EEC00A9FED541A80EEF2
:10589000810ADFED530A534870EE202A00EE101AF9
:1058A000C0ED062AB8EEC00AD0ED040A70EE600A18
:1058B0009FED4D3A484CC58880EE830A0E34C823CC
:1058C0009FED4A2A81880022C82D04EB810419D259
:1058D000491C6D1C84ED000AD0ED070AB1FBF3F4FE
:1058E00070EE800A03FB1411C0ED070AD0ED080A20
:1058F00040EE000AC0ED080A8180A9B2C180C82923
:105900001AD25AE094ED001AD0ED070A491C70EE45
:10591000C11AD0ED080A84ED000AB1FBF3F441EEA0
:10592000410A31EE801A03FB141180ED071A40EE94
:10593000000AC0ED080A8180DFED2D1AD0ED070ABC
:10594000D0ED083A80EEA11AC3EEA10A41EE410A59
:10595000F5EEC00AF1EE10FA01D2F0EE420AF0EED6
:10596000C11A11EE901AB1F1804F06DA10EE901ABA
:10597000B1F17E5F01DA012100E000218170D9B12F
:10598000416A4B1C01D0491C4162D0ED040ADFED95
:10599000191AB1F5FA6F41EE030A90ED041A30EED0
:1059A000C13A90ED041A01EE831A80ED041A04D373
:1059B000C0ED040AC0ED052A4262F0EEC00A10EE06
:1059C000901A0D4B994201DAB0EE420A80ED030ABB
:1059D00001214170027070BDCE0800200000AA4372
:1059E000B81E124240000020333383410000000003
:1059F0000000484318B751399A99993E7CB50C4C30
:105A0000207808B101207CBD002565700120207040
:105A10000E210848CDE9000101233B22D021064890
:105A2000FDF734F90028EED0257002207CBD00007F
:105A300040000020C00800209C0C0020154808B53C
:105A4000016841F4001101600068002200F40010B8
:105A5000009005210B20FDF7ABFB0B20FDF79AFB17
:105A6000002205211020FDF7A3FB1020FDF792FB7B
:105A7000002205211120FDF79BFB1120FDF78AFB79
:105A8000002205212F20FDF793FBBDE808402F20C1
:105A9000FDF780BB3038024010B502F025FA00F067
:105AA000C7FF02F097F90B4A00210B4802F026FDD0
:105AB0000A4C084A0021E060483A094802F01EFDFD
:105AC000044A6060243A0021064802F017FDA060F5
:105AD00010BD0000A8A40008ED63000868000020C5
