:020000040800F2
:1000000068540020950300086F3A0008C5340008C2
:100010006D3A0008131F00080B470008000000009D
:10002000000000000000000000000000D5020008F1
:10003000151F00080000000031030008EF41000810
:10004000AF030008AF030008AF030008AF030008C8
:10005000AF030008AF030008AF030008AF030008B8
:10006000AF030008AF030008AF030008AF030008A8
:10007000AF030008AF030008AF030008AF03000898
:10008000AF030008AF030008AF030008AF03000888
:10009000AF030008AF030008AF030008AF03000878
:1000A000AF030008AF030008AF030008AF03000868
:1000B000AF030008AF030008AF030008AF03000858
:1000C000AF030008AF030008AF030008AF03000848
:1000D000AF030008AF030008AF030008AF03000838
:1000E000AF030008AF030008AF030008AF03000828
:1000F000AF030008B1420008AF030008AF030008D7
:10010000AF030008AF030008AF030008AF03000807
:10011000AF030008AF030008AF030008AF030008F7
:10012000AF030008AF030008AF030008AF030008E7
:10013000AF030008AF030008AF030008AF030008D7
:10014000AF030008AF030008AF030008AF030008C7
:10015000AF030008AF030008AF030008AF030008B7
:10016000AF030008AF030008AF030008AF030008A7
:10017000AF030008AF030008AF0300080000000051
:10018000AF030008AF03000800F002F800F092F897
:100190000AA090E8000C82448344AAF10107DA45E2
:1001A00001D100F087F8AFF2090EBAE80F0013F0A2
:1001B000010F18BFFB1A43F0010318472C6E000013
:1001C0004C6E0000103A24BF78C878C1FAD85207A4
:1001D00024BF30C830C144BF04680C6070470000C1
:1001E0000023002400250026103A28BF78C1FBD840
:1001F000520728BF30C148BF0B6070476E2900F01E
:100200009B82702900F0E583662906F0F185652957
:1002100006F0EE85672906F0EB85612906F0EA8590
:1002200003681B0A28BF41F08001692900F0488259
:10023000642900F04582752900F042826F2900F0A0
:100240007283782900F0B183E92900F00D83E42955
:1002500000F00A83F52900F00783EF2900F06F838F
:10026000F82900F0B0830368DB0928BF41F0800162
:10027000632901F00B81732901F01081E32901F05A
:100280001B81F32901F02081002070471FB506F083
:10029000AAFD01F06FF904000020002106F016FD10
:1002A000401C60600020002106F0FAFCE0601FBDE9
:1002B00010B510BD01F030F91146FFF7E7FF05F06A
:1002C00007F801F00DFA03B4FFF7F2FF03BC01F0E9
:1002D00051FA00002C4B19680868B0E8F04F80F321
:1002E0000988BFF36F8F4FF0000080F311887047CB
:1002F0000000000008480068006880F308884FF09C
:10030000000080F3148862B661B6BFF34F8FBFF36D
:100310006F8F00DF00BF00BF08ED00E0DFF80C00CA
:10032000016841F470010160704700BF88ED00E092
:10033000EFF30980BFF36F8F134B1A681EF0100F95
:1003400008BF20ED108A20E9F04F106009B44FF08B
:10035000500080F31188BFF34F8FBFF36F8F05F00C
:1003600071FF4FF0000080F3118809BC196808681C
:10037000B0E8F04F1EF0100F08BFB0EC108A80F309
:100380000988BFF36F8F704724000020EFF30580CA
:10039000704700000948804709480047FEE7FEE72C
:1003A000FEE7FEE7FEE7FEE7FEE7FEE7FEE7FEE725
:1003B00004480549054A064B70470000A142000861
:1003C00089010008684E0020685400206850002011
:1003D0006850002053EA020C00F069802DE9F04BD0
:1003E0004FF00006002B1FBFB3FA83F503FA05F4A4
:1003F00024FA05F65E4012BF1643B2FA82F502FAFD
:1004000005F4C5F120051EBF22FA05FC44EA0C04E0
:10041000203556EA044C4FEA144418BF641C4FF0D0
:1004200000084FF00009904271EB030C39D300290A
:1004300019BFB1FA81F701FA07F6B0FA80F700FAAE
:1004400007F6C7F120071EBF20FA07FC46EA0C0694
:100450002037B6FBF4FCA7EB0507103F07F01F0B96
:10046000CBF120060CFA0BFB2CFA06F644BFB34680
:100470000026202FA4BF5E464FF0000B5BEA060C5F
:1004800008BF4FF0010B19EB0B09ABFB027C48EBEB
:100490000608C01B06FB02CC0BFB03CC71EB0C0166
:1004A000C1E70B46024641464846BDE8F08B13B50E
:1004B0004FF000004FF00001AFF30080BDE81C409A
:1004C000704700007CB51D4616460C00009001D018
:1004D0002044401E074B7B442A4669460190304623
:1004E00000F043F905461CB10020694600F050F9C0
:1004F00028467CBDC1020000032A40F2308010F083
:10050000030C00F0158011F8013BBCF1020F6244AE
:1005100098BF11F801CB00F8013B38BF11F8013B3F
:10052000A2F1040298BF00F801CB38BF00F8013BEC
:1005300011F0030300F01C83083AC0F0088051F862
:10054000043B083A51F804CBA0E80810F5E7121D67
:100550005CBF51F8043B40F8043BAFF30080D20786
:1005600024BF11F8013B11F801CB48BF11F8012B52
:1005700024BF00F8013B00F801CB48BF00F8012B75
:10058000704702F0FF0343EA032242EA024200F00E
:1005900023BB4FF0000200B513469446964620391F
:1005A00022BFA0E80C50A0E80C50B1F12001BFF42C
:1005B000F7AF090728BFA0E80C5048BF0CC05DF892
:1005C00004EB890028BF40F8042B08BF704748BFE0
:1005D00020F8022B11F0804F18BF00F8012B704754
:1005E00070477047704710B500F016FB006810BDEB
:1005F00010B5044600F010FB046010BD70B5044651
:1006000085690068C10601D5302600E02026C007B4
:1006100007D070BDD4E9012130469047206A401CC4
:1006200020626D1EF6D570BD70B5044685690078F0
:10063000C00707D170BDD4E9012120209047206A6E
:10064000401C20626D1EF6D570BD09684A0501D5B3
:1006500040B27047C905FCD500B2704709684A0529
:1006600001D5C0B27047C905FCD580B2704770B5DE
:100670000C460546012A05D02878800600D5EA698F
:10068000002302E0012305E05B1C934202D2E05C00
:100690000028F9D1A869E618C01AA861286A184488
:1006A00028622846FFF7AAFF04E0D5E9012114F8E3
:1006B000010B9047B442F8D32846FFF7B5FF70BD51
:1006C0002DE9F0410646002410687529314616A52B
:1006D00010D0FFF7BAFF002802DA404213A507E066
:1006E00031688A0701D512A502E0490704D511A592
:1006F000012401E0FFF7B2FF00210A2206F12407DE
:1007000009E0B0FBF2FCB0FBF2F302FB1C0030305E
:1007100078541846491C0028F3D123462A4630460F
:10072000BDE8F04100F0C1BA000000002D0000005B
:100730002B0000002000000011680268006A5305C9
:1007400001D508700AE0D30501D5088006E013063C
:1007500003D5C217C1E9000200E00860012070471C
:1007600001694A1C02610878704700B58FB0CDE975
:1007700001310021059105497944CDE90310114665
:10078000684600F031F90FB000BD0000E5FFFFFF43
:100790000A6802F8010B0A607047D1E900239A4207
:1007A00002D2531C0B601070704700002DE9FF5FF0
:1007B00015468A460446DFF8AC80F8440027D8E99D
:1007C00000103E46CDE9001010E03AF816106A46D7
:1007D00002A800F07DFE411C07D02178890603D5D0
:1007E000E269391891420DD80744761C20788006BA
:1007F00002D5E069B84205DDAE42E6DB3AF8160004
:100800000028E2D1A069C01BA0612046FFF7F6FED8
:10081000D8E90010CDE90010002017E03AF81810D0
:100820006A4602A800F054FEB0F1FF3F81460BD0AB
:1008300000250DF1080B05E0D4E901211BF80500A6
:1008400090476D1C4D45F7D308F10100B04280463A
:10085000E4DB206A384420622046FFF7E5FEBDE86D
:10086000FF9F0000F26600002DE9F0418046D21D96
:1008700022F007020025D2E90002F52915A614D0BE
:10088000011E72F1000106DA0023D0EB030063EBD6
:10089000020211A608E0D8F800108B0701D50FA6B8
:1008A00002E0490701D50EA601251146002408F1F2
:1008B000240704E000F0B4F930323A55641C50EAE1
:1008C0000102F7D12B46324621464046BDE8F041B1
:1008D00000F0EBB9000000002D0000002B0000002C
:1008E0002000000030B4002100F1240408E002F0F0
:1008F0000705D208303542EA4372DB086554491CCB
:1009000052EA0305F3D10468002310A2250707D596
:10091000A40600D421B1C46901230DA2641EC461E0
:1009200030BC00F0C2B910B5044621461068FFF78C
:1009300095FE02462046BDE810400023D2E7D21DB6
:1009400022F00701D1E90023CCE7000000000000FD
:1009500030000000F0B40D460188090502D5214C95
:100960007C4402E01F4C7C440E34002100F124063C
:1009700008E002F00F071209E75D42EA03721B0963
:100980007754491C52EA0307F3D102780023120777
:1009900004D5702D06D009B1022311342246F0BCD3
:1009A00000F083B901231034F8E770B504460D4612
:1009B00021461068FFF752FE024629462046BDE850
:1009C00070400023C6E7D21D22F00703D3E90023BD
:1009D000C0E70368126843F0200303600823C36183
:1009E0000023B7E7546500002DE9F05F894604460F
:1009F0004FF0000ADFF874B1FB44C0F820A0204695
:100A0000E1688847002874D0252806D0D4E9012160
:100A10009047206A401C2062F1E700265F4620468E
:100A2000E16888472028054607DB312D05D2781973
:100A300010F8200C08B10643F1E7B00701D526F005
:100A40000406C4F81CA00027C4F818A02A2D09D059
:100A5000284604F03BFA38B304EB8708303DC8F869
:100A6000185019E059F8041B204604EB87029161E5
:100A7000E1688847012F054618D1E069002820DA8F
:100A800026F020061DE0D8F8180000EB800005EBEA
:100A900040003038C8F818002046E168884705460D
:100AA00004F014FA0028EED1012F0AD02E2D08D11F
:100AB0002046E16888477F1C0546022F46F0200645
:100AC000C4DBA069002803DA404246F00106A061B9
:100AD000F00701D026F010066C2D0BD0682D09D040
:100AE0004C2D39D06A2D35D0742D35D07A2D33D098
:100AF00016E038E0E1682F4620468847B8420546B0
:100B000009D16C2F26D04FF48060E168064320465F
:100B10008847054604E06C2F1AD04FF480700643D6
:100B20000DB3A5F14100192802D8203546F400661E
:100B30004A462946204626604E46FFF75FFB80B1B5
:100B400001280BD0F61D26F0070000F1080956E732
:100B50004020E4E78020D8E70020D6E706F104092A
:100B60004DE7284652E7206ABDE8F09FE4640000A4
:100B700010B5203AC0F00B80B1E81850203AA0E838
:100B80001850B1E81850A0E81850BFF4F5AF5FEA6C
:100B9000027C24BFB1E81850A0E8185044BF18C91F
:100BA00018C0BDE810405FEA827C24BF51F8043BC6
:100BB00040F8043B08BF7047D20728BF31F8023B1A
:100BC00048BF11F8012B28BF20F8023B48BF00F8AE
:100BD000012B70474FF000020429C0F0128010F082
:100BE000030C3FF4D8ACCCF1040CBCF1020F18BFDD
:100BF00000F8012BA8BF20F8022BA1EB0C01FFF796
:100C0000CABC5FEAC17C24BF00F8012B00F8012BAD
:100C100048BF00F8012B704700487047084E00207D
:100C200030B5B0F10A024FEA900E71F100034EEABE
:100C3000817EB0EB0E0061EB91014FEA101E4EEA8F
:100C4000017E10EB0E0041EB11114FEA102E4EEA1F
:100C5000016E10EB0E0041EB11214FEA104E4EEAEF
:100C6000014E10EB0E0041EB1141401841F1000123
:100C70004FEAD00040EA41704FEAD10110EB800505
:100C80004FEA810444EA907444EB01046D1944EB8B
:100C90000404521BA3414FF0000348BF0A3200D5A1
:100CA00030BD401C41F1000130BD2DE9F0470D463B
:100CB00099469246044600F124080168880604D546
:100CC000E06921F01001216000E00120A84201DD6F
:100CD000471B00E00027A1697A1902EB0900081AF6
:100CE000A0612078C00602D42046FFF787FC0026CA
:100CF00008E0D4E901211AF806009047206A401C58
:100D0000761C20624E45F4DB2078C0060AD52046CA
:100D1000FFF774FC06E0D4E9012130209047206AF7
:100D2000401C2062381EA7F10107F4DC07E0D4E97B
:100D3000012118F805009047206A401C2062281EF7
:100D4000A5F10105F3DC2046FFF76EFC20780006D4
:100D500002D50220BDE8F0870120FBE770472DE9AE
:100D6000FF4F0C461E464FF0FF378BB0D2E9000113
:100D7000DDF860800A908A46C1F30A5505B93D4600
:100D8000002108464FF00000BAF1000F00F44000C7
:100D900005DA00EB80004FF4400101EA50004FEA11
:100DA0009059B9F1010F00DDB9460A9850EA4A009E
:100DB0000ED044F61050A5F2FF3545432F14B8F17C
:100DC000000F1ED07542291E1EDDC9F100021CE075
:100DD000B8F1010F4FF0000001D0302103E0F243E1
:100DE00005E02154401CB042FBDB304600220021CC
:100DF00021540B99C1F80880C1E900200FB0BDE86B
:100E0000F08FBD1B6D1CDEE74A4600DA694206A87A
:100E100000F0F4FB06AB93E8070003AB83E80700A0
:100E200050460A9900F0ADFC8DE80700A0F500508F
:100E30001F3800900398002D0ADD42F21F014A4638
:100E40000844002303A90390684600F016FF09E058
:100E5000A0F500504A461F38002303A903906846B6
:100E600000F020FF8DE807000004000C03D04FF0D5
:100E7000FF30410800E01046B8F1000F03D0002217
:100E8000009215461EE0751E05D4FFF7C9FE3032EC
:100E900062556D1EF9D5B3460122084302D00022E7
:100EA0007F1C04E02078302801D100227F1E002A18
:100EB000099784D01DE0112D07DAFFF7B1FE30321B
:100EC00062556D1C50EA0102F5D1084302D000982A
:100ED000C8B10EE00021681E05E0235C625C63542B
:100EE0002254401E491C8142F7DBAB46A81B401E22
:100EF0000990002004F80B000B98099AC0F80880AC
:100F0000C0E9002B7AE711264FF0000857E72DE9DA
:100F1000F04F88460446D21D22F0070191B0D1E976
:100F20000001CDE90A0103F0F1FB02460B98C00F66
:100F300001D02D2007E02068810701D52B2002E099
:100F4000202101EAC000032A099001D0072A05DB0D
:100F500003464146204600F011FB0BE12078800655
:100F600001D5E06900E00620B8F1650F814606D0A2
:100F7000B8F1660F18D0B8F1670F70D131E00020DA
:100F8000B9F1110F009001DB112301E009F1010318
:100F90000AAA01A90CA8FFF7E2FEDDE90C70002601
:100FA00009F10105834647E001204B4600904FF0D0
:100FB00000470AAA01A90CA8FFF7D1FEDDE90DB090
:100FC0000C995D46002610B909F101000D18B9EB26
:100FD000050003D4C0F1FF3609F10105A5EB0900B6
:100FE0002BE0B9F1010F01DA4FF001090020B9F14E
:100FF000110F0090484601DD112300E003460AAAC4
:1010000001A90CA8FFF7ABFEDDE90C704D460026E8
:101010008346207800070AD4AB4500DA5D4601A874
:10102000012D04DD411911F8011C302907D04F456D
:1010300002DA17F1040F04DA012082460FE06D1E78
:10104000EEE7002F02DCED1B3E4403E0781CA842D3
:1010500000DD7D1CB81B00F1010A4FF0004720782D
:10106000000703D4AA4501DB4FF0FF3A0021B7F196
:10107000004F0DF143088DF8431024D002202B239C
:10108000002F01DA7F422D230A21021EA0F1010068
:1010900000DC5FB197FBF1FC97FBF1F201FB1C7CDC
:1010A00017460CF1300C08F801CDEEE7A8F101006D
:1010B00003702188090501D5452100E06521A0F1D3
:1010C000010800F8011C09980FA9A1EB0807FF1DF2
:1010D00000B10120411901EBEA70A1693844081AF6
:1010E000401EA0612078C00602D42046FFF786FA91
:1010F000099828B1D4E901219047206A401C206258
:101100002078C00622D52046FFF778FA1EE0002E90
:1011100004DBB34502DD01A8805D00E03020D4E9A6
:1011200001219047206A401C2062761CAAF1010030
:101130005FEA000A0AD100F01DFAC0680168405C4D
:10114000D4E901219047206A401C2062281EA5F1A5
:101150000105DCDC07E0D4E9012118F8010B904718
:10116000206A401C2062381EA7F10107F3DC2046EC
:10117000FFF75AFA032011B041E600002DE9F04FC5
:1011800004460D46D21D22F0070089B0D0E9009731
:101190004846394603F0BAFA0246F80F01D02D232B
:1011A00007E02068810701D52B2302E0202101EA16
:1011B000C0038DF820300BB1012000E00020032A8D
:1011C000824601D0072A04DB2946204600F0D6F9E2
:1011D0003FE12078800601D40D2500E0E569C7F3E2
:1011E0000A560D2D49DA00214FEA175B08464FF0E9
:1011F0000000002F00F4400007DA00EB80004FF4FD
:10120000400100EBD07001EA60008115012901DD89
:101210004FF0FF3100224FEA850CBCF1180F06D3C6
:101220001346ACF118004FF08052C24003E04FF477
:10123000801323FA0CF30CF10C0CBCF1200F04D337
:10124000ACF1200C09FA0CF001E007FA0CF00029CF
:101250004FF0004801DD18B90FE00ED140450CD326
:1012600019EB02095F4121B9404502D19F4329EAA8
:101270000209BBEB175F00D0761C2088000502D561
:101280007B48784402E07A487844193808AA302329
:1012900002F80A30037C0AF10101002E0AF1020A69
:1012A00053546A4602DC4FF0300101E04FF0310147
:1012B0004FF001088DF8001002D0A6F2FF3603E0CF
:1012C00059EA470100D06B4E002D02DC2178090756
:1012D00004D54FF002082E218DF80110C4460021DC
:1012E0000BE0C7F303433F01C35C491C6D1E02F8CA
:1012F0000830052908F1010801DA002DF1DC002190
:101300000CE000EB1973491C1B786D1E082902F8CC
:1013100008304FEA091908F1010801DA002DF0DC64
:1013200021688B0602D516E0A8F10108E04505DD2D
:1013300002EB080313F8013C302BF5D0B8F1000F95
:1013400009DD02EB080313F8013C2E2B03D109073A
:1013500001D4A8F10108002D05DD3E2102F8081096
:101360006D1E08F10108407C002E02F8080008F10B
:10137000010804DA2D20764202F8080002E02B2052
:1013800002F808000A214FF47A70864208F1010839
:101390000BDB96FBF0F3303302F8083096FBF0F3EA
:1013A00008F1010800FB136601E0642E0CDB6420E9
:1013B00096FBF0F3303302F8083096FBF0F308F1B7
:1013C000010800FB136601E00A2E06DB96FBF1F034
:1013D000303002F8080008F1010896FBF1F001FB3B
:1013E0001060303002F80800A16908F1010808EB2C
:1013F000050202EB0A00081AA0612078C00602D498
:101400002046FFF7FBF8216A08AE01EB0A002062D4
:1014100004E0D4E9012116F8010B9047BAF1010A62
:10142000F7D22078C00602D52046FFF7E7F86E46CF
:1014300009E016F8010B3E280FD0D4E901219047AE
:10144000206A401C2062B8F10108F2D22046FFF762
:10145000EBF809B00320BDE8F08F206A2844206231
:1014600003E0D4E90121302090476D1EEBD3F8E76B
:10147000A15C000002FCFFFF10B5436913B1AFF39C
:10148000008001E0FFF7F3F8012010BD127800F1B1
:1014900024010A7000224A700122EDE711684FF022
:1014A000FF32E9E710B5436913B1AFF3008001E003
:1014B000FFF77CF9012010BD128800F1240182841D
:1014C0000022C2840122EDE711684FF0FF32E9E704
:1014D00070B516460C46054600F044F8036893F8CC
:1014E0000101012806D0FF2C0FD8185D68B101203A
:1014F0002C7070BDD3F807013246214603F2071362
:1015000003442846BDE8704018474FF0FF3070BDD7
:1015100000487047084E00207546FFF7F9FFAE46B9
:1015200005006946534620F00700854618B020B5EF
:10153000FEF73EFFBDE820404FF000064FF00007E9
:101540004FF000084FF0000B21F00701AC46ACE86B
:10155000C009ACE8C009ACE8C009ACE8C0098D46D8
:101560007047000010B500F005F8001D10BD00BF69
:101570005D57000000487047284E00202DE9F041DB
:101580001F46044603260168072A01F4006004DBB5
:1015900008B116A505E016A503E008B115A500E001
:1015A00015A521F010002060A069C01EA0610FB138
:1015B000401EA0612046FFF721F84FB1D4E9012178
:1015C00038469047206A401C2062C01C206206E01A
:1015D000206AFAE7D4E9012115F8010B9047761E3D
:1015E000F8D22046FFF720F8BDE8F0814E414E00CA
:1015F0006E616E00494E4600696E66002DE9F04747
:10160000814616468AB0354878440DC88DE80D00ED
:1016100032487844801C03AC0DC884E80D0041F6C4
:101620009B300844372190FBF1F290FBF1F5A5F1D6
:10163000800501FB12041B3C02D56442012000E03E
:101640000020DFF898A080460027FA44AAF1BE0ADD
:101650000EE0E0070AD03246684607EB4701012357
:101660000AEB810100F01EFB8DE8070064107F1C6F
:10167000002CEED1194F7F44AE3F19E0E80715D09A
:1016800007EB04100DF1180A90E80E008AE80E002E
:10169000C068F04201D1981908903246012306A98A
:1016A00003A800F0FFFA03AB83E807006D10641C89
:1016B000002DE3D14FF0010332466946B8F1000F27
:1016C00003A802D000F0D9FA01E000F0EBFAC9E972
:1016D0000001C9F808200AB0BDE8F087AC59000045
:1016E00010B50446AFF300802046BDE81040FEF779
:1016F000EABD00004FF0013C50F8042B51F8043BC8
:101700009A4221D1A2EB0C03934313EACC1317D1D5
:1017100050F8042B51F8043B9A4215D1A2EB0C036C
:10172000934313EACC130BD150F8042B51F8043B2C
:101730009A4209D1A2EB0C03934313EACC13DBD0FA
:101740004FF00000704700BFD01A01BAB1FA81F122
:1017500001F0180122FA01F0CB40C1F12001DBB207
:10176000C0B2C01A2CFA01F3D11A914311EAC31185
:10177000E6D1704701491820ABBEFEE72600020003
:1017800070475FEA400C08BF91F0000F4FEA8C23CE
:101790004FEAC12243EA51514FEA1C5018BF00F5ED
:1017A000F0404FEA300018BF41F000415FEA6C5C46
:1017B00000F02980BCF1FF3F08BF40F08040704737
:1017C000130C06BF12044FF0100C4FF0000C130E58
:1017D00004BF12020CF1080C130F04BF12010CF12C
:1017E000040C930F04BF92000CF1020CD30F04BF42
:1017F00052000CF1010C11464FF00002A0F11F0045
:10180000A0EB0C00704711F0004F08BF704731F09B
:1018100000413FF4D5AF0B0C06BF09044FF0100C8C
:101820004FF0000C0B0E04BF09020CF1080C0B0F5B
:1018300004BF09010CF1040C8B0F04BF89000CF1EB
:10184000020CCB0F04BF49000CF1010CCCF12003BA
:10185000A0EB0C0022FA03F302FA0CF241EA0301B6
:1018600000F10100704720F07F4C80EA030023F074
:101870007F47ACEB070303F57C5300F0004003F116
:10188000FF032DE980494FEA154B09B44FEA144391
:1018900025EA0B4E24EA03480FF2042606EB132731
:1018A00049083E785FEA320203FB0667C7F5000786
:1018B00007FB06F64FEA54374FEAD64606F1020612
:1018C00007FB066CCCF1005C4FEA1C472CEA074C86
:1018D00007FB06F40CFB06F504EB15464FEA9616DB
:1018E00034BF00204FF000404FEAD13706FB07FC21
:1018F0004FEA1C4C0CFB0BF7D21B03FB0CF761EB04
:1019000007010CFB0EF7B0EB074072EB17420CFB24
:1019100008F734BFA2EB0742B2EB074261EB174175
:101920004FEA0C444FEA910706FB07FC4FEA1C4CB8
:101930000CFB0BF7B0EBC74072EB573203FB0CF715
:1019400034BFA2EBC742B2EBC74261EB57310CFB8D
:101950000EF7B0EBC70072EB57720CFB08F734BF01
:10196000A2EBC702B2EBC70261EB5771039F4FEACC
:10197000816141EA921104EBCC044FEAD1374FEA7E
:10198000826206FB07FC42EA90124FEA80604FEA4F
:101990001C4C0CFB0BF7D21B03FB0CF761EB070194
:1019A0000CFB0EF7B0EB074072EB17420CFB08F78D
:1019B00034BFA2EB0742B2EB074261EB17414FEA9B
:1019C0008C554FEA910704EB9C2406FB07FC4FEA79
:1019D0001C4C0CFB0BF7B0EBC74072EB573203FB10
:1019E0000CF734BFA2EBC742B2EBC74261EB5731F1
:1019F0000CFB0EF7B0EBC70072EB57720CFB08F74D
:101A000034BFA2EBC702B2EBC70261EB577115EB13
:101A10004C254FEA816141EA92114FEA82624FEA16
:101A2000D13742EA901206FB07FC44F100044FEA6A
:101A300080604FEA1C4C0CFB0BF7D21B03FB0CF72E
:101A400061EB07010CFB0EF7B0EB074072EB17429E
:101A50000CFB08F734BFA2EB0742B2EB074261EB85
:101A6000174115EB1C154FEA813141EA92414FEACB
:101A7000823242EA90424FEA80304FEA0C7644F1DB
:101A8000000448EA03434EEA0B484FF0000EB2EB65
:101A9000080C71EB030724BF624639464EEB0E0E6D
:101AA0004FF0000B0018524149414BEB0B0BB2EBCE
:101AB000080C71EB03077BF1000B24BF624639462B
:101AC0004EEB0E0E4FF0000B0018524149414BEB0C
:101AD0000B0BB2EB080C71EB03077BF1000B24BF7F
:101AE000624639464EEB0E0E51EA020718BF46F029
:101AF000010616EB0E7655F1000254F1000103D5F4
:101B0000BDE88901BDE80088BDE88901BDE800485D
:101B1000B619524141EB0101A3F1010370478080E6
:101B20007F7E7D7C7B7A7978777676757473727137
:101B300071706F6E6E6D6C6C6B6A6A6968686766EF
:101B400066656464636362616160605F5F5E5E5D81
:101B50005D5C5C5B5B5A5A595958585757565655F5
:101B600055555454535352525251515050504F4F57
:101B70004F4E4E4D4D4D4C4C4C4B4B4B4A4A4A49A7
:101B800049494848484747474746464645454544EA
:101B90004444444343434342424242414141002B77
:101BA0009C4630D477002BD01CB54FEA370703B4DE
:101BB0004FF010004FF01001BAF1000F06D0BCF149
:101BC000000FDCBF40F0080040F008014FF00000BB
:101BD0000FBCBDE810400BF1010BBBF1010F08BFBA
:101BE0005FEA170722BF12F1010211F101014FF064
:101BF000004143F1000300F0004043EA0000704759
:101C0000F9D35708D0E746EA064613F1400F4FEAEA
:101C100016461FDD13F1200FDFBF16430A460021D1
:101C200020335B42BED0C3F1200746EA064602FAE3
:101C300007F74FEA164646EA0706C3F1200722FADD
:101C400003F201FA07F721FA03F14FF0000342EA29
:101C50000702A7E746EA020646EA06464FEA1646A4
:101C600046EA0106BCBF46EA0646360C4FF00003C2
:101C70004FF000024FF0000194E72DE9804C9A46A6
:101C8000934670B491E8380007C831EA400C48BF69
:101C900034EA430C03D5FFF7E6FDFFF780FFF0BC05
:101CA000BDE8008C2DE9804C9A46934670B491E8CB
:101CB000380007C810F0804F08BF13F0804F03D1E1
:101CC00000F005F8FFF76BFFF0BCBDE8008C20F0DA
:101CD0007F4780EA030023F07F4C07EB0C03A3F55A
:101CE0007C5300F00040A3F1FE0392F0000F00F0DF
:101CF000B38095F0000F00F077802DE901494FEA9D
:101D000011404FEA144621EA004800FB06FC24EA91
:101D1000064708FB06F607FB08F800FB07F718EB79
:101D200006484CEB164C4FEA124B18EB07484FEAAB
:101D300015464CEB174022EA0B4E0BFB06FC25EA3E
:101D400006470EFB06F607FB0EFE0BFB07F71EEB26
:101D5000064E4CEB164C4FF000061EEB074E4CEBBC
:101D6000174B18EB0B0840F1000018EB0E0B58EB6B
:101D7000000840F100008F1A4FF000013CBFC9433A
:101D8000661B14BFB5EB040C00213CBFC943F61B16
:101D90004FEA17444EEA8E0E27EA04454FEA1C47E5
:101DA00004FB07622CEA074C05FB07F70CFB05F662
:101DB00004FB0CFC16EB074642EB174216EB0C46F5
:101DC00042EB1C421BEB060658EB0202414146EA7D
:101DD0009E0601D5BDE80189B619524141EB0101CA
:101DE000A3F10103BDE801894FEA14454FEA114709
:101DF00024EA054621EA074C05FB07F406FB07F732
:101E00000CFB06F105FB0CFC11EB074144EB1744FE
:101E10004FEA124711EB0C4144EB1C4422EA074CF9
:101E200005FB07F206FB07F70CFB06F605FB0CFCAF
:101E300016EB074642EB174216EB0C4642EB1C45ED
:101E40006A1854F1000148BF7047B619524141EB7E
:101E50000101A3F10103704795F0000F37D04FEA5D
:101E600011424FEA144721EA024624EA074C02FBDA
:101E700007F106FB07F70CFB06F402FB0CFC14EB66
:101E8000074441EB17414FEA154714EB0C4441EB73
:101E90001C4125EA074C02FB07F506FB07F70CFB84
:101EA00006F602FB0CFC16EB074645EB174516EB56
:101EB0000C4645EB1C42121951F1000148BF704716
:101EC000B619524141EB0101A3F1010370474FEAFA
:101ED00014454FEA114724EA054621EA074C05FB61
:101EE00007F106FB07F70CFB06F24FF0000605FBB7
:101EF0000CFC12EB074241EB174112EB0C4251EB89
:101F00001C4148BF7047921841EB0101A3F1010346
:101F10007047FEE7704772B6FEE700002DE9F84F04
:101F2000DFF8BCA10022012503264FF00F090AF1BA
:101F3000040BAAF1040E00BF0B6805FA02F423405B
:101F4000A34270D10F7907F00307012F01D0022FB0
:101F500016D187684FEA420806FA08FC27EA0C0700
:101F6000D1F80CC00CFA08FC4CEA070CC0F808C009
:101F70004768A7430C79C4F3001494403C43446081
:101F80000C79E443A4070AD0C4684FEA420C06FA6D
:101F90000CF7BC438F6807FA0CF72743C7600C792E
:101FA00004F00304022C12D1D40800EB840CDCF8FA
:101FB00020405707FF0E09FA07F824EA0804D1F871
:101FC000108008FA07F848EA0408CCF82080046872
:101FD0004FEA420C06FA0CF7BC430F7907F00307EF
:101FE00007FA0CF7274307604C6814F4403F70D0A1
:101FF0003C4C276847F480472760246822F0030799
:1020000004F480440094384C07EB040CDCF80848D6
:1020100097074FEA177809FA08F7BC43334FB842DD
:1020200002D1002724E054E0314FB84201D101270A
:102030001EE0304FB84201D1022719E02E4FB842BE
:1020400001D1032714E02D4FB84201D104270FE03E
:102050002B4FB84201D105270AE02A4FB84201D1DF
:10206000062705E0284FB84201D1072700E00827DE
:1020700007FA08F72743CCF80878DAF80040574603
:10208000D1F804C09C435FEACC2C00D51C433C60D3
:10209000DBF800405F46D1F804C09C435FEA8C2C1B
:1020A00000D51C433C60DEF800407746D1F804C000
:1020B0009C435FEA8C3C00D51C433C60084F083FC2
:1020C0003C68D1F804C09C435FEACC3C00D51C437B
:1020D0003C60521C102AFFF42FAFBDE8F88F0000BF
:1020E000083C0140443802400030014000000240FA
:1020F0000004024000080240000C024000100240B0
:102100000014024000180240001C02400AB1816124
:1021100070470904FBE70000014880687047000031
:102120001400002070B5040025D094F83D0000256F
:1021300020B984F83C50204600F0B8F8242084F8F8
:102140003D002068016821F00101016020680168FC
:1021500041F4004101602068016821F40041016000
:1021600000F05EFA4D4A6168914201D84C4900E0A6
:102170004C49884201D2012070BD4B492368B0FB15
:10218000F1F15E6826F03F060E435E60636893429D
:1021900006D94FF4967359434FF47A73B1FBF3F1B8
:1021A0002368491C1E6A26F03F06314319626168A4
:1021B000914210D84900401EB0FBF1F2521CC2F30C
:1021C0000B02042A01D2042022E0B0FBF1F0401CF3
:1021D000C0F30B001CE0A268F2B301EBC10303EBF8
:1021E0000116431EB3FBF6F35B1C43F480431B054F
:1021F00049D092B301EBC10202EB0111401EB0FBCA
:10220000F1F0401CC0F30B0040F4804040F400406B
:102210002168CA694CF6FF739A431043C861D4E938
:10222000071001432068026822F0C00211430160D8
:10223000D4E9030101432068826848F2FF339A43DE
:1022400011438160D4E9050108432168CA6822F07E
:10225000FF021043C86001E00EE016E0206801684C
:1022600041F0010101602564202084F83D002563D0
:1022700084F83E50002070BD01EB4106431EB3FBC5
:10228000F6F35B1CB3E70120C2E701EB4101401EFE
:10229000B0FBF1F0401CC0F30B00B7E7A0860100D3
:1022A00080841E0000093D0040420F0010B586B03A
:1022B000044614216846FEF76CF9144920688842E8
:1022C00021D113480021026842F002020260006836
:1022D00000F0020005904FF4407000901220CDE90C
:1022E0000101032003900420049069460948FFF788
:1022F00015FE07481030016841F4001101600068C4
:1023000000F40010059006B010BD0000005400401D
:1023100030380240000402400248816802781144CB
:1023200081607047140000200B4810B5016841F42B
:1023300000710160016841F480610160016841F44D
:1023400080710160032000F09FF80F2000F006F874
:1023500000F050F8002010BD003C024030B50546AA
:102360001F4887B00024016841F480710160006853
:1023700006A900F48070009001A800F031F90498DB
:10238000A8B100F04DF940001649174AB0FBF1F131
:102390001648491E026040F2E732C0E90324C0E952
:1023A0000114846100F0B8FB040003D015E000F0D4
:1023B00037F9E9E70D4800F0DDFB04000DD12D20D1
:1023C00000F034F8102D07D2002229462D2000F00D
:1023D0003BF80748056000E0012407B0204630BD07
:1023E0004038024040420F000020004068040020B6
:1023F000180000200C4882B0016841F4804101605F
:10240000006800F4804000900748001F016841F018
:10241000805101600068002200F0805000900F2180
:10242000901E02B000F010B844380240002809DBCA
:1024300000F01F02012191404009800000F1E020DE
:10244000C0F8001170470000F0B40E4B1B680C463A
:10245000C3F30223C3F10705042D00D90425191D78
:10246000072901D2002300E0DB1E012606FA05F150
:10247000491E214099409E40761E16403143F0BCD3
:1024800002F06FB90CED00E0064900F007020868A1
:102490004FF6FF03184040EA0220034A1043086049
:1024A000704700000CED00E00000FA052DE9F04750
:1024B0000E46050065D0DFF81481D8F80000F7B2A9
:1024C00000F00700B04207D288F80070D8F800008A
:1024D00000F00700B04254D128683D4C810712D566
:1024E000400703D5206840F4E050206028780007BA
:1024F00003D5206840F4604020602068A96820F07F
:10250000F000084320602878C0072DD03049686863
:102510000839012812D0022813D0032811D00968E5
:10252000890700292DDA216821F003010143216088
:10253000FFF7F2FD814641F2883A0EE0096889030F
:10254000EFE709688901ECE7FFF7E6FDA0EB090179
:10255000514502D90320BDE8F0872068696800F082
:102560000C00B0EB810FEFD1D8F80010404601F01D
:102570000701B14207D90770006800F00700B042B8
:1025800001D00120E7E72878400705D52068E968F1
:1025900020F4E050084320602878000706D5206822
:1025A000296920F4604040EAC100206000F058F83A
:1025B0002168084AC1F30311515CC840064908600C
:1025C00006480068FFF7CAFE0020C4E7003C02404E
:1025D00008380240986E00082000002018000020F3
:1025E0000F2202600C4A136803F003034360136870
:1025F00003F0F0038360136803F4E053C3601268D0
:102600004FF4E05303EAD20202610448006800F08C
:10261000070008607047000008380240003C024094
:102620000448054900680968044AC1F38221515CE5
:10263000C84070472000002008380240A86E0008FB
:102640000448054900680968044AC1F34231515CF5
:10265000C84070472000002008380240A86E0008DB
:10266000154810B5006810F00C02144813D0144936
:10267000042A0FD0082A0ED10F4C241F2268236889
:1026800002F03F025B0207D52068C0F38810A0FB70
:10269000010106E0084610BD2168C1F38811A1FBC5
:1026A00000010023FDF796FE2168C1F30141491C9A
:1026B0004900B0FBF1F010BD083802400024F400DE
:1026C00040787D012DE9F84F04006ED02078DFF8C6
:1026D0004C93C007A9F104054AD009F10400016830
:1026E000C1F38101012908D00068C0F381000228EC
:1026F0000AD1D9F80000400206D52868800337D5F2
:1027000060680028E1D033E06068B0F5803F10D009
:10271000B0F5A02F286810D020F4803028602868F9
:1027200020F4802028606068A8B1FFF7F5FC064619
:102730000DE0286840F48030F4E740F48020286001
:10274000F7E700BFFFF7E8FC801B642873D8286810
:102750008003F7D50CE0FFF7DFFC064605E000BF7D
:10276000FFF7DAFC801B6428F0D828688003F7D4D0
:102770002078DFF8AC8280074FF0000A3ED5A748EA
:10278000001D016811F00C0F08D00068C0F3810033
:1027900002280BD1D9F80000400207D4286880072E
:1027A00016D5E068012800D112E033E1E068B8B145
:1027B0000120C8F80000FFF7AFFC064605E000BFA7
:1027C000FFF7AAFC801B0228C0D828688007F7D52D
:1027D0002868216920F0F80040EAC10028600DE077
:1027E000C8F800A0FFF798FC064604E0FFF794FC49
:1027F000801B02281FD828688007F7D4207800079C
:1028000022D5864F87486169703771B10121016017
:10281000FFF782FC064604E0FFF77EFC801B0228DF
:1028200009D838688007F7D50EE0C0F800A0FFF798
:1028300073FC064605E082E0FFF76EFC801B022871
:102840007DD838688007F7D42078400768D5DFF84E
:10285000CCB100270BF13C0BDBF80000C0000BD41F
:10286000DBF8001041F08051CBF80010DBF80000DD
:10287000012700F0805000906B4E3068C00510D4E6
:10288000306840F480703060FFF746FC009005E04F
:10289000FFF742FC0099401A022850D83068C00562
:1028A000F6D55E4EA0686C3601280FD0052830683A
:1028B00010D020F001003060306820F0040030605B
:1028C000A068B8B1FFF728FC00900FE0306840F036
:1028D0000100F4E740F004003060F7E7FFF71CFC6C
:1028E0000099411A41F28830814266D830688007E9
:1028F000F4D50EE0FFF710FC009007E0FFF70CFCAA
:102900000099411A41F28830814256D830688007D8
:10291000F4D42FB1DBF8001021F08051CBF8001077
:10292000A069C8B33D49091D0968C1F381010229A5
:102930004AD00228504607D0C8F8600000E03CE0CA
:10294000FFF7EAFB04463BE04746C8F86000FFF7A4
:10295000E3FB064605E000BFFFF7DEFB801B022815
:102960002BD828688001F7D4D4E907010843A16A6D
:102970002E4A490802EB0141626A41EA821108438A
:1029800094F82C1040EA0161C9F800100120386663
:10299000FFF7C2FB044606E03EE000BFFFF7BCFBCA
:1029A000001B022809D828688001F7D534E000BF51
:1029B000FFF7B2FB001B022802D90320BDE8F88F05
:1029C00028688001F4D427E00128F7D0D9F8000066
:1029D000E26900F4800191421CD1226A00F03F01BB
:1029E000914217D147F6C071626A0140B1EB821F74
:1029F00010D1A26A4FF0FF3300F4403103EB5202D2
:102A0000B1EB024F06D194F82C1000F07060B0EBDF
:102A1000016F01D00120D1E70020CFE70438024048
:102A200000004742800E4742007000400000FFFF58
:102A30007047704710B590F83C20012A22D001223F
:102A400080F83C20CA688C6822F4407222434C68AB
:102A500022F4806222430C6822F4006222430C6953
:102A600022F4805222434C6922F400522243C96965
:102A7000002322F480420A4301684A6480F83C3013
:102A8000002010BD022010BD70B590F83C20012A36
:102A900032D0012480F83C40022280F83D200368B7
:102AA0005A689D6822F070060A6832435A60134BD8
:102AB00002689A4214D0B2F1804F11D0104B9A4262
:102AC0000ED0104B9A420BD00F4B9A4208D00F4BAE
:102AD0009A4205D00E4B9A4202D00E4B9A4204D134
:102AE000496825F080031943916080F83D4000213A
:102AF00080F83C10084670BD022070BD0000014007
:102B00000004004000080040000C004000040140A8
:102B1000004001400018004010B5040003D094F8B4
:102B20003D0010B107E0012010BD002084F83C00FA
:102B3000204600F01EF8022084F83D00211D206888
:102B400001F0C4FB012084F8460084F83E0084F8BC
:102B50003F0084F8400084F8410084F8420084F883
:102B6000430084F8440084F8450084F83D000020C8
:102B700010BD704790F83D10012901D00120704729
:102B8000022180F83D100168CA6842F00102CA6063
:102B900000681149884214D0B0F1804F11D00F491C
:102BA00088420ED00E4988420BD00E49884208D088
:102BB0000D49884205D00D49884202D00C4988420F
:102BC00004D1816801F00701062903D0016841F0B2
:102BD0000101016000207047000001400004004036
:102BE00000080040000C004000040140004001408B
:102BF0000018004070472DE9F04104460068C6689F
:102C000005694FF00007A90713D5B10711D5F91EC3
:102C1000016101202077206880698007204602D06A
:102C2000FFF7E8FF04E000F04EF9204600F06CFAF0
:102C30002777680716D5700714D521686FF0040050
:102C40000861022020772068806910F4407F2046C8
:102C500002D0FFF7CFFF04E000F035F9204600F086
:102C600053FA2777280715D5300713D521686FF059
:102C700008000861042020772068C069800720468A
:102C800002D0FFF7B7FF04E000F01DF9204600F086
:102C90003BFA2777E80616D5F00614D521686FF0C1
:102CA00010000861082020772068C06910F4407F78
:102CB000204602D0FFF79EFF04E000F004F9204612
:102CC00000F022FA2777E80708D0F00706D021683D
:102CD0006FF001000861204600F0BAFA280608D516
:102CE000300606D521686FF0800008612046FFF7A6
:102CF0009FFE680608D5700606D521686FF0400073
:102D00000861204600F0AEFAA8060AD5B00608D53C
:102D100021686FF0200008612046BDE8F041FFF710
:102D200088BEBDE8F081000070B586B0044614216D
:102D30006846FDF72EFC22680024434902254348DB
:102D4000B2F1804F0CD0424B9A422FD10A6842F028
:102D500001020A60096801F001010591402143E088
:102D60000A6842F001020A600A6802F00102059254
:102D70000A6842F002020A600968012601F00201B5
:102D8000059107210091CDE90154CDE9034669463B
:102D9000FFF7C4F8F0020090CDE90154CDE90346F5
:102DA00069462C48FFF7BAF806B070BD2A4B9A4224
:102DB0000ED1086840F0080008600868694600F015
:102DC0000800059090140090CDE9015423480FE0CD
:102DD000234B9A420FD10A6842F001020A60096847
:102DE00001F00101059108210091CDE901546946E6
:102DF000CDE90345D6E71B4B03209A4210D10A6860
:102E000042F004020A60096801F004010591991575
:102E10000091CDE90154CDE9034069461248C1E76C
:102E2000124B9A42C0D10A6842F010020A60096847
:102E300001F01001059120210091CDE90154CDE967
:102E4000034069460A48ADE73038024000000240BE
:102E5000000400400004024000080040000C024052
:102E6000000C004000040140000802400040014006
:102E70000010024070B5044690F83C00002501287F
:102E80000FD0012084F83C006AB1042A0FD0082A30
:102E900011D00C2A13D00125002084F83C002846CC
:102EA00070BD022070BD206801F086FAF4E720684A
:102EB00001F0B2FAF0E7206801F0E4FAECE72068EC
:102EC00001F014FBE8E7704710B5040003D094F854
:102ED0003D0010B107E0012010BD002084F83C0047
:102EE000204600F01EF8022084F83D00211D2068D5
:102EF00001F0ECF9012084F8460084F83E0084F8E3
:102F00003F0084F8400084F8410084F8420084F8CF
:102F1000430084F8440084F8450084F83D00002014
:102F200010BD704770B5044690F83C0000260D4671
:102F300001280FD0012084F83C006AB1042A1DD07A
:102F4000082A2FD00C2A3FD00126002084F83C000C
:102F5000304670BD022070BD206801F02DFA206857
:102F6000816941F0080181612068816921F00401D3
:102F70008161206881692A69114311E0206801F0AC
:102F80004BFA2068816941F40061816120688169A0
:102F900021F480618161206881692A6941EA022106
:102FA0008161D2E7206801F06DFA2068C16941F0C3
:102FB0000801C1612068C16921F00401C161206874
:102FC000C1692A69114311E0206801F08FFA206875
:102FD000C16941F40061C1612068C16921F4806167
:102FE000C1612068C1692A6941EA0221C161ACE777
:102FF00010B5040003D094F83D0010B107E00120A3
:1030000010BD002084F83C00204600F01FF802208C
:1030100084F83D00211D206801F058F9012084F852
:10302000460084F83E0084F83F0084F8400084F8AD
:10303000410084F8420084F8430084F8440084F896
:10304000450084F83D00002010BD000008B501686F
:103050002748B1F1804F0BD0264A914210D1016828
:1030600041F002010160006800F00200009008BD1C
:10307000016841F001010160006800F00100F5E71E
:103080001D4A914207D1016841F0040101600068C6
:1030900000F00400EAE7194A914207D1016841F0C3
:1030A00008010160006800F00800DFE71048144ADA
:1030B000001D914211D1016841F0020101600068D8
:1030C000002200F0020000900F212D20FFF7BCF934
:1030D000BDE808402D20FFF7A9B90A4A9142C6D1A0
:1030E000016841F480310160006800F48030BDE780
:1030F000403802400004004000080040000C00403E
:1031000000040140004001407047000010B5044633
:10311000022249B104290ED0082913D094F84100A5
:10312000012816D0012010BD94F83E000128F9D1E5
:1031300084F83E200FE094F83F000128F2D184F893
:103140003F2008E094F840000128EBD184F84020AB
:1031500001E084F841200122206801F01FF916499E
:103160002068164A884201D0904203D1436C43F450
:10317000004343642068884213D0B0F1804F10D0E0
:103180000F4988420DD00F4988420AD00E49884223
:1031900007D0904205D00D49884202D00C498842A0
:1031A00004D1816801F00701062903D0016841F0CC
:1031B00001010160002010BD000001400004014039
:1031C0000004004000080040000C004000400140A6
:1031D0000018004030B504460D460068002201F09A
:1031E000DDF8194B41F2111120688A10984202D083
:1031F000164B984209D1036A0B4206D1036A134267
:1032000003D1436C23F4004343642068036A0B42F8
:1032100006D1016A114203D1016821F00101016068
:1032200001203DB1042D08D0082D09D084F84100BB
:10323000002030BD84F83E00FAE784F83F00F7E74D
:1032400084F84000F4E70000000001400004014061
:1032500000680349884201D1FFF75EB8704700005B
:1032600000200040704770B5040004D094F841007D
:10327000002510B106E0012070BD84F840502046C2
:1032800000F024F8242084F841002068C16821F46B
:103290000051C160204601F079F92068016921F4EC
:1032A000904101612068416921F02A014161206853
:1032B000C16841F40051C1606564202084F8410078
:1032C00084F842006563002070BD00002DE9F047DE
:1032D00086B0044614216846FDF75BF94A48494A1E
:1032E0002368002448491438022503260727DFF8FD
:1032F0001C914FF0C00C934217D10A6842F01002A3
:103300000A60096801F010010591016841F00201AD
:1033100001600068CDE9024600F00200CDE90470CA
:10332000CDE900C56946484619E0374ADFF8E08034
:10333000121FDFF8E0A0434516D1116841F40031B7
:103340001160116801F400310591016841F0080134
:103350000160006800F00800059060202DE0FEF795
:10336000DDFD06B0BDE8F087DFF8AC8043452CD129
:10337000116841F480211160116801F480210591E8
:10338000016841F002010160016801F0020105914C
:10339000016841F008010160006802AB00F008001C
:1033A00005904FF48060CDE9000583E8D0006946C0
:1033B0004846FEF7B3FD4FF40070CDE9000502ABBF
:1033C000694683E8D0005046C9E7144A9342C8D101
:1033D0000A6842F020020A60096801F020010591A4
:1033E000016841F0040101600068029400F00400EB
:1033F00005900820CDE90360CDE900C5694608487D
:10340000ADE70000001001404438024000040240D3
:1034100000440040000C02400048004000140140FD
:10342000000802402DE9F843044690F84100984610
:1034300016460D46202802D00220BDE8F88385B14B
:103440007EB100206064212084F84100FEF764FE14
:10345000A6848146E684A0682027B0F5805F02D06C
:1034600003E00120E9E7206910B12E4600250EE0B7
:1034700000260CE08021204601F00EF9A8B9C6B163
:1034800016F8010B21684860E08C401EE084E08C57
:103490004B464FF00002CDF800800028EAD14FF0F3
:1034A0004001204601F0F8F840B184F84170032053
:1034B000C3E735F8020BC0F30800E3E784F8417076
:1034C0000020BAE7FEE7000010B501F02DFD00F086
:1034D00081FD074A0021074801F0F2FF064C044A2B
:1034E00000216060243A054801F0EAFF206010BD29
:1034F0001C6E0008F53D000800000020D13D0008CA
:103500002DE9F04186B014216846FDF742F83E48A7
:103510000024016841F010010160016801F0100110
:103520000591016841F080010160016801F08001AE
:103530000591016841F001010160016801F001019C
:103540000591016841F002010160016801F002018A
:103550000591016841F008010160016801F008016E
:103560000591016841F0040101600068274E00F0F8
:1035700004004FF440550590002229463046FEF7DE
:10358000C5FD234F002290213846FEF7BFFDDFF82E
:103590008480002220214046FEF7B8FD00950125D9
:1035A000CDE90154694630460394FEF7B7FC680242
:1035B000CDE90004184E694630460294FEF7AEFC91
:1035C0004FF4E05000900220CDE901040320039065
:1035D0000A20049069463046FEF7A0FC9020009037
:1035E000CDE90154694638460394FEF797FC202044
:1035F0000090CDE90154694640460394FEF78EFCE5
:1036000006B0BDE8F08100003038024000100240F2
:10361000000C024000040240000002400D4810B5BA
:103620000B4901600C49416000214FF480428160E8
:10363000C0E9031241618161C1610162FEF772FD5F
:10364000002803D0BDE81040FEF765BC10BD0000A7
:103650000054004044010020A086010030B589B02C
:10366000002407941C2168460894FCF792FF254823
:103670004FF08041C0E90014611EC0E902410461BD
:103680008461FFF7B5FC08B1FEF745FC1D48FFF764
:103690001BFC08B1FEF73FFC079407A919480894E2
:1036A000FFF7F2F908B1FEF736FC6025CDE90054CA
:1036B00002940022694613480494FFF733FC08B1D2
:1036C000FEF729FC042269460E480094FFF7D2FB5E
:1036D00008B1FEF720FC082269460A480095FFF76A
:1036E00021FC08B1FEF717FC0C2269460548FFF7DC
:1036F00019FC08B1FEF70FFC0248FFF715FB09B0F3
:1037000030BD00009801002010B58AB00024079455
:103710001C2168460894FCF73CFF16481449C0E990
:1037200000144FF6FF71C0E9024104618461FFF7A4
:103730005FFC08B1FEF7EFFB079407A90D4808945A
:10374000FFF7A2F908B1FEF7E6FB6020CDE900041F
:1037500002940022694607480494FFF7E3FB08B18E
:10376000FEF7D9FB0348FFF7DFFA0AB010BD0000EF
:1037700000040040E001002010B58AB00024079446
:103780001C2168460894FCF704FF16481449C0E958
:1037900000144FF6FF71C0E9024104618461FFF734
:1037A00027FC08B1FEF7B7FB079407A90D4808945A
:1037B000FFF76AF908B1FEF7AEFB6020CDE900041F
:1037C00002940022694607480494FFF7ABFB08B156
:1037D000FEF7A1FB0348FFF7A7FA0AB010BD0000EF
:1037E000000800402802002010B58AB00024079489
:1037F0001C2168460894FCF7CCFE15481349C0E923
:103800000014611EC0E9024104618461FFF7F0FB0E
:1038100008B1FEF780FB079407A90D480894FFF74D
:1038200033F908B1FEF777FB6020CDE9000402947C
:103830000C22694606480494FFF774FB08B1FEF7B2
:103840006AFB0348FFF770FA0AB010BD000C004095
:103850007002002010B592B000240F941C2108A81B
:103860001094FCF796FE20216846FCF792FE204853
:103870001E49C0E900144FF6FF71C0E9024104611E
:1038800044618461FFF7B4FB08B1FEF744FB0F9479
:103890000FA917481094FFF7F7F808B1FEF73BFBA4
:1038A0006020CDE908040A940B940C940D9408222E
:1038B00008A90F480E94FFF735FB08B1FEF72BFB64
:1038C00000944FF40050CDE9044002940194039415
:1038D000694607480794FFF7ADF808B1FEF71BFBF0
:1038E0000348FFF721FA12B010BD000000040140A8
:1038F000B802002010B588B01C216846FCF749FECC
:10390000114810490024C0E900144FF6FF71C0E9C6
:10391000024104618461FFF76BFB08B1FEF7FBFA1B
:103920006020CDE900040294002269460648049410
:10393000FFF7F8FA08B1FEF7EEFA0348FFF7F4F9DB
:1039400008B010BD00400140000300200C4810B535
:103950000A4901604FF4E1314160002181600C228D
:10396000C160C0E904128161C161FFF77CFC0028DD
:1039700003D0BDE81040FEF7CEBA10BD00100140E4
:10398000480300200C4810B50A4901604FF4E131AA
:103990004160002181600C22C160C0E90412816194
:1039A000C161FFF760FC002803D0BDE81040FEF7BE
:1039B000B2BA10BD00440040900300200C4810B57E
:1039C0000A4901604FF4E1314160002181600C221D
:1039D000C160C0E904128161C161FFF744FC0028A5
:1039E00003D0BDE81040FEF796BA10BD0048004075
:1039F000D80300200C4810B50A4901604FF4E131AA
:103A00004160002181600C22C160C0E90412816123
:103A1000C161FFF728FC002803D0BDE81040FEF785
:103A20007ABA10BD00140140200400207047000045
:103A30000D49D1EC021A71EE821A21EE811A70EE54
:103A4000601A30EE200A31EEC12A70EE010A30EE23
:103A5000410A80ED002AC0ED010A80ED020A31EE34
:103A6000810A80ED030A704708000020FEE7FEE7A8
:103A7000002811D000229FED090A027080ED040A8F
:103A800080ED050A80ED060A80ED070AB7EE000A10
:103A900080ED080A00F03CB870470000000000000C
:103AA00008B1007808B1002070470120704700007D
:103AB000002828D0B5EEC00AF1EE10FA02D2F1EEDD
:103AC000400A01E0F0EE400A10EE901A0E4A9142D0
:103AD00001DA00F043B8DFED0D0AB5EEC00A80ED63
:103AE000060AC0ED070AF1EE10FAC0ED040AC0EDB7
:103AF000050A02DBB7EE000A01E0BFEE000A80ED26
:103B0000080A0121017070476F12833A000000001B
:103B1000002822D0002920D091ED000AB5EEC00A7D
:103B2000F1EE10FA01DCB7EE000A80ED010A91ED2A
:103B3000010AB5EEC00AF1EE10FA01DCB7EE000A98
:103B400080ED020A91ED020AB5EEC00AF1EE10FA1C
:103B500001DCB7EE000A80ED030A7047002807D0A9
:103B600000219FED040A017080ED040A80ED050A32
:103B70007047000000000000B0EE402A9FED930A5D
:103B800000287DD0017800297AD0B5EEC02AF1EE68
:103B900010FA75D9D0ED061AF5EEC01AF1EE10FA4A
:103BA00002D2F1EE610A01E0F0EE610A90ED071A2F
:103BB000B0EE604AB5EEC01AF1EE10FA02D2F1EEA4
:103BC000410A01E0F0EE410A34EE603AB5EEC03A47
:103BD000F1EE10FA01D2B0EE403AD0ED040AF5EE63
:103BE000C00AF1EE10FA01D2F1EE600AD0ED023A0D
:103BF000F0EE004A60EEA02A23EEA45A0022C2EEA4
:103C0000854AD0ED012AF4EEE02AF1EE10FA40DD0B
:103C1000B4EEE43AF1EE10FA3BDD012904D00229BA
:103C200013D003297CD11BE0D0ED050A90ED033AB7
:103C300043EE020AC0ED050AF4EEE30AF1EE10FAD3
:103C40006EDBC0ED053A022153E090ED053A43EEFC
:103C5000020AF4EEE20AF1EE10FA61DB032148E019
:103C6000D0ED050A90ED033A43EE420AC0ED050A95
:103C7000F5EEC00AF1EE10FA52D880ED050A00E028
:103C80004DE0D0ED080A042160EEA20AC0ED040A5E
:103C90002FE0B4EEE43AF1EE10FA41D8032901D056
:103CA000042901D105210170C9B2052904D00629D2
:103CB00015D0072934D11EE0D0ED050A90ED033A66
:103CC00043EE420AB1EE633AC0ED050AF4EEC30AD0
:103CD000F1EE10FA24D880ED053A062109E090EDC6
:103CE000053A43EE020AF5EEC00AF1EE10FA17D8D3
:103CF0000721017014E0D0ED050A90ED033A43EE80
:103D0000020AC0ED050AF5EEC00AF1EE10FA07DB73
:103D100080ED050A80ED040AC0ED071A02707047B5
:103D200090ED053AD0ED040A63EE023A90ED083AC0
:103D300043EE830AB5EEC03AF1EE10FAC0ED040A84
:103D400006DDF5EEC00AF1EE10FA01D280ED040AAC
:103D5000B5EEC03AF1EE10FA08D2D0ED040AF5EE55
:103D6000C00AF1EE10FA01DD80ED040AD0ED040A7C
:103D7000F5EEC00AF1EE10FA01D2F1EE600AF4EEAF
:103D8000E02AF1EE10FA02D3D0ED040A03E062EE6D
:103D9000830AC0ED040A00EE821A80ED071AB5EE20
:103DA000C01AF1EE10FA01D2B1EE411AB4EEC41A03
:103DB000F1EE10FA06DBC0ED071A80ED040A80ED83
:103DC000050A027090ED040A704700000000000030
:103DD00086B002F0BDFD049001F0F4F8684601F0F1
:103DE00093F8684600F0DAF9012104A802F056F9C8
:103DF000F2E700002DED028B94B04FF0000B5C4613
:103E000044A0CDF830B001F0E5F99FED4C8A00BF39
:103E10005FEA0B0005D0012812D0BBF1020F2FD1B1
:103E20001FE0DFED470AB0EE480A01F077FA0028FC
:103E300026D044A001F0CEF91E200C9001201EE0F7
:103E40000C9818B1401EC0B20C9019E05A2001F035
:103E5000EBF9A8B141A001F0BDF91E200C900220A1
:103E60000DE00C980028EDD1DFED420AB0EE480AD3
:103E700001F054FA20B140A001F0ACF903208346D0
:103E8000641CE4B20A2C41D300240FAA0EA90DA889
:103E900001F024F810A801F037F8139802F032FF6F
:103EA00007468846129802F02DFF05460E461198E7
:103EB00002F028FFCDE90401109802F023FFCDE9BC
:103EC00002010F9802F01EFFCDE900010E9802F0EA
:103ED00019FF81468A460D9802F014FF41EC110B40
:103EE00008A853EC112B80E8E001DDE90401CDE9DD
:103EF0000601DDE90201CDE90401DDE90001CDE9BA
:103F0000009ACDE9020125A001F064F90A2001F030
:103F10009BFA7DE70D0A5B636861737369732064C4
:103F2000656D6F5D2073746172742028776F726C99
:103F300064206672616D65290D0A000000007A44F4
:103F4000000000005B315D2072656163686564207C
:103F500028313030302C30290D0A00005B325D20D2
:103F60007265616368656420686561643D39300D20
:103F70000A0000000000FA435B335D207265616354
:103F80006865642028313030302C353030292C20C1
:103F900064656D6F20646F6E650D0A00706F7365E8
:103FA00020783D252E316620793D252E31662074FE
:103FB000683D252E3166207C20773D5B252E3066BE
:103FC00020252E306620252E306620252E30665D79
:103FD0000D0A00002DE9F041264953200968886246
:103FE0002549096888622549A7200968886224490B
:103FF00009688862234F002440F2E7364FF4FA75CF
:1040000007EB0412D2E90001F1B1042921D00829FB
:104010000168CB6923D043F40063CB610168CE62B1
:10402000C6605168F1B104291FD0006808291FD06B
:104030000564918990680022FEF768F8641CE4B278
:10404000042CDDD3BDE8F08101688B6943F00803DF
:1040500003E001688B6943F400638B61DEE743F0A2
:104060000803DAE700684563E3E700688563E0E793
:10407000C563DEE7E001002028020020B80200202E
:1040800000030020586E000810B504282DED028BA7
:104090005BD2F0EE400A3449F5EEC00A01EB0014A1
:1040A000F1EE10FA01D2F1EE600A10EE900AB0EED5
:1040B000608AB0F1834F06DABDEC028B2046BDE882
:1040C000104000F07BB818EE100A2849884201DD44
:1040D0009FED278AB5EEC00AA189F1EE10FAA0681B
:1040E00001DB002200E00122FEF710F89FED210A1B
:1040F000C0EE080ABCEEE00A10EE100A022801D257
:10410000022004E0B0F5803F01D34FF6FF70226833
:10411000411E1268D1622268D1606168C1B1042970
:104120001BD0082921684FEA500009681AD008649A
:10413000D4E90001FEF7EAFFA07B002805D0206843
:104140000068416C41F400414164BDEC028B10BD3C
:104150002168400809684863EAE72168400809685F
:104160008863E5E7C863E3E7586E000800504347FB
:104170000050434700247449042809D2DFED050AA2
:1041800080EE201A9FED040A21EE000AFFF77CBFA3
:104190007047000063141D430000484570B5054694
:1041A0005FF0000405EB840090ED000A2046FFF765
:1041B000E3FF641CE4B2042CF4D370BD10B50446D4
:1041C000D4E90001FFF706F8A07B00280ED0206894
:1041D0000068016A41F21112114207D1016A92107E
:1041E000114203D1416C21F40041416410BD10B56E
:1041F0004FF0E020006902F09DFB012803D0BDE8EC
:10420000104002F0CBB810BD30B593B030216846F5
:10421000FCF7BFF914210CA8FCF7BBF91E480025D8
:10422000016841F080510160006800F080501190F9
:104230001A48016841F4804101600068022400F4DA
:104240008040119001200090000401908001CDE990
:104250000640192008904FF4A870CDE90904072002
:104260000B906846FEF72EFA08B172B6FEE70CA96D
:104270000F2081E831004FF4A0500F904FF4805090
:10428000109005210CA8FEF711F9002801D072B694
:10429000FEE713B030BD000040380240007000401F
:1042A0000248016841F470010160704788ED00E048
:1042B00010B50448FEF79FFCBDE810400248FEF729
:1042C0009ABC0000B802002068040020F0B5026823
:1042D000274B284D284E294F294C4FF0804C9842AF
:1042E00009D0604507D0A84205D0B04203D0B842FB
:1042F00001D0A04204D122F0700E4A6842EA0E02B8
:1043000098421BD0604519D0A84217D0B04215D0B2
:10431000B84213D0A04211D01A4DA8420ED01A4D67
:10432000A8420BD0194DA84208D0194DA84205D07B
:10433000184DA84202D0184DA84203D122F440756E
:10434000CA682A434D6922F080022A438D68C562FB
:104350000D688562984201D0A04201D109690163CC
:10436000016841F004010160012141610260F0BD7A
:10437000000001400004004000080040000C004024
:104380000004014000400140004401400048014059
:1043900000180040001C00400020004010B501F053
:1043A0001F030121046A99408C430462016A9A4008
:1043B0001143016210BD0000F0B5036A026A22F0E9
:1043C0000102026242688469124E24F073050C688F
:1043D0002C4323F002058B682B430D4DA84201D0DE
:1043E000B04205D123F00807CB683B4323F0040318
:1043F000A84201D0B04205D14D6922F44072154364
:104400008A692A4342608461496841630362F0BD5E
:104410000000014000040140F0B5026A036A23F085
:1044200010030362436884690D6824F4E64444EA97
:1044300005248D6822F0200242EA05120F4D104E2D
:10444000A84201D0B04206D1CF6822F0800242EAF1
:10445000071222F04002A84201D0B04207D14D69B4
:1044600023F4406343EA85038D6943EA850343608F
:104470008461496881630262F0BD00000000014070
:1044800000040140F0B5026A036A23F480730362FA
:104490004368C46922F4007224F073050C68124E5C
:1044A0002C438D6842EA05220E4DA84201D0B0424D
:1044B00006D1CF6822F4006242EA072222F4806229
:1044C000A84201D0B04207D14D6923F4405343EADA
:1044D00005138D6943EA05134360C4614968C163EC
:1044E0000262F0BD000001400004014030B5046AE2
:1044F000026A22F4805202624268C3690D6823F4A2
:10450000E64343EA05238D6824F4005444EA053465
:10451000084DA84202D0084DA84204D14D6922F4AA
:10452000804242EA85124260C361496801640462C4
:1045300030BD0000000001400004014001680C3162
:1045400051E8002F22F4907241E80023002BF5D1AE
:104550000168143151E8002F22F0010241E80023E4
:10456000002BF5D1016B012909D101680C3151E80B
:10457000002F22F0100241E80023002BF5D120216A
:1045800080F84210002101637047000070B50446B6
:1045900000680169E26821F4405111430161216919
:1045A000A068E26908436169114308432168CA6849
:1045B00049F20C639A430243CA6020684169A269C8
:1045C00021F440711143416131492068884202D091
:1045D0003049884202D1FEF733F801E0FEF720F8B7
:1045E000E2690023192164253226B2F5004F626882
:1045F00028D0A0FB0101930F9200FBF7EBFE0146D0
:10460000B0FBF5F06FF01802504301EB800006EBB1
:104610000010B0FBF5F000F0F002B1FBF5F002EB9A
:104620000012B1FBF5F06FF01803584301EB800066
:1046300006EB0010B0FBF5F000F00F00216810440D
:10464000886070BDA0FB010192185B41FBF7C2FEC0
:104650000146B0FBF5F00201B1FBF5F06FF0180375
:10466000584301EB800006EBC000B0FBF5F000F012
:10467000F80002EB4002B1FBF5F0584301EB80007B
:1046800006EBC000B0FBF5F000F00700D6E7000035
:1046900000100140001401402DE9F84398461746E8
:1046A0000D460446089E24E0701C22D0FDF734FD20
:1046B000A0EB0800B0421AD8CEB12068C168490703
:1046C00017D5802D15D0402D13D00168C943090797
:1046D0000FD401680025406800902046FFF72EFFA8
:1046E0000820606484F840500120BDE8F88303206E
:1046F000FBE72068006835EA000004D00020B842DB
:10470000D2D00020F1E70120F9E7FEE703B40198D9
:104710004100009850EAC12018BF04204A0D18BF7C
:1047200040F0010040F2FF72B2EB515F08BF40F071
:104730000200012808BF052002B0704741000802AE
:1047400018BF04200A0E18BF40F001004FF07F424E
:1047500032EA010108BF40F00200012808BF05202D
:1047600070470907090E002804DB00F1E02080F8FB
:104770000014704700F00F0000F1E02080F8141DD5
:104780007047000070B54FF068422DED048BF0EEDD
:10479000408A18EE900AB0EE608A18EE101A02EB0A
:1047A0004003B3F1654F3CBF02EB4102B2F1654FEC
:1047B0007DD200BFC0F3C753C1F3C7529A1A1B2A58
:1047C00009DD10F0004F14BF9FED830A9FED830AAF
:1047D000BDEC048B70BD12F11A0F36DA11F0004FE8
:1047E00009D010F0004F0CBF9FED7D0A9FED7D0AB0
:1047F000BDEC048B70BD88EE889A19EE100AFFF7A5
:104800009DFF042808BF00F0AFFA18EE900AFFF7EA
:1048100095FF054618EE100AFFF790FF044619EEC3
:10482000100AFFF78BFF042D18BF052D08D1042CAB
:1048300018BF052C04D1002804BF0220FBF7D8FEC6
:10484000B0EE490ABDEC048B70BD4200B2EB410FE3
:104850003AD910F0004F19BFDFED630A9FED630AEC
:10486000DFED630A9FED630AB0EE481A0A46B1EE27
:10487000688A80F00041F0EE418A10460A1A520020
:10488000B2F1807F34D2484010F0004FDFED5A1A69
:104890009FED5A2A1DBFBEEE001A70EEE10A30EEFF
:1048A000420AB6EE001A08BF70EEA10A00E040E02E
:1048B00008BF30EE020AB0EE682A01EE482A08EE80
:1048C000818AC2EE081A15E011F0004F04BF9FED77
:1048D0004C0AF0EE400AD1D010F0004F19BFDFEDC6
:1048E000490A9FED490ADFED490A9FED490AC5E7EC
:1048F000C8EE881A21EEA11A9FED462ADFED462A5E
:1049000041EE022A9FED452A01EE222ADFED442ADC
:1049100041EE022A9FED432ABDEC048B01EE222AD0
:1049200021EE811A01EE020A30EE210A30EE200A51
:1049300070BD4FF07F42B2EB400F28BFB2EB410F8A
:1049400009D2F0EE480AB0EE680ABDEC048BBDE86F
:10495000704000F0FDB940EA01035B0008BF41F080
:10496000FF410BD0B2EB400F08BFB2EB410F08D1B3
:1049700020F0804008EE900A21F0804108EE101AE5
:1049800018E7B2EB400F12BF5FEA410340F0FF406F
:1049900001F000413FF40EAFB2EB410F12BF5FEAEE
:1049A000400200F0004041F0FF413FF403AF4A00F5
:1049B00092EA40033FF5FEAE002AACBF9FED1A0A13
:1049C0009FED1A0A68EE808A28EE008A18EE900A97
:1049D00018EE101AEEE60000DB0FC9BFDB0FC93F6F
:1049E000DB0F4940DB0F49C00000C9BF22AAFDB957
:1049F0000000C93F22AAFD390060ED3EC30ACE3750
:104A000000000000000049C022AA7DBA0000494011
:104A100022AA7D3A2DAD65BD8FB8D53D0FB511BE2B
:104A200061C84C3EA8AAAABE0000804F0000802F9B
:104A300010EE101A08B5444A6846B2EB410F28D967
:104A40004FF0E640B0EB410F94BF00204FF0FF3035
:104A500000900098002861DB60EE000A10F0010F62
:104A600045D010F0020FDFED391A9FED391A00EE34
:104A7000E11ADFED381A40EE811A21EEA01AF0EEAD
:104A8000400A40EE010A08BFF1EE600AB0EE600A8B
:104A900008BD314B21F0004293423CD911F0004F48
:104AA000DFED2E0A20EE201ADFED2D0A19BF31EEC0
:104AB000601A71EE200A31EE201A71EE600ABDEE26
:104AC000E01A11EE100A9FED271A00F0030000EE25
:104AD000C10A9FED251A009000EEC10A9FED231A2E
:104AE00000EEC10A9FED221A00EEC10AB1E79FED68
:104AF000211A9FED210A10F0020F00EE810A9FEDAE
:104B00001F1A00EE801AB7EE000A00EE810A18BFE5
:104B1000B1EE400A08BD00F02FF99AE710EE100A36
:104B20004000B0F17F4F3CBFB7EE000A08BD07D18F
:104B30004FF00100FBF75CFDBDE8084000F00CB948
:104B4000BDE8084000F001B9B61F927E336D4C39C4
:104B5000DA82083CA0AA2ABE490E494683F9223FC0
:104B60000000004B0000C93F00A0FD390020A23327
:104B70001A61342CB93AB2BACA9F2A3DDDFFFFBE92
:104B800000B510EE101A2DED028B81B0524A684626
:104B9000B2EB410F2ED94FF0E640B0EB410F94BF7E
:104BA00000204FF0FF3000900098B0EE408A0028BF
:104BB0006ADB10F0010F4BD068EE080A9FED471A30
:104BC0009FED470A00EE810A9FED461A10F0020F92
:104BD00000EE801AB7EE000A00EE810A02BF01B0B3
:104BE000BDEC028B00BD00BF01B0B1EE400ABDECD0
:104BF000028B00BD3C4B21F00042934241D911F0A1
:104C0000004FDFED3A0A20EE201ADFED390A19BF16
:104C100031EE601A71EE200A31EE201A71EE600A50
:104C2000BDEEE01A11EE100A9FED321A00F00300FB
:104C300000EEC10A9FED301A009000EEC10A9FED10
:104C40002F1A00EEC10A9FED2E1A00EEC10AABE743
:104C500028EE080A9FED2B1ADFED2B0A10F0020F49
:104C600040EE410A9FED291A00EE201A61EE000A7B
:104C7000B0EE480A08EE200AB6D101B0BDEC028BB6
:104C800000BD00F079F88FE718EE100A4000B0F18F
:104C90007F4F0DD218EE100AFFF750FD042808BF11
:104CA00000F062F8B0EE480A01B0BDEC028B00BD26
:104CB00009D10120FBF79CFC01B0BDEC028B5DF833
:104CC00004EB00F049B801B0B0EE480ABDEC028B2D
:104CD0005DF804EB00F039B8B61F927EB93AB2BA6B
:104CE000CA9F2A3DDDFFFFBE490E494683F9223F98
:104CF0000000004B0000C93F00A0FD390020A23396
:104D00001A61342C336D4C39DA82083CA0AA2ABED1
:104D100010B52DED028BB1EEC08A18EE100A20F00E
:104D20000040C0F1FF40C00F0AD010EE100A20F082
:104D30000040C0F1FF40C00F04BF0120FBF758FC4A
:104D4000B0EE480ABDEC028B10BD30EE000A704791
:104D500030EE200A70470000DFED020A80EEA00A64
:104D600070470000000000009FED020A20EE000ADC
:104D700070470000000000102DE9F0014FF07F4265
:104D8000B2EB410F9FBF4FF0FF310160BDE8F00172
:104D900070474FF0004242EA0123C1F3C752783A0C
:104DA000551112F01F0C434CCCF120067C44C1F38A
:104DB000C752A2F178024FEA621204EB820254F861
:104DC000254008BFD2E9015612D0556804FA0CF408
:104DD00025FA06F73C43976805FA0CF527FA06F81A
:104DE000D26807FA0CFCF24045EA08054CEA0206D4
:104DF000A4FB034CA5FB0352A6FB03631D449D4289
:104E000034BF012600261319334416B1934202D948
:104E100003E0934201D2012200E00022624402F149
:104E2000200C9206DC0C42EA443200EE102A5B03AE
:104E3000DFED210AF8EEC01A00EE103A4FEA9C1C92
:104E400011F0004FB8EE400AC0F800C020EE201A62
:104E500000EE105ADFED190AB8EE400A20EE200AE3
:104E600071EE810A70EE800A10EE902A02F500625F
:104E70006FF30B0200EE902A70EEE11A31EEC11AC8
:104E8000DFED101A30EE411A9FED0D0A20EE800A78
:104E900001EE210A9FED0C1A00EE810A04BFBDE865
:104EA000F0017047CCF180510160BDE8F001B1EE36
:104EB000400A704744210000000000360000802CAA
:104EC00022AAFD29DB0FC92F0000C92F30380A287C
:104ED00001D20120704700207047000010B5144631
:104EE000084A18B192ED000A80ED000A19B192ED5E
:104EF000010A81ED000A002C03D000F057F884ED80
:104F0000000A10BDB0040020064A002102EB810314
:104F100093ED1D0A00EB8103491C83ED000A04296F
:104F2000F4DB7047B004002000B51D4887B00EC800
:104F30008DE80E0007C803AB83E8070069461948EF
:104F4000FEF796FD174803A93030FEF791FD15488E
:104F50009FED150A1838002180ED000A80ED010A46
:104F600080ED020A017380ED040A0175012141758B
:104F700080ED0F0A80ED100A80ED110AF7EE000AAD
:104F8000C0ED1B0A80ED1C0A5FF0000100EB8102FE
:104F9000491C82ED1D0A0429F8DB07B000BD0000A2
:104FA000406E0008C8040020000000000448017B97
:104FB00011B190ED040A704790ED020A70470000AD
:104FC000B00400202DE9F0412DED0A8B9FED7CAA65
:104FD000DFED7C9A7C4C0025B0EE698A207D0126AD
:104FE000B0EE489AF0EE488A012802D0022839D162
:104FF00060E07548B0EE4A0A18300746FEF7BCFD7F
:10500000F0EE408A94ED0F0AFFF712FD20EE289A89
:1050100094ED0F0AFFF7B4FD60EE288A3846FEF7DC
:105020003FFD00281ED094ED100AD4ED000A30EEAA
:1050300060BA94ED110AD4ED010A70EE60AA2BEE6D
:105040000B0A0AEEAA0AFFF763FE10EE100A5F4988
:10505000F0EE40BA884206DAF0EE698A2575667588
:10506000B0EE689A66E0FFF7A1FF00F0CDF8B0EE71
:1050700040CAFFF7DDFC60EE0B9AB0EE4C0AFFF77A
:105080007FFD4AEE809AB0EE4C0AFFF7D1FC60EE4D
:105090002AAAB0EE4C0AFFF773FD4BEE40AAF0EEE1
:1050A000690AB0EE6A0AFFF76DFB84ED0F0AB0EEF5
:1050B0006B0A3CE04448B0EE4A0A48300746FEF727
:1050C0005BFDD4ED1B0A20EE800A00F09DF8B0EEE7
:1050D000408A3846FEF7E4FC60B3FFF767FFD4ED83
:1050E0001C0A30EEC00A00F095F900F095F810EEB9
:1050F000100AB0F1804F04DA25756675B0EE698A42
:1051000018E0FFF753FFD4ED1C0A30EEC00A00F0A0
:1051100081F9B5EEC00AF1EE10FA02DBF7EE000AF3
:1051200001E0FFEE000AC4ED1B0A00F075F83846F6
:10513000FEF7BEFC2448B0EE481A7430F0EE680A60
:10514000B0EE490AFEF774FCFFF730FF00F05CF8A0
:10515000F0EE40AAFFF76CFC60EE099AB0EE6A0A26
:10516000FFF70EFD48EEC09AB0EE6A0AFFF708FDA1
:1051700020EE099AB0EE6A0AFFF75AFC08EE809A10
:1051800094ED000A09EE8A0A84ED000A94ED010A02
:1051900009EE0A0A84ED010A207B00280BD19FED5D
:1051A0000C0A68EE000A94ED020A00EE8A0A00F08A
:1051B00031F984ED020ABDEC0A8BBDE8F0810000F4
:1051C0006F12833A00000000B00400200000C040CD
:1051D000E12E65420FB4A02110B503AB0848029A36
:1051E000FBF770F9002808DDA02800DDA02082B2BE
:1051F000322303490348FEF715F910BC5DF814FB90
:10520000A400002048030020DFED020A20EE200A5F
:105210007047000035FA8E3CB5EEC00AF1EE10FA88
:1052200001D2B1EE400A704770B500EE100A274C6B
:105230002DED028BB8EEC08A207D02280CD194EDB2
:105240001C0A38EE400A00F0E5F8FFF7E5FF10EE23
:10525000100AB0F17C5F35DD207D012803D11B48A9
:105260001830FEF77BFCFFF7A1FE38EE400A00F095
:10527000D1F8F0EE408A84ED1C8AF5EEC08AF1EE9A
:1052800010FA02DBB7EE000A01E0BFEE000A84ED7F
:105290001B0AB0EE680AFFF7BFFF10EE100A0025E8
:1052A000B0F17E5F03DA2575012060750AE0B0EE8B
:1052B000680AFFF7B1FF05484830FEF7F9FB022006
:1052C00020756575607DBDEC028B70BDB00400205B
:1052D000FDF72AF8FEF798FFFEF712F9FEF79EF9A0
:1052E000FEF7BCF9FEF710FAFEF746FAFEF77CFA75
:1052F000FEF7B0FAFEF7FEFAFEF728FBFEF742FBD8
:10530000FEF75CFBFEF776FBFEF790FB00F0AAF8D9
:10531000FEF7DAF800F0B8F8FEE7000070B53C4C94
:105320002DED068BB0EE609AB0EE408A94ED100A37
:10533000D4ED110A207D38EE400A79EE608A01280A
:105340000FD1FFF769FF10EE100A4FF07C55A8420D
:1053500007DCB0EE680AFFF75FFF10EE100AA84204
:1053600052DD207D022803D129484830FEF7F6FBA4
:10537000FFF71CFEFFF748FFF0EE40AA94ED000A8D
:1053800038EE40AA94ED010A79EE409AB0EE6A0A2E
:10539000FFF74EFB60EE0A8AB0EE6A0AFFF7F0FBF9
:1053A00049EE808AB0EE6A0AFFF742FB60EE299A66
:1053B000B0EE6A0AFFF7E4FB4AEE409A28EEA80A2C
:1053C00009EEA90AFFF7A4FCB0EE40AA84ED108A0A
:1053D00084ED119AF0EE680AB0EE690AFFF7D2F98F
:1053E0001AEE100A0025012684ED0F0AB0F1804F55
:1053F00002DA2575667507E00548B0EE4A0A1830EE
:10540000FEF756FB26756575607DBDEC068B70BD9D
:10541000B0040020DFED090A094901E030EE600A1E
:1054200010EE100A8842F9DC064900BF10EE100A9F
:10543000884202D330EE200AF8E770470000B443F8
:1054400000003443000034C310B5EFF3058111B1FF
:105450006FF0050403E0002408B100F0F9FD2046D8
:1054600010BD0000EFF3058010B16FF0050070472C
:105470000448016811B14FF0FF307047012101600D
:10548000002070477400002010B5EFF3058010B1C4
:105490006FF0050010BD08480168012902D04FF0E7
:1054A000FF3010BD054A002182F8141D0221016061
:1054B00000F07CFE002010BD740000200BE000E036
:1054C0002DE9FF414FEA01034FF00005EFF305819D
:1054D000039549BB40B38027182100244AB31668BE
:1054E00006B1344696691EB13146761E382E02D278
:1054F0001679F60703D0002004B0BDE8F0815669A4
:1055000006B1B708D2F808C0BCF1000F0DD0D568BD
:105510005C2D18D312693AB136B18DE806103A46BF
:10552000214601F0DCF903900DE0D6685EB91269FE
:105530004AB903AACDE90012BAB2214601F0A2F994
:10554000012800D003950398D6E700002DE9F0412B
:10555000134C0F460546E6682068001D00F044FC29
:10556000681C07D137B12168BDE8F0410D48091D1D
:1055700000F08ABC20683544B5424560216805D2F8
:10558000A06BBDE8F041091D00F066BC606B091D11
:1055900000F062FCA06A854200D2A562BDE8F081FD
:1055A00024000020240A00202DE9F041054600F0E7
:1055B00077FC2D4CA068401CA06020682B4F10B1D8
:1055C000606930B32BE02560A068012827D1002650
:1055D00006EB860007EB800000F030FC761C382ECE
:1055E000F6D3234800F02AFC2148143000F026FCB2
:1055F0001F48283000F022FC1D483C3000F01EFC03
:105600001B48503000F01AFC194860631430A06346
:1056100005E02068E96AC06A884200D82560606AAF
:10562000401C60626864E86A2169884200D9206190
:1056300000EB800007EB8000291D00F025FC00F046
:105640004FFC606900280CD02068E96AC06A884273
:1056500007D208494FF080500860BFF34F8FBFF367
:105660006F8FBDE8F0810000240000207405002049
:10567000D409002004ED00E038B500F011FC104C16
:105680002068C8B90F4800F0D9FB0E48143000F06C
:10569000D5FB0C48E060143020610A4B0020F03B41
:1056A000009003F1500210210A2000F08DFE2060CE
:1056B00010B105A100F096FCBDE8384000F010BC28
:1056C00060000020280B0020546D72510000000083
:1056D00030B4026C0B46002A0BD0C1681144C16083
:1056E0008468A14201D30168C16030BC1846FAF752
:1056F00003BF30BC70472DE9F041856B1746044667
:105700000026026C82B1C7B1E068FAF7F5FEE168E5
:10571000206C091AE1602268914202D2A168081A3D
:10572000E060022F16D017E02068A8B9A06801F049
:1057300079F906460020A0600EE06068FAF7DCFE0A
:10574000216C606808446060A168884204D32068C6
:10575000606001E005B16D1E6D1CA5633046BDE8BB
:10576000F08110B5044690F8590058B101280CD0CA
:1057700002280FD0502080F31188BFF34F8FBFF362
:105780006F8FFEE7206B00F0BFFB2046BDE81040A6
:1057900000F0BABB10BD000010484FF47051420732
:1057A00006D0C01D0D4920F00700411AC1F5705107
:1057B0000B4A00230144C2E900030839183A21F0DA
:1057C000070111604B600B600B1AC0E90013936076
:1057D0004FF00040536050617047000008120020F5
:1057E00090000020144E154CA6F29C474FF08058B4
:1057F000DFF84C9012E000BF00F052FBF068C56883
:10580000281D00F0F1FAA068401EA0606068401EEC
:10581000606000F065FB2846FFF7A3FF6068002882
:10582000EAD138680128F9D9C9F80080BFF34F8F51
:10583000BFF36F8FF2E70000100A00202400002061
:1058400004ED00E070B51D46049C51B1C4F8002081
:10585000C4E90F010121204600F0EAFD84F84C5014
:1058600070BD2460F4E700002DE9F05F8846DDE9B3
:105870000B941546834691009A460A9EA522206BFA
:10588000FAF77FFE6FF00301206B01EB85010844FE
:1058900020F00707780707D0502080F31188BFF366
:1058A0004F8FBFF36F8FFEE70025B8F1000F0FD0C9
:1058B0005FF00000221818F8001082F8341018F871
:1058C000001011B1401C1028F4D384F8435001E0BB
:1058D00084F83450382E00D33726E662C4E91365C5
:1058E000201D00F0B6FA04F1180000F0B2FA2461AD
:1058F000C6F138006462A061656584F8585052466C
:105900005946384600F05AFA2060B9F1000F01D02C
:10591000C9F80040BDE8F09F30B5114900E01146DC
:105920000A688242FBD34B685C18844203D140680A
:1059300018444860084643681C18944209D1084C32
:10594000183C2468A24209D052681A4442600A688E
:1059500012680260814200D0086030BD0460F9E73F
:105960009000002070B5002441600B4D0061914211
:1059700006D8D11A8269914206D2011D286907E032
:105980009A4203D2994201D3012403E0011DE86841
:1059900000F062FA204670BD6000002010B5044699
:1059A00000F07EFAA06B28B15FF0000400F098FAD6
:1059B000204610BD0124F9E730B589B03C4D6EE0BA
:1059C0000498002806DADDE90601059A9047049854
:1059D000002864DB069C606910B1201D00F004FA09
:1059E00003A800F0D7F8024604980A2857D2DFE847
:1059F00000F00505052D334A05052D3394F82800E0
:105A000040F0010084F828000599A069059B014435
:105A10002046FFF7A7FF68B3216A2046884794F81D
:105A2000280040073BD5002000900598A16900237D
:105A300042181946204601F0FFF8D8B9502080F3EB
:105A40001188BFF34F8FBFF36F8FFEE714F8280F55
:105A500020F00100207022E094F8280040F00100BE
:105A600084F828000598A06128B1811813462046C3
:105A7000FFF778FF13E0502080F31188BFF34F8FBA
:105A8000BFF36F8FFEE794F82800810703D4204608
:105A900000F03AFA03E020F0010084F82800002228
:105AA00004A9286800F018FE002889D109B030BD8B
:105AB000600000202DE9FC410F46054600F0BAFBCE
:105AC00001A800F067F80446019818B101F022F827
:105AD000BDE8FC81254EAFB130690068D0B3002726
