:020000040800F2
:10000000C85F002095030008275A00080141000836
:10001000255A0008131F0008FB68000800000000B4
:10002000000000000000000000000000D5020008F1
:10003000D11F00080000000031030008E163000840
:10004000AF030008AF030008AF030008AF030008C8
:10005000AF030008AF030008AF030008AF030008B8
:10006000AF030008AF030008AF030008151F000826
:10007000AF030008AF030008AF030008AF03000898
:10008000AF030008211F0008AF030008AF030008FA
:10009000AF030008AF030008AF030008AF03000878
:1000A000AF030008AF030008AF030008AF03000868
:1000B000AF030008AF030008AF03000811410008B8
:1000C00005410008AF030008AF030008AF030008B4
:1000D000AF030008AF030008AF030008AF03000838
:1000E000AF030008AF030008AF030008AF03000828
:1000F000AF030008A1640008AF030008AF030008C5
:10010000AF030008AF030008AF030008AF03000807
:10011000AF030008AF030008AF030008AF030008F7
:10012000AF030008AF030008AF030008AF030008E7
:10013000AF030008AF030008AF030008AF030008D7
:10014000AF030008AF030008AF030008AF030008C7
:10015000AF030008AF030008AF030008AF030008B7
:10016000AF030008AF030008AF030008AF030008A7
:10017000AF030008AF030008AF0300080000000051
:10018000AF030008AF03000800F002F800F092F897
:100190000AA090E8000C82448344AAF10107DA45E2
:1001A00001D100F087F8AFF2090EBAE80F0013F0A2
:1001B000010F18BFFB1A43F001031847FC9500001C
:1001C0001C960000103A24BF78C878C1FAD85207AC
:1001D00024BF30C830C144BF04680C6070470000C1
:1001E0000023002400250026103A28BF78C1FBD840
:1001F000520728BF30C148BF0B6070476E2900F01E
:10020000BD82702900F00784662909F0998165296B
:1002100009F09681672909F09381612909F092819B
:1002200003681B0A28BF41F08001692900F06A8237
:10023000642900F06782752900F064826F2900F05C
:100240009483782900F0D383E92900F02F83E429EF
:1002500000F02C83F52900F02983EF2900F0918329
:10026000F82900F0D2830368DB0928BF41F0800140
:10027000632901F00B81732901F01081E32901F05A
:100280001B81F32901F02081002070471FB509F080
:1002900052F901F06FF904000020002109F0BEF8C6
:1002A000401C60600020002109F0A2F8E0601FBD42
:1002B00010B510BD01F030F91146FFF7E7FF07F068
:1002C00011F901F00DFA03B4FFF7F2FF03BC01F0DE
:1002D00051FA00002C4B19680868B0E8F04F80F321
:1002E0000988BFF36F8F4FF0000080F311887047CB
:1002F0000000000008480068006880F308884FF09C
:10030000000080F3148862B661B6BFF34F8FBFF36D
:100310006F8F00DF00BF00BF08ED00E0DFF80C00CA
:10032000016841F470010160704700BF88ED00E092
:10033000EFF30980BFF36F8F134B1A681EF0100F95
:1003400008BF20ED108A20E9F04F106009B44FF08B
:10035000500080F31188BFF34F8FBFF36F8F08F009
:10036000A1F94FF0000080F3118809BC19680868F2
:10037000B0E8F04F1EF0100F08BFB0EC108A80F309
:100380000988BFF36F8F704754000020EFF305809A
:10039000704700000948804709480047FEE7FEE72C
:1003A000FEE7FEE7FEE7FEE7FEE7FEE7FEE7FEE725
:1003B00004480549054A064B70470000916400084F
:1003C00089010008C8590020C85F0020C85B0020D0
:1003D000C85B002053EA020C00F069802DE9F04B65
:1003E0004FF00006002B1FBFB3FA83F503FA05F4A4
:1003F00024FA05F65E4012BF1643B2FA82F502FAFD
:1004000005F4C5F120051EBF22FA05FC44EA0C04E0
:10041000203556EA044C4FEA144418BF641C4FF0D0
:1004200000084FF00009904271EB030C39D300290A
:1004300019BFB1FA81F701FA07F6B0FA80F700FAAE
:1004400007F6C7F120071EBF20FA07FC46EA0C0694
:100450002037B6FBF4FCA7EB0507103F07F01F0B96
:10046000CBF120060CFA0BFB2CFA06F644BFB34680
:100470000026202FA4BF5E464FF0000B5BEA060C5F
:1004800008BF4FF0010B19EB0B09ABFB027C48EBEB
:100490000608C01B06FB02CC0BFB03CC71EB0C0166
:1004A000C1E70B46024641464846BDE8F08B13B50E
:1004B0004FF000004FF00001AFF30080BDE81C409A
:1004C000704700007CB51D4616460C00009001D018
:1004D0002044401E074B7B442A4669460190304623
:1004E00000F065F905461CB10020694600F072F97C
:1004F00028467CBD05030000032A40F2308010F03E
:10050000030C00F0158011F8013BBCF1020F6244AE
:1005100098BF11F801CB00F8013B38BF11F8013B3F
:10052000A2F1040298BF00F801CB38BF00F8013BEC
:1005300011F0030300F03E83083AC0F0088051F840
:10054000043B083A51F804CBA0E80810F5E7121D67
:100550005CBF51F8043B40F8043BAFF30080D20786
:1005600024BF11F8013B11F801CB48BF11F8012B52
:1005700024BF00F8013B00F801CB48BF00F8012B75
:10058000704702F0FF0343EA032242EA024200F00E
:1005900002B84FF000020429C0F0128010F0030CE2
:1005A00000F01B80CCF1040CBCF1020F18BF00F866
:1005B000012BA8BF20F8022BA1EB0C0100F00DB815
:1005C0005FEAC17C24BF00F8012B00F8012B48BF73
:1005D00000F8012B70474FF0000200B51346944617
:1005E0009646203922BFA0E80C50A0E80C50B1F18B
:1005F0002001BFF4F7AF090728BFA0E80C5048BF9F
:100600000CC05DF804EB890028BF40F8042B08BF3C
:10061000704748BF20F8022B11F0804F18BF00F838
:10062000012B704770477047704710B500F0F4FA1F
:10063000006810BD10B5044600F0EEFA046010BD6D
:1006400070B5044685690068C10601D5302600E012
:100650002026C00707D070BDD4E90121304690475D
:10066000206A401C20626D1EF6D570BD70B5044630
:1006700085690078C00707D170BDD4E90121202029
:100680009047206A401C20626D1EF6D570BD096837
:100690004A0501D540B27047C905FCD500B2704784
:1006A00009684A0501D5C0B27047C905FCD580B2BA
:1006B000704770B50C460546012A05D0287880069B
:1006C00000D5EA69002302E0012305E05B1C9342A8
:1006D00002D2E05C0028F9D1A869E618C01AA86126
:1006E000286A184428622846FFF7AAFF04E0D5E9E3
:1006F000012114F8010B9047B442F8D32846FFF7C4
:10070000B5FF70BD2DE9F04106460024106875293B
:10071000314616A510D0FFF7BAFF002802DA404292
:1007200013A507E031688A0701D512A502E0490741
:1007300004D511A5012401E0FFF7B2FF00210A2230
:1007400006F1240709E0B0FBF2FCB0FBF2F302FB78
:100750001C00303078541846491C0028F3D1234639
:100760002A463046BDE8F04100F09FBA0000000084
:100770002D0000002B00000020000000116802681E
:10078000006A530501D508700AE0D30501D5088039
:1007900006E0130603D5C217C1E9000200E00860B5
:1007A0000120704701694A1C02610878704700B552
:1007B0008FB0CDE901310021059105497944CDE99A
:1007C00003101146684600F031F90FB000BD00007B
:1007D000E5FFFFFF0A6802F8010B0A607047D1E9E4
:1007E00000239A4202D2531C0B6010707047000025
:1007F0002DE9FF5F15468A460446DFF8AC80F844D1
:100800000027D8E900103E46CDE9001010E03AF884
:1008100016106A4602A800F05BFE411C07D0217842
:10082000890603D5E269391891420DD80744761C30
:100830002078800602D5E069B84205DDAE42E6DBED
:100840003AF816000028E2D1A069C01BA06120463A
:10085000FFF7F6FED8E90010CDE90010002017E000
:100860003AF818106A4602A800F032FEB0F1FF3FD5
:1008700081460BD000250DF1080B05E0D4E90121DC
:100880001BF8050090476D1C4D45F7D308F101009A
:10089000B0428046E4DB206A384420622046FFF7FD
:1008A000E5FEBDE8FF9F00002A8E00002DE9F04123
:1008B0008046D21D22F007020025D2E90002F52968
:1008C00015A614D0011E72F1000106DA0023D0EB48
:1008D000030063EB020211A608E0D8F800108B07B2
:1008E00001D50FA602E0490701D50EA60125114644
:1008F000002408F1240704E000F092F930323A5560
:10090000641C50EA0102F7D12B463246214640468C
:10091000BDE8F04100F0C9B9000000002D00000062
:100920002B0000002000000030B4002100F124045E
:1009300008E002F00705D208303542EA4372DB08CE
:100940006554491C52EA0305F3D10468002310A240
:10095000250707D5A40600D421B1C46901230DA23F
:10096000641EC46130BC00F0A0B910B50446214635
:100970001068FFF795FE02462046BDE810400023B0
:10098000D2E7D21D22F00701D1E90023CCE7000015
:100990000000000030000000F0B40D460188090599
:1009A00002D5214C7C4402E01F4C7C440E340021D3
:1009B00000F1240608E002F00F071209E75D42EAA1
:1009C00003721B097754491C52EA0307F3D10278DA
:1009D0000023120704D5702D06D009B1022311346B
:1009E0002246F0BC00F061B901231034F8E770B57D
:1009F00004460D4621461068FFF752FE024629467E
:100A00002046BDE870400023C6E7D21D22F0070350
:100A1000D3E90023C0E70368126843F020030360B2
:100A20000823C3610023B7E78C8C00002DE9F05F39
:100A3000894604464FF0000ADFF874B1FB44C0F861
:100A400020A02046E1688847002874D0252806D0D9
:100A5000D4E901219047206A401C2062F1E700267A
:100A60005F462046E16888472028054607DB312D90
:100A700005D2781910F8200C08B10643F1E7B00749
:100A800001D526F00406C4F81CA00027C4F818A05D
:100A90002A2D09D0284606F011FB38B304EB87084D
:100AA000303DC8F8185019E059F8041B204604EBF3
:100AB00087029161E1688847012F054618D1E069F6
:100AC000002820DA26F020061DE0D8F8180000EBF8
:100AD000800005EB40003038C8F818002046E16877
:100AE0008847054606F0EAFA0028EED1012F0AD021
:100AF0002E2D08D12046E16888477F1C0546022F2D
:100B000046F02006C4DBA069002803DA404246F024
:100B10000106A061F00701D026F010066C2D0BD065
:100B2000682D09D04C2D39D06A2D35D0742D35D093
:100B30007A2D33D016E038E0E1682F46204688470A
:100B4000B842054609D16C2F26D04FF48060E16889
:100B5000064320468847054604E06C2F1AD04FF420
:100B6000807006430DB3A5F14100192802D8203545
:100B700046F400664A462946204626604E46FFF760
:100B80003DFB80B101280BD0F61D26F0070000F1D7
:100B9000080956E74020E4E78020D8E70020D6E7A0
:100BA00006F104094DE7284652E7206ABDE8F09FA8
:100BB0001C8C000010B5203AC0F00B80B1E8185032
:100BC000203AA0E81850B1E81850A0E81850BFF437
:100BD000F5AF5FEA027C24BFB1E81850A0E81850D6
:100BE00044BF18C918C0BDE810405FEA827C24BF2A
:100BF00051F8043B40F8043B08BF7047D20728BFB8
:100C000031F8023B48BF11F8012B28BF20F8023B06
:100C100048BF00F8012B7047004870476459002016
:100C200030B5B0F10A024FEA900E71F100034EEABE
:100C3000817EB0EB0E0061EB91014FEA101E4EEA8F
:100C4000017E10EB0E0041EB11114FEA102E4EEA1F
:100C5000016E10EB0E0041EB11214FEA104E4EEAEF
:100C6000014E10EB0E0041EB1141401841F1000123
:100C70004FEAD00040EA41704FEAD10110EB800505
:100C80004FEA810444EA907444EB01046D1944EB8B
:100C90000404521BA3414FF0000348BF0A3200D5A1
:100CA00030BD401C41F1000130BD2DE9F0470D463B
:100CB00099469246044600F124080168880604D546
:100CC000E06921F01001216000E00120A84201DD6F
:100CD000471B00E00027A1697A1902EB0900081AF6
:100CE000A0612078C00602D42046FFF7A9FC0026A8
:100CF00008E0D4E901211AF806009047206A401C58
:100D0000761C20624E45F4DB2078C0060AD52046CA
:100D1000FFF796FC06E0D4E9012130209047206AD5
:100D2000401C2062381EA7F10107F4DC07E0D4E97B
:100D3000012118F805009047206A401C2062281EF7
:100D4000A5F10105F3DC2046FFF790FC20780006B2
:100D500002D50220BDE8F0870120FBE770472DE9AE
:100D6000FF4F0C461E464FF0FF378BB0D2E9000113
:100D7000DDF860800A908A46C1F30A5505B93D4600
:100D8000002108464FF00000BAF1000F00F44000C7
:100D900005DA00EB80004FF4400101EA50004FEA11
:100DA0009059B9F1010F00DDB9460A9850EA4A009E
:100DB0000ED044F61050A5F2FF3545432F14B8F17C
:100DC000000F1ED07542291E1EDDC9F100021CE075
:100DD000B8F1010F4FF0000001D0302103E0F243E1
:100DE00005E02154401CB042FBDB304600220021CC
:100DF00021540B99C1F80880C1E900200FB0BDE86B
:100E0000F08FBD1B6D1CDEE74A4600DA694206A87A
:100E100000F0F4FB06AB93E8070003AB83E80700A0
:100E200050460A9900F0ADFC8DE80700A0F500508F
:100E30001F3800900398002D0ADD42F21F014A4638
:100E40000844002303A90390684600F016FF09E058
:100E5000A0F500504A461F38002303A903906846B6
:100E600000F020FF8DE807000004000C03D04FF0D5
:100E7000FF30410800E01046B8F1000F03D0002217
:100E8000009215461EE0751E05D4FFF7C9FE3032EC
:100E900062556D1EF9D5B3460122084302D00022E7
:100EA0007F1C04E02078302801D100227F1E002A18
:100EB000099784D01DE0112D07DAFFF7B1FE30321B
:100EC00062556D1C50EA0102F5D1084302D000982A
:100ED000C8B10EE00021681E05E0235C625C63542B
:100EE0002254401E491C8142F7DBAB46A81B401E22
:100EF0000990002004F80B000B98099AC0F80880AC
:100F0000C0E9002B7AE711264FF0000857E72DE9DA
:100F1000F04F88460446D21D22F0070191B0D1E976
:100F20000001CDE90A0105F0E9FC02460B98C00F6B
:100F300001D02D2007E02068810701D52B2002E099
:100F4000202101EAC000032A099001D0072A05DB0D
:100F500003464146204600F011FB0BE12078800655
:100F600001D5E06900E00620B8F1650F814606D0A2
:100F7000B8F1660F18D0B8F1670F70D131E00020DA
:100F8000B9F1110F009001DB112301E009F1010318
:100F90000AAA01A90CA8FFF7E2FEDDE90C70002601
:100FA00009F10105834647E001204B4600904FF0D0
:100FB00000470AAA01A90CA8FFF7D1FEDDE90DB090
:100FC0000C995D46002610B909F101000D18B9EB26
:100FD000050003D4C0F1FF3609F10105A5EB0900B6
:100FE0002BE0B9F1010F01DA4FF001090020B9F14E
:100FF000110F0090484601DD112300E003460AAAC4
:1010000001A90CA8FFF7ABFEDDE90C704D460026E8
:101010008346207800070AD4AB4500DA5D4601A874
:10102000012D04DD411911F8011C302907D04F456D
:1010300002DA17F1040F04DA012082460FE06D1E78
:10104000EEE7002F02DCED1B3E4403E0781CA842D3
:1010500000DD7D1CB81B00F1010A4FF0004720782D
:10106000000703D4AA4501DB4FF0FF3A0021B7F196
:10107000004F0DF143088DF8431024D002202B239C
:10108000002F01DA7F422D230A21021EA0F1010068
:1010900000DC5FB197FBF1FC97FBF1F201FB1C7CDC
:1010A00017460CF1300C08F801CDEEE7A8F101006D
:1010B00003702188090501D5452100E06521A0F1D3
:1010C000010800F8011C09980FA9A1EB0807FF1DF2
:1010D00000B10120411901EBEA70A1693844081AF6
:1010E000401EA0612078C00602D42046FFF7A8FA6F
:1010F000099828B1D4E901219047206A401C206258
:101100002078C00622D52046FFF79AFA1EE0002E6E
:1011100004DBB34502DD01A8805D00E03020D4E9A6
:1011200001219047206A401C2062761CAAF1010030
:101130005FEA000A0AD100F01DFAC0680168405C4D
:10114000D4E901219047206A401C2062281EA5F1A5
:101150000105DCDC07E0D4E9012118F8010B904718
:10116000206A401C2062381EA7F10107F3DC2046EC
:10117000FFF77CFA032011B041E600002DE9F04FA3
:1011800004460D46D21D22F0070089B0D0E9009731
:101190004846394605F0B2FB0246F80F01D02D2330
:1011A00007E02068810701D52B2302E0202101EA16
:1011B000C0038DF820300BB1012000E00020032A8D
:1011C000824601D0072A04DB2946204600F0D6F9E2
:1011D0003FE12078800601D40D2500E0E569C7F3E2
:1011E0000A560D2D49DA00214FEA175B08464FF0E9
:1011F0000000002F00F4400007DA00EB80004FF4FD
:10120000400100EBD07001EA60008115012901DD89
:101210004FF0FF3100224FEA850CBCF1180F06D3C6
:101220001346ACF118004FF08052C24003E04FF477
:10123000801323FA0CF30CF10C0CBCF1200F04D337
:10124000ACF1200C09FA0CF001E007FA0CF00029CF
:101250004FF0004801DD18B90FE00ED140450CD326
:1012600019EB02095F4121B9404502D19F4329EAA8
:101270000209BBEB175F00D0761C2088000502D561
:101280007B48784402E07A487844193808AA302329
:1012900002F80A30037C0AF10101002E0AF1020A69
:1012A00053546A4602DC4FF0300101E04FF0310147
:1012B0004FF001088DF8001002D0A6F2FF3603E0CF
:1012C00059EA470100D06B4E002D02DC2178090756
:1012D00004D54FF002082E218DF80110C4460021DC
:1012E0000BE0C7F303433F01C35C491C6D1E02F8CA
:1012F0000830052908F1010801DA002DF1DC002190
:101300000CE000EB1973491C1B786D1E082902F8CC
:1013100008304FEA091908F1010801DA002DF0DC64
:1013200021688B0602D516E0A8F10108E04505DD2D
:1013300002EB080313F8013C302BF5D0B8F1000F95
:1013400009DD02EB080313F8013C2E2B03D109073A
:1013500001D4A8F10108002D05DD3E2102F8081096
:101360006D1E08F10108407C002E02F8080008F10B
:10137000010804DA2D20764202F8080002E02B2052
:1013800002F808000A214FF47A70864208F1010839
:101390000BDB96FBF0F3303302F8083096FBF0F3EA
:1013A00008F1010800FB136601E0642E0CDB6420E9
:1013B00096FBF0F3303302F8083096FBF0F308F1B7
:1013C000010800FB136601E00A2E06DB96FBF1F034
:1013D000303002F8080008F1010896FBF1F001FB3B
:1013E0001060303002F80800A16908F1010808EB2C
:1013F000050202EB0A00081AA0612078C00602D498
:101400002046FFF71DF9216A08AE01EB0A002062B1
:1014100004E0D4E9012116F8010B9047BAF1010A62
:10142000F7D22078C00602D52046FFF709F96E46AC
:1014300009E016F8010B3E280FD0D4E901219047AE
:10144000206A401C2062B8F10108F2D22046FFF762
:101450000DF909B00320BDE8F08F206A284420620E
:1014600003E0D4E90121302090476D1EEBD3F8E76B
:101470001D84000002FCFFFF10B5436913B1AFF3F8
:10148000008001E0FFF715F9012010BD127800F18E
:1014900024010A7000224A700122EDE711684FF022
:1014A000FF32E9E710B5436913B1AFF3008001E003
:1014B000FFF79EF9012010BD128800F124018284FB
:1014C0000022C2840122EDE711684FF0FF32E9E704
:1014D00070B516460C46054600F044F8036893F8CC
:1014E0000101012806D0FF2C0FD8185D68B101203A
:1014F0002C7070BDD3F807013246214603F2071362
:1015000003442846BDE8704018474FF0FF3070BDD7
:1015100000487047645900207546FFF7F9FFAE4652
:1015200005006946534620F00700854618B020B5EF
:10153000FEF73EFFBDE820404FF000064FF00007E9
:101540004FF000084FF0000B21F00701AC46ACE86B
:10155000C009ACE8C009ACE8C009ACE8C0098D46D8
:101560007047000010B500F005F8001D10BD00BF69
:10157000AD7E000000487047845900202DE9F041FD
:101580001F46044603260168072A01F4006004DBB5
:1015900008B116A505E016A503E008B115A500E001
:1015A00015A521F010002060A069C01EA0610FB138
:1015B000401EA0612046FFF743F84FB1D4E9012156
:1015C00038469047206A401C2062C01C206206E01A
:1015D000206AFAE7D4E9012115F8010B9047761E3D
:1015E000F8D22046FFF742F8BDE8F0814E414E00A8
:1015F0006E616E00494E4600696E66002DE9F04747
:10160000814616468AB0354878440DC88DE80D00ED
:1016100032487844801C03AC0DC884E80D0041F6C4
:101620009B300844372190FBF1F290FBF1F5A5F1D6
:10163000800501FB12041B3C02D56442012000E03E
:101640000020DFF898A080460027FA44AAF1BE0ADD
:101650000EE0E0070AD03246684607EB4701012357
:101660000AEB810100F01EFB8DE8070064107F1C6F
:10167000002CEED1194F7F44AE3F19E0E80715D09A
:1016800007EB04100DF1180A90E80E008AE80E002E
:10169000C068F04201D1981908903246012306A98A
:1016A00003A800F0FFFA03AB83E807006D10641C89
:1016B000002DE3D14FF0010332466946B8F1000F27
:1016C00003A802D000F0D9FA01E000F0EBFAC9E972
:1016D0000001C9F808200AB0BDE8F08728810000A1
:1016E00010B50446AFF300802046BDE81040FEF779
:1016F000EABD00004FF0013C50F8042B51F8043BC8
:101700009A4221D1A2EB0C03934313EACC1317D1D5
:1017100050F8042B51F8043B9A4215D1A2EB0C036C
:10172000934313EACC130BD150F8042B51F8043B2C
:101730009A4209D1A2EB0C03934313EACC13DBD0FA
:101740004FF00000704700BFD01A01BAB1FA81F122
:1017500001F0180122FA01F0CB40C1F12001DBB207
:10176000C0B2C01A2CFA01F3D11A914311EAC31185
:10177000E6D1704701491820ABBEFEE72600020003
:1017800070475FEA400C08BF91F0000F4FEA8C23CE
:101790004FEAC12243EA51514FEA1C5018BF00F5ED
:1017A000F0404FEA300018BF41F000415FEA6C5C46
:1017B00000F02980BCF1FF3F08BF40F08040704737
:1017C000130C06BF12044FF0100C4FF0000C130E58
:1017D00004BF12020CF1080C130F04BF12010CF12C
:1017E000040C930F04BF92000CF1020CD30F04BF42
:1017F00052000CF1010C11464FF00002A0F11F0045
:10180000A0EB0C00704711F0004F08BF704731F09B
:1018100000413FF4D5AF0B0C06BF09044FF0100C8C
:101820004FF0000C0B0E04BF09020CF1080C0B0F5B
:1018300004BF09010CF1040C8B0F04BF89000CF1EB
:10184000020CCB0F04BF49000CF1010CCCF12003BA
:10185000A0EB0C0022FA03F302FA0CF241EA0301B6
:1018600000F10100704720F07F4C80EA030023F074
:101870007F47ACEB070303F57C5300F0004003F116
:10188000FF032DE980494FEA154B09B44FEA144391
:1018900025EA0B4E24EA03480FF2042606EB132731
:1018A00049083E785FEA320203FB0667C7F5000786
:1018B00007FB06F64FEA54374FEAD64606F1020612
:1018C00007FB066CCCF1005C4FEA1C472CEA074C86
:1018D00007FB06F40CFB06F504EB15464FEA9616DB
:1018E00034BF00204FF000404FEAD13706FB07FC21
:1018F0004FEA1C4C0CFB0BF7D21B03FB0CF761EB04
:1019000007010CFB0EF7B0EB074072EB17420CFB24
:1019100008F734BFA2EB0742B2EB074261EB174175
:101920004FEA0C444FEA910706FB07FC4FEA1C4CB8
:101930000CFB0BF7B0EBC74072EB573203FB0CF715
:1019400034BFA2EBC742B2EBC74261EB57310CFB8D
:101950000EF7B0EBC70072EB57720CFB08F734BF01
:10196000A2EBC702B2EBC70261EB5771039F4FEACC
:10197000816141EA921104EBCC044FEAD1374FEA7E
:10198000826206FB07FC42EA90124FEA80604FEA4F
:101990001C4C0CFB0BF7D21B03FB0CF761EB070194
:1019A0000CFB0EF7B0EB074072EB17420CFB08F78D
:1019B00034BFA2EB0742B2EB074261EB17414FEA9B
:1019C0008C554FEA910704EB9C2406FB07FC4FEA79
:1019D0001C4C0CFB0BF7B0EBC74072EB573203FB10
:1019E0000CF734BFA2EBC742B2EBC74261EB5731F1
:1019F0000CFB0EF7B0EBC70072EB57720CFB08F74D
:101A000034BFA2EBC702B2EBC70261EB577115EB13
:101A10004C254FEA816141EA92114FEA82624FEA16
:101A2000D13742EA901206FB07FC44F100044FEA6A
:101A300080604FEA1C4C0CFB0BF7D21B03FB0CF72E
:101A400061EB07010CFB0EF7B0EB074072EB17429E
:101A50000CFB08F734BFA2EB0742B2EB074261EB85
:101A6000174115EB1C154FEA813141EA92414FEACB
:101A7000823242EA90424FEA80304FEA0C7644F1DB
:101A8000000448EA03434EEA0B484FF0000EB2EB65
:101A9000080C71EB030724BF624639464EEB0E0E6D
:101AA0004FF0000B0018524149414BEB0B0BB2EBCE
:101AB000080C71EB03077BF1000B24BF624639462B
:101AC0004EEB0E0E4FF0000B0018524149414BEB0C
:101AD0000B0BB2EB080C71EB03077BF1000B24BF7F
:101AE000624639464EEB0E0E51EA020718BF46F029
:101AF000010616EB0E7655F1000254F1000103D5F4
:101B0000BDE88901BDE80088BDE88901BDE800485D
:101B1000B619524141EB0101A3F1010370478080E6
:101B20007F7E7D7C7B7A7978777676757473727137
:101B300071706F6E6E6D6C6C6B6A6A6968686766EF
:101B400066656464636362616160605F5F5E5E5D81
:101B50005D5C5C5B5B5A5A595958585757565655F5
:101B600055555454535352525251515050504F4F57
:101B70004F4E4E4D4D4D4C4C4C4B4B4B4A4A4A49A7
:101B800049494848484747474746464645454544EA
:101B90004444444343434342424242414141002B77
:101BA0009C4630D477002BD01CB54FEA370703B4DE
:101BB0004FF010004FF01001BAF1000F06D0BCF149
:101BC000000FDCBF40F0080040F008014FF00000BB
:101BD0000FBCBDE810400BF1010BBBF1010F08BFBA
:101BE0005FEA170722BF12F1010211F101014FF064
:101BF000004143F1000300F0004043EA0000704759
:101C0000F9D35708D0E746EA064613F1400F4FEAEA
:101C100016461FDD13F1200FDFBF16430A460021D1
:101C200020335B42BED0C3F1200746EA064602FAE3
:101C300007F74FEA164646EA0706C3F1200722FADD
:101C400003F201FA07F721FA03F14FF0000342EA29
:101C50000702A7E746EA020646EA06464FEA1646A4
:101C600046EA0106BCBF46EA0646360C4FF00003C2
:101C70004FF000024FF0000194E72DE9804C9A46A6
:101C8000934670B491E8380007C831EA400C48BF69
:101C900034EA430C03D5FFF7E6FDFFF780FFF0BC05
:101CA000BDE8008C2DE9804C9A46934670B491E8CB
:101CB000380007C810F0804F08BF13F0804F03D1E1
:101CC00000F005F8FFF76BFFF0BCBDE8008C20F0DA
:101CD0007F4780EA030023F07F4C07EB0C03A3F55A
:101CE0007C5300F00040A3F1FE0392F0000F00F0DF
:101CF000B38095F0000F00F077802DE901494FEA9D
:101D000011404FEA144621EA004800FB06FC24EA91
:101D1000064708FB06F607FB08F800FB07F718EB79
:101D200006484CEB164C4FEA124B18EB07484FEAAB
:101D300015464CEB174022EA0B4E0BFB06FC25EA3E
:101D400006470EFB06F607FB0EFE0BFB07F71EEB26
:101D5000064E4CEB164C4FF000061EEB074E4CEBBC
:101D6000174B18EB0B0840F1000018EB0E0B58EB6B
:101D7000000840F100008F1A4FF000013CBFC9433A
:101D8000661B14BFB5EB040C00213CBFC943F61B16
:101D90004FEA17444EEA8E0E27EA04454FEA1C47E5
:101DA00004FB07622CEA074C05FB07F70CFB05F662
:101DB00004FB0CFC16EB074642EB174216EB0C46F5
:101DC00042EB1C421BEB060658EB0202414146EA7D
:101DD0009E0601D5BDE80189B619524141EB0101CA
:101DE000A3F10103BDE801894FEA14454FEA114709
:101DF00024EA054621EA074C05FB07F406FB07F732
:101E00000CFB06F105FB0CFC11EB074144EB1744FE
:101E10004FEA124711EB0C4144EB1C4422EA074CF9
:101E200005FB07F206FB07F70CFB06F605FB0CFCAF
:101E300016EB074642EB174216EB0C4642EB1C45ED
:101E40006A1854F1000148BF7047B619524141EB7E
:101E50000101A3F10103704795F0000F37D04FEA5D
:101E600011424FEA144721EA024624EA074C02FBDA
:101E700007F106FB07F70CFB06F402FB0CFC14EB66
:101E8000074441EB17414FEA154714EB0C4441EB73
:101E90001C4125EA074C02FB07F506FB07F70CFB84
:101EA00006F602FB0CFC16EB074645EB174516EB56
:101EB0000C4645EB1C42121951F1000148BF704716
:101EC000B619524141EB0101A3F1010370474FEAFA
:101ED00014454FEA114724EA054621EA074C05FB61
:101EE00007F106FB07F70CFB06F24FF0000605FBB7
:101EF0000CFC12EB074241EB174112EB0C4251EB89
:101F00001C4148BF7047921841EB0101A3F1010346
:101F10007047FEE7014800F075B80000B80C0020DB
:101F2000014800F06FB80000180D00200168182368
:101F3000CAB2103AB2FBF3F2054B6FF30901032A60
:101F40009B5CC36500D9091D816508467047000088
:101F50000C96000810B5014600208B698A6A4FF084
:101F6000C07453B1B3F5005F15D072B1012A0CD023
:101F7000022A0AD0032A09D104E01AB1012A06D0A4
:101F8000022A03D1C96AC90100D5012010BDC96A5E
:101F9000A142FAD010BD002AF7D0012AF2D0022ABD
:101FA000F3D0032AF3D010BD30B50468256825F4BA
:101FB00080252560046863608368402B036803D034
:101FC00099600068C26030BD9A600068C16030BD31
:101FD000704772B6FEE790F83510022903D08021D1
:101FE000416501207047052180F8351000680168BF
:101FF00021F00101016000207047406D704790F8AA
:10200000350070472DE9F84304464FF00009CDF83C
:10201000009063484FF41651A56D0068B0FBF1F7CE
:102020002E6894F85C10082000FA01F131420FD0BC
:1020300021680A6852070BD50A6822F004020A6078
:1020400094F85C108840A860606D40F00100606505
:1020500094F85C104FF0010808FA01F0304208D003
:1020600021684969090604D5A860606D40F0020046
:10207000606594F85C1004208840304208D02168E4
:102080000968890704D5A860606D40F004006065A8
:1020900094F85C1010208840304218D021680968FC
:1020A000090714D5A86020680168490304D50068B1
:1020B000000308D5A16C07E00168C90503D40168D5
:1020C00021F008010160216C09B12046884794F88D
:1020D0005C1020208840304231D021680968C90650
:1020E0002DD5A86094F8350005282068016806D031
:1020F000490347D5006800031DD4616C1CE021F042
:10210000160101602068416921F080014161206C65
:1021100008B9A06C20B12068016821F008010160B5
:1021200094F85C103F208840A86084F8358084F8DB
:102130003490216D1FE0E16B09B120468847606D46
:1021400000282BD0606DC00714D0052084F835001E
:102150002068016821F0010101600098401C009096
:10216000B84203D820680068C007F6D184F83580EB
:1021700084F83490E16C002910D001B02046BDE80D
:10218000F04308470168C905D5D4016821F0100162
:10219000016084F8358084F83490CCE7BDE8F8839A
:1021A000500000202DE9F041044600F0ADF906464C
:1021B0005CB1022084F83500002584F83450206892
:1021C000016821F0010101600DE00120BDE8F0810E
:1021D00000F09AF9801B052805D9202060650320AE
:1021E00084F83500F2E720680068C007F0D1226863
:1021F000116820480140D4E901031843D4E90336AB
:102200003343184363691843A3691843E3691843C8
:10221000236A18430843616A042903D1D4E90B13E4
:1022200019430843106020684069666A20F007017E
:1022300030460E43012704280CD1A06A0643E06A09
:1022400040B12046FFF786FE20B14020606584F84B
:102250003570BAE7206846612046FFF767FE94F8BC
:102260005C203F2191408160656584F835700020D5
:10227000ACE700003F8010F02DE9F0410446866D88
:1022800090F83400002501280DD0012084F8340096
:1022900094F835700020012F07D084F8340002250F
:1022A0002846BDE8F0810220FBE7022784F835705C
:1022B00060652046FFF778FE94F85C103F20884068
:1022C000B0602068016841F016010160206C20B107
:1022D0002068016841F0080101602068016841F050
:1022E00001010160DCE7000070B5044600F00CF964
:1022F0000546601C02D004480078044400F004F94C
:10230000401BA042FAD370BD440000202DE9F84FD5
:10231000DFF8BCA10022012503264FF00F090AF1C6
:10232000040BAAF1040E00BF0B6805FA02F4234067
:10233000A34270D10F7907F00307012F01D0022FBC
:1023400016D187684FEA420806FA08FC27EA0C070C
:10235000D1F80CC00CFA08FC4CEA070CC0F808C015
:102360004768A7430C79C4F3001494403C4344608D
:102370000C79E443A4070AD0C4684FEA420C06FA79
:102380000CF7BC438F6807FA0CF72743C7600C793A
:1023900004F00304022C12D1D40800EB840CDCF806
:1023A00020405707FF0E09FA07F824EA0804D1F87D
:1023B000108008FA07F848EA0408CCF8208004687E
:1023C0004FEA420C06FA0CF7BC430F7907F00307FB
:1023D00007FA0CF7274307604C6814F4403F70D0AD
:1023E0003C4C276847F480472760246822F00307A5
:1023F00004F480440094384C07EB040CDCF80848E3
:1024000097074FEA177809FA08F7BC43334FB842E9
:1024100002D1002724E054E0314FB84201D1012716
:102420001EE0304FB84201D1022719E02E4FB842CA
:1024300001D1032714E02D4FB84201D104270FE04A
:102440002B4FB84201D105270AE02A4FB84201D1EB
:10245000062705E0284FB84201D1072700E00827EA
:1024600007FA08F72743CCF80878DAF8004057460F
:10247000D1F804C09C435FEACC2C00D51C433C60DF
:10248000DBF800405F46D1F804C09C435FEA8C2C27
:1024900000D51C433C60DEF800407746D1F804C00C
:1024A0009C435FEA8C3C00D51C433C60084F083FCE
:1024B0003C68D1F804C09C435FEACC3C00D51C4387
:1024C0003C60521C102AFFF42FAFBDE8F88F0000CB
:1024D000083C014044380240003001400000024006
:1024E0000004024000080240000C024000100240BC
:1024F0000014024000180240001C02400AB1816131
:1025000070470904FBE7000001488068704700003D
:1025100044000020704770472DE9F04101680446EF
:102520004A694E6890F83E000025D743FA0506D464
:10253000F243D20503D46FF4807201254A61B905D4
:1025400008D4F143C90505D422686FF4007145F041
:1025500002055161790525D4F143C90522D4638D63
:1025600094F83D10226B202808D13BB9212910D0C6
:1025700029290ED0282901D1212A0AD022686FF4F6
:102580008061516145F00405102806D0402804D030
:1025900008E0204602F036FB04E02068016841F4C0
:1025A00000710160380508D4F043C00505D42168E6
:1025B0006FF4006045F008054861002D07D0206CDD
:1025C000284320642046BDE8F04101F0B7BEBDE8D5
:1025D000F0812DE9F047026800215368C66A90F83F
:1025E0003E4090F83D50102C12D0402C10D0046C7E
:1025F000002C7DD05469E443A6077AD4DE43B605A7
:1026000077D4036C03B19169BDE8F04702F0D6BA04
:10261000976951694FF42A0CC9435FEAC1784FF0BA
:102620002A4904D066452AD04E4528D010E0DE4322
:10263000B6050DD4C16A614501D1012103E0C16A2B
:10264000494501D10821C162BDE8F04702F04AB90D
:102650000E0716D4DE43B60513D4416CC9B211611E
:10266000416B09B1C96B29B9816B002907D0C96BCE
:10267000002904D00068416841F400614160BDE870
:10268000F0878E0706D4DE43B60503D4BDE8F047D5
:1026900002F09CB8FE43526876074FEA02521DD4FE
:1026A000002AECDB0A0608D4DA43520505D44907B0
:1026B00005D5BDE8F04702F02DB84907DFD4D9436E
:1026C0008905DCD4212D05D0402CD8D1BDE8F047B8
:1026D00002F04EB9BDE8F04701F0DABF002ACEDBC8
:1026E0004A060BD4DA43520508D4490708D501E05D
:1026F0000DE00EE0BDE8F04701F050BF4907BED441
:10270000D9438905BBD4BDE8F04701F0DABE916931
:1027100070E7E10606D4D943890503D4BDE8F04744
:1027200002F0B8BA2821212D27D0292D25D0650601
:1027300055D4DD436D0552D4640752D590F83D3031
:10274000448D002C9BD01269446A2270426A521C4C
:102750004262428D521E4285428D002A8FD12A2B21
:102760008DD10268536823F4806353602222026390
:1027700080F83D1000F02CFC81E7250623D4DD43D2
:102780006D0520D4640720D590F83D30448D002C91
:10279000F2D0446A24781461426A521C4262428D2B
:1027A000521E4285428D002AE6D1292BE4D10268CF
:1027B000536823F4806353602122026380F83D1044
:1027C00000F007FC5BE76107D6D4D9438905D3D471
:1027D000418D0029D0D0416A097811610AE0610772
:1027E000CAD4D9438905C7D4418D0029C4D0116901
:1027F000426A1170416A491C4162418D491E4185FE
:102800003DE7704770B5040025D094F83D000025E1
:1028100020B984F83C50204600F060FB242084F866
:102820003D002068016821F0010101602068016815
:1028300041F4004101602068016821F40041016019
:1028400000F04CFD4D4A6168914201D84C4900E0CE
:102850004C49884201D2012070BD4B492368B0FB2E
:10286000F1F15E6826F03F060E435E6063689342B6
:1028700006D94FF4967359434FF47A73B1FBF3F1D1
:102880002368491C1E6A26F03F06314319626168BD
:10289000914210D84900401EB0FBF1F2521CC2F325
:1028A0000B02042A01D2042022E0B0FBF1F0401C0C
:1028B000C0F30B001CE0A268F2B301EBC10303EB11
:1028C0000116431EB3FBF6F35B1C43F480431B0568
:1028D00049D092B301EBC10202EB0111401EB0FBE3
:1028E000F1F0401CC0F30B0040F4804040F4004085
:1028F0002168CA694CF6FF739A431043C861D4E952
:10290000071001432068026822F0C00211430160F1
:10291000D4E9030101432068826848F2FF339A43F7
:1029200011438160D4E9050108432168CA6822F097
:10293000FF021043C86001E00EE016E02068016865
:1029400041F0010101602564202084F83D002563E9
:1029500084F83E50002070BD01EB4106431EB3FBDE
:10296000F6F35B1CB3E70120C2E701EB4101401E17
:10297000B0FBF1F0401CC0F30B00B7E7A0860100EC
:1029800080841E0000093D0040420F0070477047E0
:102990007047000008B500680C49884215D102F064
:1029A0005BFC002000900A48006800280DD06946B2
:1029B00006F0F3F80098002807D006494FF0805041
:1029C0000860BFF34F8FBFF36F8F08BD0054004006
:1029D0003400002004ED00E0704700002DE9FF4FB7
:1029E00083B09A46DDE9118793460446DDF84090AE
:1029F000FFF78AFD054694F83D00202870D1192381
:102A0000012274492046009502F01EFA0028F5D1F3
:102A100094F83C00012863D0012084F83C00206831
:102A20000168C90703D1016841F001010160206814
:102A3000016821F400610160222084F83D004020FB
:102A400084F83E0000262664C4F82490A4F82A8066
:102A5000608D20856048E062CDE9007553465A4696
:102A60002046049901F0D8FF002879D1208DD0B1FB
:102A7000012821D00228206824D041698069009073
:102A8000208D032866D801282BD0544902283B46C4
:102A90004FF00002009557D08846204602F0D4F946
:102AA00000285DD13AE020684169816900910168A0
:102AB00041F4007101607DE02068016821F48061CB
:102AC0000160F0E7016821F480610160206801681D
:102AD00041F400610160206841698069009069E00B
:102AE00075E02A463946204602F054FA88BB54E085
:102AF0002068016841F40071016020680069616A22
:102B00000870606A401C6062218D491E2185618DBC
:102B1000491E618521680969017042E020680168E9
:102B200021F48061016020680069616A0870606A50
:102B3000401C6062208D401E2085608D401E608597
:102B40003B46002241460095204602F07DF900B93F
:102B5000CEE705E02A463946204602F01BFA18B1B6
:102B6000012007B0BDE8F08F20680069616A087035
:102B7000606A401C6062208D401E81B22185608D9C
:102B8000401E608520684269D243520712D403294F
:102B900003D1016821F48061016020680069616AE5
:102BA0000870606A401C6062208D401E2085608D28
:102BB000401E6085208D00287FF462AF202084F8BD
:102BC0003D0084F83E6084F83C600020C9E70220A4
:102BD000C7E70000020010000000FFFF0400010032
:102BE0002DE9FC5F994692468B460446DDF830801D
:102BF000FFF78AFC00250646009594F83D00202842
:102C000028D1664846F2A81120270068B0FBF1F0F1
:102C100000EBC00101EB001000900098401E0090F6
:102C200010D020688069C0438007F6D594F83C0036
:102C300001280FD0012084F83C0020680168C907F2
:102C40000BD00EE044F8305F6773A573206940F045
:102C5000200020610220BDE8FC9F016841F00101D5
:102C600001602068016821F400610160222084F87D
:102C70003D00402084F83E002564C4F824800D986F
:102C80006085608D20854648E062C4F844B0C4F891
:102C900048A0C4F84C902565208D4FF023080028EB
:102CA00063D0A06B00B33F49C163A16B3E48C864C9
:102CB000A06B0564A06B4564A06B8564A06B056583
:102CC0002168238D1031626AA06BFFF7D5FAA0B19D
:102CD00084F83D7084F83E5054F8400F40F01000E6
:102CE00044F80409257049E084F83D7084F83E50AA
:102CF00054F8400F40F08000F2E7CDE900864B46E3
:102D000052465946204601F087FE88B1A06BFFF776
:102D100062F9A06BC5632068016821F480610160DD
:102D2000258565852068016821F00101016025E0A5
:102D3000208D0128206813D0416841F48051416002
:102D4000206841698169009184F83C50416841F4F0
:102D5000807141602068416841F4006141601BE07E
:102D6000016821F480610160EAE7CDE900864B4605
:102D700052465946204601F04FFE08B101206AE74D
:102D80002068416981690091016841F40071016026
:102D900084F83D7084F83C5000205CE7500000202F
:102DA0000000FFFF19420008D94100082DE9FF4F3C
:102DB00083B09A46DDE9119793460446DDF84080DA
:102DC000FFF7A2FB054694F83D0020287FD1192388
:102DD000012240492046009502F036F8002876D1BD
:102DE00094F83C00012872D0012084F83C0020684F
:102DF0000168C90703D1016841F001010160206841
:102E0000016821F400610160212084F83D00402028
:102E100084F83E0000262664C4F82480A4F82A9092
:102E2000608D20852C48E062CDE9007553465A46F6
:102E30002046049901F06EFE70B930E02A4639460A
:102E4000204602F0DFF858B1206C042804D1206835
:102E5000016841F400710160012007B0BDE8F08F06
:102E6000606A216800780861606A401C6062218D98
:102E7000491E89B22185628D521E6285226853697E
:102E8000DB435B070BD469B100781061606A401CBA
:102E90006062208D401E2085608D401E6085208DE3
:102EA0000028CBD12A463946204601F0A1FF002850
:102EB000CAD154F83D0B016841F400710160202033
:102EC00004F81E09E67766770020C6E7FFE70220D0
:102ED000C3E70000020010000000FFFF2DE9F041F1
:102EE00086B0064614216846FDF775FB3349306805
:102EF000884260D132480024016841F0020101603B
:102F00000068694600F0020005904FF440700090A0
:102F10001220CDE9010403200390042004902948E5
:102F2000FFF7F4F926481030016841F40011016000
:102F30000068264D00F400100590234828604705DE
:102F4000C5E901744FF48068C5E903486C61AC6160
:102F5000EC612C6228466C62FFF724F908B1FFF798
:102F600038F8B563AE63194D174860359030E5E821
:102F700002074020A5E81101144845F814496030C3
:102F8000AC61EC612C626C62FFF70CF908B1FFF7E1
:102F900020F87563002206211F20AE6300F0B2F80E
:102FA0001F2000F0A1F800220621202000F0AAF83E
:102FB000202000F099F806B0BDE8F08100540040F0
:102FC000303802400004024010600240B80C00207B
:102FD00070477047024881680278114481607047E9
:102FE000440000200B4810B5016841F400710160F5
:102FF000016841F480610160016841F48071016001
:10300000032000F09FF80F2000F006F800F050F8C1
:10301000002010BD003C024030B505461F4887B077
:103020000024016841F480710160006806A900F481
:103030008070009001A800F031F90498A8B100F068
:103040004DF940001649174AB0FBF1F11648491EE8
:10305000026040F2E732C0E90324C0E90114846150
:1030600000F0B6FB040003D015E000F037F9E9E703
:103070000D4800F0DBFB04000DD12D2000F034F8EA
:10308000102D07D2002229462D2000F03BF80748DA
:10309000056000E0012407B0204630BD4038024002
:1030A00040420F000020004048100020480000204F
:1030B0000C4882B0016841F480410160006800F46E
:1030C000804000900748001F016841F08051016076
:1030D0000068002200F0805000900F21901E02B086
:1030E00000F010B844380240002809DB00F01F024D
:1030F000012191404009800000F1E020C0F800115A
:1031000070470000F0B40E4B1B680C46C3F302235B
:10311000C3F10705042D00D90425191D072901D283
:10312000002300E0DB1E012606FA05F1491E2140BE
:1031300099409E40761E16403143F0BC03F009BC16
:103140000CED00E0064900F0070208684FF6FF03A7
:10315000184040EA0220034A10430860704700000C
:103160000CED00E00000FA052DE9F0470E460500E1
:1031700065D0DFF81481D8F80000F7B200F007003E
:10318000B04207D288F80070D8F8000000F00700BD
:10319000B04254D128683D4C810712D5400703D571
:1031A000206840F4E05020602878000703D52068AC
:1031B00040F4604020602068A96820F0F0000843D7
:1031C00020602878C0072DD0304968680839012868
:1031D00012D0022813D0032811D0096889070029CA
:1031E0002DDA216821F0030101432160FFF78CF9FA
:1031F000814641F2883A0EE009688903EFE70968E1
:103200008901ECE7FFF780F9A0EB0901514502D9EC
:103210000320BDE8F0872068696800F00C00B0EB7F
:10322000810FEFD1D8F80010404601F00701B142FC
:1032300007D90770006800F00700B04201D00120F4
:10324000E7E72878400705D52068E96820F4E050D2
:10325000084320602878000706D52068296920F4F3
:10326000604040EAC100206000F058F82168084A38
:10327000C1F30311515CC840064908600648006864
:10328000FFF7CAFE0020C4E7003C024008380240B5
:103290001496000850000020480000200F22026011
:1032A0000C4A136803F003034360136803F0F00350
:1032B0008360136803F4E053C36012684FF4E05373
:1032C00003EAD20202610448006800F007000860C7
:1032D0007047000008380240003C0240044805499D
:1032E00000680968044AC1F38221515CC8407047F4
:1032F0005000002008380240249600080448054980
:1033000000680968044AC1F34231515CC840704703
:10331000500000200838024024960008154810B5D7
:10332000006810F00C02144813D04110042A0FD08A
:10333000082A0ED10F4C241F2268236802F03F0296
:103340005B0207D52068C0F38810A0FB010106E0EE
:10335000084610BD2168C1F38811A1FB00010023BC
:10336000FDF738F82168C1F30141491C4900B0FB61
:10337000F1F010BD083802400024F4002DE9F84FA8
:1033800004006ED02078DFF84C93C007A9F1040543
:103390004AD009F104000168C1F38101012908D074
:1033A0000068C0F3810002280AD1D9F80000400269
:1033B00006D52868800337D560680028E1D033E05F
:1033C0006068B0F5803F10D0B0F5A02F286810D00D
:1033D00020F480302860286820F48020286060680D
:1033E000A8B1FFF791F806460DE0286840F4803058
:1033F000F4E740F480202860F7E700BFFFF784F887
:10340000801B642873D828688003F7D50CE0FFF789
:103410007BF8064605E000BFFFF776F8801B6428BE
:10342000F0D828688003F7D42078DFF8AC828007D2
:103430004FF0000A3ED5A748001D016811F00C0F9F
:1034400008D00068C0F3810002280BD1D9F8000031
:10345000400207D42868800716D5E068012800D10B
:1034600012E033E1E068B8B10120C8F80000FFF7CE
:103470004BF8064605E000BFFFF746F8801B022820
:10348000C0D828688007F7D52868216920F0F8009F
:1034900040EAC10028600DE0C8F800A0FFF734F84A
:1034A000064604E0FFF730F8801B02281FD8286882
:1034B0008007F7D42078000722D5864F87486169B6
:1034C000703771B101210160FFF71EF8064604E074
:1034D000FFF71AF8801B022809D838688007F7D54B
:1034E0000EE0C0F800A0FFF70FF8064605E082E006
:1034F000FFF70AF8801B02287DD838688007F7D4C8
:103500002078400768D5DFF8CCB100270BF13C0BE1
:10351000DBF80000C0000BD4DBF8001041F0805154
:10352000CBF80010DBF80000012700F0805000907D
:103530006B4E3068C00510D4306840F48070306045
:10354000FEF7E2FF009005E0FEF7DEFF0099401A6B
:10355000022850D83068C005F6D55E4EA0686C369B
:1035600001280FD00528306810D020F0010030600D
:10357000306820F004003060A068B8B1FEF7C4FFE6
:1035800000900FE0306840F00100F4E740F00400E4
:103590003060F7E7FEF7B8FF0099411A41F2883032
:1035A000814266D830688007F4D50EE0FEF7ACFFA4
:1035B000009007E0FEF7A8FF0099411A41F2883019
:1035C000814256D830688007F4D42FB1DBF8001060
:1035D00021F08051CBF80010A069C8B33D49091D06
:1035E0000968C1F3810102294AD00228504607D058
:1035F000C8F8600000E03CE0FEF786FF04463BE0D0
:103600004746C8F86000FEF77FFF064605E000BFAA
:10361000FEF77AFF801B02282BD828688001F7D498
:10362000D4E907010843A16A2E4A490802EB014187
:10363000626A41EA8211084394F82C1040EA016161
:10364000C9F8001001203866FEF75EFF044606E068
:103650003EE000BFFEF758FF001B022809D828688B
:103660008001F7D534E000BFFEF74EFF001B0228B3
:1036700002D90320BDE8F88F28688001F4D427E040
:103680000128F7D0D9F80000E26900F480019142E6
:103690001CD1226A00F03F01914217D147F6C07158
:1036A000626A0140B1EB821F10D1A26A4FF0FF3372
:1036B00000F4403103EB5202B1EB024F06D194F813
:1036C0002C1000F07060B0EB016F01D00120D1E749
:1036D0000020CFE70438024000004742800E4742F6
:1036E000007000400000FFFF7047704710B590F871
:1036F0003C20012A22D0012280F83C20CA688C6834
:1037000022F4407222434C6822F4806222430C6807
:1037100022F4006222430C6922F4805222434C6955
:1037200022F400522243C969002322F480420A4352
:1037300001684A6480F83C30002010BD022010BDB2
:1037400070B590F83C20012A32D0012480F83C402A
:10375000022280F83D2003685A689D6822F07006B6
:103760000A6832435A60134B02689A4214D0B2F18D
:10377000804F11D0104B9A420ED0104B9A420BD072
:103780000F4B9A4208D00F4B9A4205D00E4B9A42EB
:1037900002D00E4B9A4204D1496825F080031943A8
:1037A000916080F83D40002180F83C10084670BDD3
:1037B000022070BD000001400004004000080040ED
:1037C000000C00400004014000400140001800408F
:1037D00010B5040003D094F83D0010B107E00120BB
:1037E00010BD002084F83C00204600F01EF80220A6
:1037F00084F83D00211D206802F060FE012084F85D
:10380000460084F83E0084F83F0084F8400084F8C5
:10381000410084F8420084F8430084F8440084F8AE
:10382000450084F83D00002010BD704790F83D1021
:10383000012901D001207047022180F83D10016864
:10384000CA6842F00102CA6000681149884214D077
:10385000B0F1804F11D00F4988420ED00E498842F6
:103860000BD00E49884208D00D49884205D00D4939
:10387000884202D00C49884204D1816801F00701D6
:10388000062903D0016841F0010101600020704762
:10389000000001400004004000080040000C00400F
:1038A00000040140004001400018004070472DE92D
:1038B000F04104460068C66805694FF00007A90793
:1038C00013D5B10711D5F91E0161012020772068B9
:1038D00080698007204602D0FFF7E8FF04E000F08F
:1038E0004EF9204600F06CFA2777680716D5700766
:1038F00014D521686FF00400086102202077206849
:10390000806910F4407F204602D0FFF7CFFF04E02B
:1039100000F035F9204600F053FA2777280715D52F
:10392000300713D521686FF0080008610420207764
:103930002068C0698007204602D0FFF7B7FF04E087
:1039400000F01DF9204600F03BFA2777E80616D56F
:10395000F00614D521686FF0100008610820207768
:103960002068C06910F4407F204602D0FFF79EFF18
:1039700004E000F004F9204600F022FA2777E80777
:1039800008D0F00706D021686FF0010008612046DA
:1039900000F07CFA280608D5300606D521686FF0BD
:1039A000800008612046FFF79FFE680608D5700674
:1039B00006D521686FF040000861204600F070FADB
:1039C000A8060AD5B00608D521686FF02000086166
:1039D0002046BDE8F041FFF788BEBDE8F081000059
:1039E00070B586B0044614216846FCF7F4FD2268E1
:1039F0000024434902254348B2F1804F0CD0424B8A
:103A00009A422FD10A6842F001020A60096801F067
:103A100001010591402143E00A6842F001020A6079
:103A20000A6802F0010205920A6842F002020A6086
:103A30000968012601F00201059107210091CDE9F5
:103A40000154CDE903466946FEF760FCF0020090A0
:103A5000CDE90154CDE9034669462C48FEF756FCF2
:103A600006B070BD2A4B9A420ED1086840F008009B
:103A700008600868694600F00800059090140090FE
:103A8000CDE9015423480FE0234B9A420FD10A6835
:103A900042F001020A60096801F001010591082164
:103AA0000091CDE901546946CDE90345D6E71B4BAA
:103AB00003209A4210D10A6842F004020A600968A1
:103AC00001F00401059199150091CDE90154CDE96A
:103AD000034069461248C1E7124B9A42C0D10A68B6
:103AE00042F010020A60096801F0100105912021DE
:103AF0000091CDE90154CDE9034069460A48ADE79C
:103B0000303802400000024000040040000402403F
:103B100000080040000C0240000C0040000401407E
:103B200000080240004001400010024070B5044609
:103B300090F83C00002501280FD0012084F83C00BB
:103B40006AB1042A0FD0082A11D00C2A13D00125FB
:103B5000002084F83C00284670BD022070BD20681B
:103B600002F022FDF4E7206802F04EFDF0E7206845
:103B700002F080FDECE7206802F0B0FDE8E7704756
:103B800010B5040003D094F83D0010B107E0012007
:103B900010BD002084F83C00204600F01EF80220F2
:103BA00084F83D00211D206802F088FC012084F883
:103BB000460084F83E0084F83F0084F8400084F812
:103BC000410084F8420084F8430084F8440084F8FB
:103BD000450084F83D00002010BD704770B50446D4
:103BE00090F83C0000260D4601280FD0012084F8F3
:103BF0003C006AB1042A1DD0082A2FD00C2A3FD0DD
:103C00000126002084F83C00304670BD022070BDC3
:103C1000206802F0C9FC2068816941F008018161D7
:103C20002068816921F004018161206881692A6925
:103C3000114311E0206802F0E7FC2068816941F43B
:103C4000006181612068816921F48061816120685F
:103C500081692A6941EA02218161D2E7206802F084
:103C600009FD2068C16941F00801C1612068C1698E
:103C700021F00401C1612068C1692A69114311E082
:103C8000206802F02BFD2068C16941F40061C16128
:103C90002068C16921F48061C1612068C1692A6915
:103CA00041EA0221C161ACE710B5040003D094F8E9
:103CB0003D0010B107E0012010BD002084F83C0059
:103CC000204600F01FF8022084F83D00211D2068E6
:103CD00002F0F4FB012084F8460084F83E0084F8EA
:103CE0003F0084F8400084F8410084F8420084F8E2
:103CF000430084F8440084F8450084F83D00002027
:103D000010BD000008B501682748B1F1804F0BD005
:103D1000264A914210D1016841F002010160006819
:103D200000F00200009008BD016841F0010101604F
:103D3000006800F00100F5E71D4A914207D10168D3
:103D400041F004010160006800F00400EAE7194A4C
:103D5000914207D1016841F008010160006800F05C
:103D60000800DFE71048144A001D914211D1016894
:103D700041F0020101600068002200F002000090A2
:103D80000F212D20FFF7BEF9BDE808402D20FFF7D9
:103D9000ABB90A4A9142C6D1016841F48031016051
:103DA000006800F48030BDE7403802400004004065
:103DB00000080040000C00400004014000400140A9
:103DC0007047000010B50446022249B104290ED004
:103DD000082913D094F84100012816D0012010BD05
:103DE00094F83E000128F9D184F83E200FE094F8C1
:103DF0003F000128F2D184F83F2008E094F8400009
:103E00000128EBD184F8402001E084F84120012210
:103E1000206802F0BBFB16492068164A884201D090
:103E2000904203D1436C43F40043436420688842CA
:103E300013D0B0F1804F10D00F4988420DD00F49F8
:103E400088420AD00E49884207D0904205D00D49D9
:103E5000884202D00C49884204D1816801F00701F0
:103E6000062903D0016841F001010160002010BD66
:103E70000000014000040140000400400008004030
:103E8000000C004000400140001800400068034959
:103E9000884201D1FFF79EB8704700000020004023
:103EA000704770B5040004D094F84100002510B1AB
:103EB00006E0012070BD84F84050204600F024F850
:103EC000242084F841002068C16821F40051C160B9
:103ED000204602F053FC2068016921F49041016101
:103EE0002068416921F02A0141612068C16841F4DC
:103EF0000051C1606564202084F8410084F84200CC
:103F00006563002070BD00002DE9F04786B00446CF
:103F100014216846FCF75FFB4A48494A236800249D
:103F200048491438022503260727DFF81C914FF073
:103F3000C00C934217D10A6842F010020A60096867
:103F400001F010010591016841F002010160006873
:103F5000CDE9024600F00200CDE90470CDE900C5CC
:103F60006946484619E0374ADFF8E080121FDFF85B
:103F7000E0A0434516D1116841F400311160116889
:103F800001F400310591016841F008010160006809
:103F900000F00800059060202DE0FEF7B7F906B0AC
:103FA000BDE8F087DFF8AC8043452CD1116841F4BF
:103FB00080211160116801F480210591016841F0B0
:103FC00002010160016801F002010591016841F000
:103FD00008010160006802AB00F0080005904FF492
:103FE0008060CDE9000583E8D00069464846FEF7C9
:103FF0008DF94FF40070CDE9000502AB694683E806
:10400000D0005046C9E7144A9342C8D10A6842F02A
:1040100020020A60096801F020010591016841F061
:10402000040101600068029400F00400059008207B
:10403000CDE90360CDE900C569460848ADE7000059
:104040000010014044380240000402400044004097
:10405000000C0240004800400014014000080240EB
:104060002DE9F843044690F84100984616460D465F
:10407000202802D00220BDE8F88385B17EB100205F
:104080006064212084F84100FEF73EFAA684814650
:10409000E684A0682027B0F5805F02D003E001200D
:1040A000E9E7206910B12E4600250EE000260CE05D
:1040B0008021204602F0E8FBA8B9C6B116F8010B32
:1040C00021684860E08C401EE084E08C4B464FF055
:1040D0000002CDF800800028EAD14FF040012046D0
:1040E00002F0D2FB40B184F841700320C3E735F8F9
:1040F000020BC0F30800E3E784F841700020BAE740
:10410000FEE700000148FEF707BA0000640C00203B
:104110000148FEF75EBA0000640C002038B5806BE1
:10412000002190F83D202B4B46F2A8141B68B3FBEE
:10413000F4F3C3EBC30303EB830300933BB15B1EB8
:10414000009303681B689B0505D5009BF6E7036C8D
:1041500043F020030364436B03B1D963836B03B162
:10416000D96303681C6824F480641C604185436B38
:1041700003B11965836B03B1196503681C6824F0EA
:1041800001041C6090F83D402023602C0BD02824B3
:1041900034EA02020FD080F83D3080F83E1000BFB4
:1041A000FEF72FFB38BD80F83D3080F83E100164EB
:1041B000FEF7B0F938BD0268136843F001031360DD
:1041C0000268136843F480631360016380F83D4024
:1041D000E6E700005000002070B5846B0025616B9D
:1041E00001B1CD63A16B01B1CD63FDF706FF0228DC
:1041F00011D02068016821F480610160658520206C
:1042000084F83D0084F83E50206C40F0100020649B
:104210002046FEF7F6FA70BD2DE9F041846B94F864
:104220003D2094F83E50E16A2068436823F44073CF
:104230004360636B002003B1D863A36B03B1D86301
:10424000212333EA02074FF022060CD036EA020798
:1042500001D1202D07D094F83E20002A21D0628D74
:10426000012A20D024E021684D6825F400654D60C6
:1042700060852820292A02D02A2A07D00CE023634F
:1042800084F83D002046FEF7A4FE05E0266384F88E
:104290003D002046FEF79CFE2068416841F44071D5
:1042A0004160BDE8F0812268136823F480631360E5
:1042B0002268536823F44073536011F5803F06D0A1
:1042C000082904D0B1F12A4F01D0202904D1226855
:1042D000136843F4007313602268536823F4805317
:1042E00053602268536823F4006353606085226C36
:1042F0001AB12046FEF785FAD3E7202284F83D2044
:1043000094F83E2084F83E00402A09D0082902D0C3
:10431000202900D0122020632046FEF738FBC0E79A
:1043200020632046FEF736FBBBE700684169C943BE
:10433000090601D4002101617047000070B50446F0
:1043400090F83D0094F83E10102901D0402906D184
:10435000222804D121680A6822F400620A60282118
:1043600031EA00024FF000054FF0200626D0216808
:104370004968090505D4602803D084F83D6084F8B5
:104380003E50256320684168090537D5416821F40E
:1043900000614160606B90F835203C49012A11D0E2
:1043A0000165606BFDF717FE38B32068016821F0E6
:1043B0000101016084F83D60606B1CE0256384F8B6
:1043C0003D10DFE7A06B0165A06BFDF704FEA0B117
:1043D00020684169C943490605D40069616A0870CB
:1043E000606A401C60622068016821F00101016080
:1043F00084F83D60A06B016D884710E094F83D1093
:10440000602910D04169C943490605D40069616A31
:104410000870606A401C60622046FEF7F2F9206C6A
:10442000C1071CD115E084F83D6025644169C9438A
:10443000490605D40069616A0870606A401C6062C0
:104440002068016821F0010101602046FEF762F852
:10445000E5E7810703D4410701D4000704D52068AC
:10446000416821F4E061416094F83D00216C490706
:104470000BD5282809D10648E062256384F83D6001
:1044800084F83E502046FEF781FA70BD1D410008B9
:104490000000FFFF01684A69D24352050FD46FF450
:1044A00080624A61002140F8301F202242738173EC
:1044B000026942F00402026101730120704700208A
:1044C000704710B5C26A438D0168042B06D0438D36
:1044D000032B08D0438D022B1DD012E04A6822F432
:1044E00080624A600CE04B6823F480634B60042ACE
:1044F00006D0022A04D001680A6822F480620A60A9
:1045000001680969426A1170416A491C4162418D22
:10451000491E418510BD012A34D0102A32D0042A08
:1045200034D0022A32D00B6843F400730B60016868
:104530000969436A1970416A491C4162438D5B1ED7
:10454000438503681B690B70416A491C4162418DB8
:10455000491E418501684B6823F440734B6020215C
:1045600080F83D1090F83E300021402B80F83E103E
:1045700010D0082A02D0202A00D012210163FEF7B1
:1045800006FA10BD0B6823F48063CFE70B6843F491
:104590008063CBE70163FEF7FDF910BD38B590F8F5
:1045A0003D10222910D1C36A418D03290DD901681C
:1045B0000969426A1170416A491C4162418D491E74
:1045C0004185418D032906D038BDC26A022A02D036
:1045D000012906D029B10068416821F48061416059
:1045E00038BD2A4A46F2A81400211268B2FBF4F240
:1045F00002EB8202009202682024009D6D1E00954D
:1046000026D01568AD05F8D4156825F480651560C9
:104610000268556825F4E065556002681269456ACC
:104620002A70426A521C4262428D521E428580F8B4
:104630003D4090F83E2080F83E10402A21D0082BC3
:1046400002D0202B00D012210163FEF7A0F938BD63
:10465000036C43F020030364536823F4E063536066
:1046600002681269436A1A70426A521C4262428DA1
:10467000521E428580F83D4080F83E10FEF7C1F89A
:1046800038BD0163FEF786F938BD000050000020F8
:1046900010B5C26A90F83D1021290BD1418D51B15E
:1046A000416A026809781161416A491C4162418D81
:1046B000491E418510BD20230021082A13D0202A3D
:1046C00011D012F5803F0ED00268546824F4E064E3
:1046D00054601122026380F83E1080F83D3000BF24
:1046E000FEF756F910BD0268546824F4E064546083
:1046F0000268146844F400741460016380F83D306B
:1047000090F83E2080F83E10402AE9D1FEF764F987
:1047100010BD000010B590F83D1090F83E30C26A10
:10472000048DB4B1212903D0402B11D122290FD1FE
:10473000418DE1B390F83E10402942D0416A0268B1
:1047400009781161416A491C4162418D491E4185C8
:1047500010BD2129E8D120230021082A13D0202AC6
:1047600011D012F5803F0ED00268546824F4E06442
:1047700054601122026380F83E1080F83D3000BF83
:10478000FEF706F910BD0268546824F4E064546032
:104790000268146844F400741460016380F83D30CA
:1047A00090F83E2080F83E10402AE9D100E002E077
:1047B000FEF712F910BD0068416821F48061416084
:1047C00010BDBDE8104000F0D3B8000078B590F8F7
:1047D0003E50C26A036B90F83D6000240168222EAF
:1047E0007AD1066D0EB9402D76D0056D1DB90569DB
:1047F000B5F5404F09D0458D05B3468D384D012E96
:104800000ED0438D022B3AD05DE04A698A6900924E
:104810000A6842F480720A60016D491C016578BD26
:10482000AA4213D10A6822F480620A6001684A68C9
:10483000120503D50A6822F4806216E04A698A6983
:1048400000920A6842F400720A6039E0082A10D027
:10485000202A0ED0122B0AD0042A03D0022A01D01B
:10486000102AE7D10A6842F480620A6024E0012A33
:10487000E0D00A6822F480620A600168DEE7042A58
:1048800021D0022A1FD0102A1DD00B6823F4806388
:104890000B6001680B6843F400630B6001684B68B0
:1048A0001B0509D5AA4212D0012A10D0082A0ED021
:1048B000102A0CD0202A0AD001684A69896900911F
:1048C000046578BD08E00B6843F48063E5E74A6857
:1048D00042F480524A60EFE7486988690090F0E747
:1048E0000000FFFF90F83E10402910D00169B1F59B
:1048F000804F19D0016DA9B3016D012910D1416C10
:104900005FF0F10201F4407142EAD11106E0016D5D
:104910000029416C05D0C9B241F001010068016174
:10492000704701F0FE01F9E790F83D102129416C34
:1049300009D0C9B241F0010102681161416B29B18E
:10494000C96B49B902E001F0FE01F5E7816B00296E
:10495000E6D0C96B0029E3D00068416841F40061EA
:1049600041607047FFE7416CF02201F44071CBE7F2
:1049700010B590F83D10026D4AB1026D012A14D0B5
:10498000026D022A16D0BDE81040FFF7CEBCC16C04
:104990000129816C02D0C1F3072108E00268C9B285
:1049A0001161016D891C016510BD816CC9B202687D
:1049B000116123E022291CD0428D0AB1212920D087
:1049C000428D002AF0D12129EED101684A6822F4F3
:1049D000E0624A6001680A6842F400720A600021DD
:1049E0000163202280F83D2080F83E10FDF7F4FF9F
:1049F00010BD01680A6842F480720A60016D491CAA
:104A0000D1E7416A026809781161416A491C416233
:104A1000418D491E418510BD2DE9F84F04460068BF
:104A200089460B9D01689846174641F480610160F4
:104A30002068016841F48071016000954FF0011B0E
:104A40000022594620460A9B00F0FEF94FF4007AF6
:104A500040B120680068C00501D5C4F840A003201B
:104A6000BDE8F88F216809F0FE0008612B4628494F
:104A700020460A9A00F030FAF0BB2068416980694C
:104A800000902A4620460A9900F0BCFA40B1206CFA
:104A900004283AD12068016841F40071016034E0D3
:104AA000FEB2B8F1010F09D02168380A08612A4620
:104AB00020460A9900F0A6FA0028E8D1206806618D
:104AC0002A4620460A9900F09DFA0028DFD1206886
:104AD000016841F48071016000950022594620462A
:104AE0000A9B00F0B1F90028B3D1216809F0FF005A
:104AF00040F00100086100E007E02B460449204631
:104B00000A9A00F0E9F90028AAD00120A8E70000DD
:104B1000020001002DE9F843044600680D46DDE976
:104B2000089701689846164641F4807101604B462B
:104B300000224FF001112046009700F085F948B19E
:104B400020680068C00502D54FF40070206403207F
:104B5000BDE8F883216805F0FE0008613B464A463F
:104B60001549204600F0B8F988B920684169806984
:104B700000903A464946204600F044FA48B1206C7D
:104B8000042804D12068016841F40071016001200B
:104B9000DEE7F5B2B8F1010F09D02168300A0861EB
:104BA0003A464946204600F02DFA0028E7D1206811
:104BB00005610020CCE700000200010038B50C467A
:104BC00090F83D2000212825954302680B4605D02A
:104BD00051699169009180F83C3038BD556825F4E1
:104BE00080655560E243540700D50121120601D5C6
:104BF000828900E0028B80F83C3092B2FDF78BFC9A
:104C000038BD00002DE9F04190F83D300446C26AFD
:104C1000002120261E4F00686FF48065082A01D00D
:104C2000202A01D1282B04D0212B17D04561BDE8C3
:104C3000F081E762426822F4E062426020684561E8
:104C40002068026822F480620260216384F83D607B
:104C500084F83E102046FDF799FEE8E7E76221223E
:104C6000226384F83D6084F83E10416821F4E061DD
:104C70004160206845612068016821F4806101601D
:104C80002046FFF752FB2046FEF7A3F9CFE70000CE
:104C90000000FFFFF8B590F83D60044600684168E9
:104CA00021F4E061416020680025416900910168BC
:104CB00041F0010101602068016821F48061016018
:104CC00020684168090520D5474F222E48D02A2E5A
:104CD00046D0616B096849686185618D19B1216CA5
:104CE00041F004012164416821F400614160606B7E
:104CF000FDF785F9012808D0606B0765606BFDF74B
:104D00006AF910B1606B016D8847608D08B3206847
:104D10004169C943490708D40069616A0870606A3B
:104D2000401C6062608D401E608520684169C943F7
:104D3000490608D40069616A0870606A401C6062B4
:104D4000608D401E6085608D18B1206C40F00400BD
:104D50002064206C00B32046BDE8F840FFF7EEBAAF
:104D6000A16B096849686185618D19B1216C41F0B9
:104D700004012164416821F400614160A06BFDF7EA
:104D80003EF90128C1D0A06B0765A06BFDF723F9A0
:104D90000028BAD0A06BB6E72A2E06D125632820BA
:104DA00084F83D002046FEF713F994F83D102020CA
:104DB00028290DD0216B222901D0222E07D125636D
:104DC00084F83D0084F83E502046FEF701F9F8BD16
:104DD0000649E162256384F83D0084F83E50204690
:104DE000FDF7D4FDF8BD00001D4100080000FFFFE5
:104DF00070B516460D4604461EE02046FFF74AFBF6
:104E000008B1012070BD681C16D0FDF77DFB801B2A
:104E1000A84200D885B920684069C04340070BD537
:104E2000002044F8300F20216173A073216941F004
:104E3000200121612073E4E720684069C0434007F6
:104E4000DBD4002070BD00002DE9F04798461746DE
:104E50000D460446C1F30746DDF820902AE000BF66
:104E6000B8F1FF3F26D0FDF74FFBA0EB090141450C
:104E700002D8B8F1000F1DD12068012E16D080692C
:104E800025EA00000004000C12D00020B84211D125
:104E9000002044F8300F20216173A073216941F094
:104EA0002001216120730120BDE8F0874069E7E718
:104EB0000120EBE72068012E0AD0806925EA000076
:104EC0000004000C06D00020B842C9D00020EBE757
:104ED0004069F3E70120F7E72DE9F04798461646C9
:104EE0000D4604464FF000094FF0200AC1F3074772
:104EF00023E020684069C043400515D4206801685C
:104F000041F40071016021686FF480604861C4F869
:104F1000309084F83DA084F83E90216C41F004016B
:104F2000216484F83C9021E0701C06D0FDF7ECFA77
:104F3000A0EB0800B04203D816B1012F1FD021E02A
:104F40002068012F15D0806925EA00000004000CBC
:104F500018D000BF44F8309F84F80DA084F80E905C
:104F6000216941F02001216184F80C900120BDE805
:104F7000F087406925EA00000004000CEAD12068AF
:104F8000406901E02068806925EA00000004000C07
:104F9000AFD1ECE72DE9F041002590460E460446DE
:104FA000202728E04069C043C0060CD454F8301BC9
:104FB0006FF01000486144F810596777A577206AB0
:104FC0002062257714E0FDF79FFAA0EB0800B042BD
:104FD00000D886B920684069C04340060BD544F824
:104FE000305F6773A573206940F02000206125734E
:104FF0000120BDE8F08120684169C9434906D1D448
:105000000020F6E770B516460D4604461EE0204621
:10501000FFF740FA08B1012070BD681C16D0FDF7FB
:1050200073FA801BA84200D885B920684069C04344
:1050300000060BD5002044F8300F20216173A073C7
:10504000216941F0200121612073E4E72068406973
:10505000C0430006DBD4002070BD0000F0B504465C
:1050600000254FF480708BB0844201D9044601E0E2
:10507000002C43D0002632230E2205A93B2002F04B
:10508000E7FF0220FDF730F9761CB6B2C82EF2D346
:1050900000261B4F1BE032230E2205A93B2002F005
:1050A000D7FF78B9694605A802F061FBBDF90C008D
:1050B00000EE100A07EB85006D1CB8EEC00AADB219
:1050C00080ED000A0220FDF70FF9761CB6B2A64269
:1050D000E1D3002D12D009AB04AA2946084802F0FA
:1050E000F9FF02F0C1FF72B60648DDED040AC0ED1B
:1050F000040A80ED050A02F0DBFF62B60BB0F0BDDA
:10510000680100200C000020014890ED060A70475D
:105110000C000020014890ED020A70470C000020AE
:105120001FB534480024047044709FED330A80EDAD
:10513000020A80ED030A80ED040AB3EE090A80ED4D
:10514000050A80ED060A02F0B3FF0E212B48FBF79B
:1051500020FA2A480E210E38FBF73DFA8DF80C4054
:1051600003A8642301218DE80B000B467522D02192
:105170002348FDF733FC10B1012004B010BD9DF8A9
:105180000C00682801D00220F7E7642201216B207F
:1051900003F0BAFA08B10320EFE70A20FDF7A4F8FC
:1051A000642200216C2003F0AFFA08B10420E4E788
:1051B00064220021192003F0A7FA08B10520DCE7DA
:1051C000642203211A2003F09FFA08B10620D4E7D5
:1051D000642218211B2003F097FA08B10720CCE7BE
:1051E000642218211C2003F08FFA0028C5D0082063
:1051F000C3E700000C00002000000000960800201B
:10520000640C00201048124AD0ED020A90ED031AF7
:1052100041EE000A9FED0D0AC0ED020A02E000BF58
:1052200070EEC00A10EE901A9142F9DCC0ED020A4D
:10523000084A01E070EE800A10EE901A9142F9D20D
:10524000C0ED020A704700000C0000200000B443CB
:1052500000003443000034C370B55A49A1F10E0078
:1052600002F085FA5748B0F90C10B0F9060000EECC
:10527000100AF8EEC00A9FED541A80EE810ADFEDA5
:10528000530A534830EE202A00EE101A80ED062A09
:10529000B8EEC00AD0ED040A70EE600A9FED4D3AF8
:1052A000484BC48880EE830A0E33C825DFED4A1AC6
:1052B00081880022C82C03EB810319D2491C641C8D
:1052C00083ED000AD0ED070AB1FBF5F370EE800A1A
:1052D00005FB1311C0ED070AD0ED080A40EE000AE5
:1052E000C0ED080A8180A1B2C180C8291AD25AE053
:1052F00093ED001AD0ED070A491C70EEC12AD0EDDB
:10530000080A83ED000AB1FBF5F341EE410A32EEE3
:10531000801A05FB131180ED071A40EE000AC0ED5C
:10532000080A8180DFED2D2AD0ED070AD0ED083A7A
:1053300080EEA21AC3EEA20A41EE410AF5EEC00ABF
:10534000F1EE10FA01D2F0EE610AF0EEC12A12EE8F
:10535000901AB1F1804F06DA10EE901AB1F17E5F2B
:1053600001DA012100E000218170D9B1416A4B1CB2
:1053700001D0491C4162D0ED040ADFED192AB1F5D4
:10538000FA6F41EE030A90ED041A30EEC13A90ED47
:10539000041A02EE831A80ED041A04D3C0ED040A45
:1053A00080ED052A4262F0EEC00A10EE901AB1F1CB
:1053B0007C5F01DAB0EE610A80ED030A01214170E1
:1053C000027070BD960800200000AA43B81E124269
:1053D0000C000020333383410000000000004843EC
:1053E00018B751397CB50C4C207808B101207CBD30
:1053F00000256570012020700E210848CDE90001CC
:1054000001233B22D0210648FDF7EAFB0028EED01D
:10541000257002207CBD00000C00002088080020C0
:10542000640C00200D4808B5016841F400110160CA
:105430000068002200F40010009005210B20FDF709
:1054400061FE0B20FDF750FE002205211120FDF723
:1054500059FEBDE808401120FDF746BE3038024035
:1054600010B501F067FE00F083FE0B4A00210B48E7
:1054700002F038F90A4C084A0021E060483A09482D
:1054800002F030F9044A6060243A0021064802F034
:1054900029F9A06010BD0000E8950008255D00080E
:1054A00034000020015D00082D6000082DE9F04166
:1054B00086B014216846FBF78EF83E480024016848
:1054C00041F010010160016801F0100105910168CF
:1054D00041F080010160016801F0800105910168DF
:1054E00041F001010160016801F0010105910168CD
:1054F00041F002010160016801F0020105910168BB
:1055000041F008010160016801F00801059101689E
:1055100041F0040101600068274E00F004004FF4E0
:1055200040550590002229463046FCF7E7FF234FFF
:10553000002290213846FCF7E1FFDFF8848000224A
:1055400020214046FCF7DAFF00950125CDE9015402
:10555000694630460394FCF7D9FE6802CDE90004A1
:10556000184E694630460294FCF7D0FE4FF4E050E6
:1055700000900220CDE90104032003900A2004904A
:1055800069463046FCF7C2FE90200090CDE90154F8
:10559000694638460394FCF7B9FE20200090CDE917
:1055A0000154694640460394FCF7B0FE06B0BDE8DE
:1055B000F08100003038024000100240000C024030
:1055C00000040240000002400D4810B50B49016084
:1055D0000C49416000214FF480428160C0E9031210
:1055E00041618161C1610162FDF70CF9002803D0BE
:1055F000BDE81040FCF7EDBC10BD000000540040B9
:10560000640C0020801A060030B589B0002407948D
:105610001C2168460894FAF7DEFF25484FF08041C8
:10562000C0E90014611EC0E9024104618461FEF713
:105630003BFB08B1FCF7CDFC1D48FEF7A1FA08B111
:10564000FCF7C7FC079407A919480894FEF778F8F7
:1056500008B1FCF7BEFC6025CDE90054029400229D
:10566000694613480494FEF7B9FA08B1FCF7B1FC97
:10567000042269460E480094FEF758FA08B1FCF778
:10568000A8FC082269460A480095FEF7A7FA08B167
:10569000FCF79FFC0C2269460548FEF79FFA08B10B
:1056A000FCF797FC0248FEF79BF909B030BD0000FB
:1056B000780D002010B58AB0002407941C2168469C
:1056C0000894FAF788FF16481449C0E900144FF609
:1056D000FF71C0E90241802104618161FEF7E4FAB3
:1056E00008B1FCF776FC079407A90D480894FEF76B
:1056F00027F808B1FCF76DFC6020CDE900040294A6
:105700000022694606480494FEF768FA08B1FCF7DF
:1057100060FC0348FEF764F90AB010BD00040040C5
:10572000C00D002010B58AB0002407941C216846E3
:105730000894FAF750FF16481449C0E900144FF6D0
:10574000FF71C0E90241802104618161FEF7ACFA7A
:1057500008B1FCF73EFC079407A90D480894FDF733
:10576000EFFF08B1FCF735FC6020CDE9000402949E
:105770000022694606480494FEF730FA08B1FCF7A7
:1057800028FC0348FEF72CF90AB010BD00080040C1
:10579000080E002010B58AB0002407941C2168462A
:1057A0000894FAF718FF15481349C0E90014611E60
:1057B000C0E9024104618461FEF776FA08B1FCF7A2
:1057C00008FC079407A90D480894FDF7B9FF08B134
:1057D000FCF7FFFB6020CDE9000402940C2269462F
:1057E00006480494FEF7FAF908B1FCF7F2FB034807
:1057F000FEF7F6F80AB010BD000C0040500E002075
:1058000010B592B000240F941C2108A81094FAF748
:10581000E2FE20216846FAF7DEFE20481E49C0E974
:1058200000144FF6FF71C0E9024180210461C0E914
:105830000541FEF739FA08B1FCF7CBFB0F940FA92D
:1058400016481094FDF77CFF08B1FCF7C2FB6020FE
:10585000CDE908040A940B940C940D94082208A92D
:105860000E480E94FEF7BAF908B1FCF7B2FB0094AB
:105870004FF40050CDE9044002940194039469462A
:1058800006480794FDF732FF08B1FCF7A2FB034876
:10589000FEF7A6F812B010BD00040140980E0020DB
:1058A00010B588B01C216846FAF795FE12481149D8
:1058B0000024C0E900144FF6FF71C0E902418021C5
:1058C00004618161FEF7F0F908B1FCF782FB60200A
:1058D000CDE9000402940022694607480494FEF7CB
:1058E0007DF908B1FCF775FB0348FEF779F808B0BD
:1058F00010BD000000400140E00E00200C4810B533
:105900000A4901604FF4E1314160002181600C22BD
:10591000C160C0E904128161C161FEF7C2FA0028CA
:1059200003D0BDE81040FCF754BB10BD001001408F
:10593000280F00200C4810B50A4901604FF4E131EE
:105940004160002181600C22C160C0E904128161C4
:10595000C161FEF7A6FA002803D0BDE81040FCF7AD
:1059600038BB10BD00440040700F00200C4810B53B
:105970000A4901604FF4E1314160002181600C224D
:10598000C160C0E904128161C161FEF78AFA002892
:1059900003D0BDE81040FCF71CBB10BD0048004020
:1059A000B80F00200C4810B50A4901604FF4E131EE
:1059B0004160002181600C22C160C0E90412816154
:1059C000C161FEF76EFA002803D0BDE81040FCF775
:1059D00000BB10BD00140140001000207047000003
:1059E0000F49D1EC021A71EE821A21EEC11A70EE43
:1059F000201A71EEC11AC0ED001A70EE601A71EE35
:105A0000811AC0ED011A70EE601A30EE200A71EEB4
:105A1000C11A30EE010AC0ED021A80ED030A704788
:105A200000000020FEE7FEE7002811D000229FEDD5
:105A3000090A027080ED040A80ED050A80ED060A6D
:105A400080ED070AB7EE000A80ED080A00F06AB898
:105A5000704700000000000008B1007808B1002085
:105A6000704701207047000010B504002DED028B37
:105A7000F0EE408A4DD0F5EEC08AF1EE10FA02D277
:105A8000B1EE680A01E0B0EE680A10EE100A224991
:105A9000884206DABDEC028B2046BDE8104000F0DB
:105AA00075B8D4ED020AB0EE001A94ED038A60EEE8
:105AB000810A20EE800ADFED190A20EE200A01F0AB
:105AC0001FFAB4EEC80AF1EE10FA01D2B0EE408A25
:105AD00018EE100AB0F17E5F01DAB7EE008A9FED92
